{
  "contractName": "AdminLogin",
  "abi": [
    {
      "inputs": [],
      "stateMutability": "nonpayable",
      "type": "constructor"
    },
    {
      "inputs": [],
      "name": "admin",
      "outputs": [
        {
          "internalType": "address",
          "name": "",
          "type": "address"
        }
      ],
      "stateMutability": "view",
      "type": "function"
    },
    {
      "inputs": [],
      "name": "loginAsAdmin",
      "outputs": [
        {
          "internalType": "bool",
          "name": "",
          "type": "bool"
        }
      ],
      "stateMutability": "view",
      "type": "function"
    },
    {
      "inputs": [],
      "name": "performAdminOnlyAction",
      "outputs": [],
      "stateMutability": "nonpayable",
      "type": "function"
    }
  ],
  "bytecode": "0x608060405234801561001057600080fd5b50336000806101000a81548173ffffffffffffffffffffffffffffffffffffffff021916908373ffffffffffffffffffffffffffffffffffffffff160217905550610302806100606000396000f3fe608060405234801561001057600080fd5b50600436106100415760003560e01c806302a2ce9d14610046578063940bb98d14610064578063f851a4401461006e575b600080fd5b61004e61008c565b60405161005b91906101b2565b60405180910390f35b61006c6100e3565b005b610076610173565b604051610083919061020e565b60405180910390f35b60008060009054906101000a900473ffffffffffffffffffffffffffffffffffffffff1673ffffffffffffffffffffffffffffffffffffffff163373ffffffffffffffffffffffffffffffffffffffff1614905090565b60008054906101000a900473ffffffffffffffffffffffffffffffffffffffff1673ffffffffffffffffffffffffffffffffffffffff163373ffffffffffffffffffffffffffffffffffffffff1614610171576040517f08c379a0000000000000000000000000000000000000000000000000000000008152600401610168906102ac565b60405180910390fd5b565b60008054906101000a900473ffffffffffffffffffffffffffffffffffffffff1681565b60008115159050919050565b6101ac81610197565b82525050565b60006020820190506101c760008301846101a3565b92915050565b600073ffffffffffffffffffffffffffffffffffffffff82169050919050565b60006101f8826101cd565b9050919050565b610208816101ed565b82525050565b600060208201905061022360008301846101ff565b92915050565b600082825260208201905092915050565b7f4f6e6c792061646d696e2063616e20706572666f726d2074686973206163746960008201527f6f6e000000000000000000000000000000000000000000000000000000000000602082015250565b6000610296602283610229565b91506102a18261023a565b604082019050919050565b600060208201905081810360008301526102c581610289565b905091905056fea2646970667358221220f398d464d83e6d14911b002efab5a1d64be8d20dce31d3474bade593d10d2e9f64736f6c63430008130033",
  "immutableReferences": {},
  "source": "//SPDX-License-Identifier: UNLICENSED\n//one change for new branch\npragma solidity >=0.6.0 < 0.9.0;\n\n// ----------------------------------CONTRACT #5-----------------------------//\n\ncontract AdminLogin {\n\n    address public admin;\n\n    constructor() {\n        admin = msg.sender; // Set the contract deployer as the admin\n    }\n\n    modifier onlyAdmin() {\n        require(msg.sender == admin, \"Only admin can perform this action\");\n        _;\n    }\n\n    function loginAsAdmin() public view returns (bool) {\n        return msg.sender == admin;\n    }\n\n    function performAdminOnlyAction() public onlyAdmin {\n        // Perform action that only admin can do\n    }\n\n}\n\n\n",
  "sourcePath": "/home/mypc/Documents/mypc/Personal/B.E./uBE/Mega Project/Implementation/v 1.0/contracts/AdminLogin.sol",
  "compiler": {
    "name": "solc",
    "version": "0.8.19+commit.7dd6d404.Emscripten.clang"
  },
  "schemaVersion": "3.4.10",
  "updatedAt": "2023-05-01T06:18:35.544Z",
  "devdoc": {
    "kind": "dev",
    "methods": {},
    "version": 1
  },
  "userdoc": {
    "kind": "user",
    "methods": {},
    "version": 1
  }
}