{
  "contractName": "Authentication",
  "abi": [
    {
      "inputs": [
        {
          "internalType": "address",
          "name": "",
          "type": "address"
        }
      ],
      "name": "users",
      "outputs": [
        {
          "internalType": "address",
          "name": "uaddress",
          "type": "address"
        },
        {
          "internalType": "bytes32",
          "name": "email",
          "type": "bytes32"
        },
        {
          "internalType": "bytes32",
          "name": "passwordHash",
          "type": "bytes32"
        }
      ],
      "stateMutability": "view",
      "type": "function",
      "constant": true
    },
    {
      "inputs": [
        {
          "internalType": "address",
          "name": "uaddress",
          "type": "address"
        },
        {
          "internalType": "bytes32",
          "name": "email",
          "type": "bytes32"
        },
        {
          "internalType": "bytes32",
          "name": "password",
          "type": "bytes32"
        }
      ],
      "name": "register",
      "outputs": [],
      "stateMutability": "nonpayable",
      "type": "function"
    },
    {
      "inputs": [
        {
          "internalType": "address",
          "name": "vaddress",
          "type": "address"
        },
        {
          "internalType": "bytes32",
          "name": "email",
          "type": "bytes32"
        },
        {
          "internalType": "bytes32",
          "name": "password",
          "type": "bytes32"
        }
      ],
      "name": "verifyCredentials",
      "outputs": [
        {
          "internalType": "bool",
          "name": "",
          "type": "bool"
        }
      ],
      "stateMutability": "view",
      "type": "function",
      "constant": true
    }
  ],
  "bytecode": "0x608060405234801561001057600080fd5b506106da806100206000396000f3fe608060405234801561001057600080fd5b50600436106100415760003560e01c8063939e795b14610046578063a87430ba14610076578063f44b483e146100a8575b600080fd5b610060600480360381019061005b9190610493565b6100c4565b60405161006d9190610501565b60405180910390f35b610090600480360381019061008b919061051c565b61026a565b60405161009f93929190610567565b60405180910390f35b6100c260048036038101906100bd9190610493565b6102b4565b005b6000806002836040516020016100da91906105bf565b6040516020818303038152906040526040516100f6919061064b565b602060405180830381855afa158015610113573d6000803e3d6000fd5b5050506040513d601f19601f820116820180604052508101906101369190610677565b90508473ffffffffffffffffffffffffffffffffffffffff166000803373ffffffffffffffffffffffffffffffffffffffff1673ffffffffffffffffffffffffffffffffffffffff16815260200190815260200160002060000160009054906101000a900473ffffffffffffffffffffffffffffffffffffffff1673ffffffffffffffffffffffffffffffffffffffff161480156102145750836000803373ffffffffffffffffffffffffffffffffffffffff1673ffffffffffffffffffffffffffffffffffffffff16815260200190815260200160002060010154145b80156102605750806000803373ffffffffffffffffffffffffffffffffffffffff1673ffffffffffffffffffffffffffffffffffffffff16815260200190815260200160002060020154145b9150509392505050565b60006020528060005260406000206000915090508060000160009054906101000a900473ffffffffffffffffffffffffffffffffffffffff16908060010154908060020154905083565b60006002826040516020016102c991906105bf565b6040516020818303038152906040526040516102e5919061064b565b602060405180830381855afa158015610302573d6000803e3d6000fd5b5050506040513d601f19601f820116820180604052508101906103259190610677565b905060405180606001604052808573ffffffffffffffffffffffffffffffffffffffff168152602001848152602001828152506000803373ffffffffffffffffffffffffffffffffffffffff1673ffffffffffffffffffffffffffffffffffffffff16815260200190815260200160002060008201518160000160006101000a81548173ffffffffffffffffffffffffffffffffffffffff021916908373ffffffffffffffffffffffffffffffffffffffff160217905550602082015181600101556040820151816002015590505050505050565b600080fd5b600073ffffffffffffffffffffffffffffffffffffffff82169050919050565b600061042a826103ff565b9050919050565b61043a8161041f565b811461044557600080fd5b50565b60008135905061045781610431565b92915050565b6000819050919050565b6104708161045d565b811461047b57600080fd5b50565b60008135905061048d81610467565b92915050565b6000806000606084860312156104ac576104ab6103fa565b5b60006104ba86828701610448565b93505060206104cb8682870161047e565b92505060406104dc8682870161047e565b9150509250925092565b60008115159050919050565b6104fb816104e6565b82525050565b600060208201905061051660008301846104f2565b92915050565b600060208284031215610532576105316103fa565b5b600061054084828501610448565b91505092915050565b6105528161041f565b82525050565b6105618161045d565b82525050565b600060608201905061057c6000830186610549565b6105896020830185610558565b6105966040830184610558565b949350505050565b6000819050919050565b6105b96105b48261045d565b61059e565b82525050565b60006105cb82846105a8565b60208201915081905092915050565b600081519050919050565b600081905092915050565b60005b8381101561060e5780820151818401526020810190506105f3565b60008484015250505050565b6000610625826105da565b61062f81856105e5565b935061063f8185602086016105f0565b80840191505092915050565b6000610657828461061a565b915081905092915050565b60008151905061067181610467565b92915050565b60006020828403121561068d5761068c6103fa565b5b600061069b84828501610662565b9150509291505056fea2646970667358221220dccf40ae02e2f19494f2918bfa9e78e759f94ab42f018098865c454bb4e7bc2c64736f6c63430008130033",
  "immutableReferences": {},
  "source": "//SPDX-License-Identifier: UNLICENSED\n//one change for new branch\npragma solidity >=0.6.0 < 0.9.0;\n\n// contract Authentication {\n//     mapping(address => bool) public authorized;\n\n//     function authorize(address _address) public {\n//         authorized[_address] = true;\n//     }\n\n//     function revoke(address _address) public {\n//         authorized[_address] = false;\n//     }\n\n//     function isAuthorized(address _address) public view returns (bool) {\n//         return authorized[_address];\n//     }\n// }\n\n// -------------------------------Authentication 2------------------------------//\n// comapring passwords too!\n\n\n\ncontract Authentication {\n    struct User {\n        address uaddress;\n        bytes32 email;\n        bytes32 passwordHash;\n    }\n\n    mapping (address => User) public users;\n\n    function register(address uaddress, bytes32 email, bytes32 password) public {\n        bytes32 passwordHash = sha256(abi.encodePacked(password));\n        users[msg.sender] = User(uaddress, email, passwordHash);\n    }\n\n    function verifyCredentials(address vaddress, bytes32 email, bytes32 password) public view returns (bool) {\n        bytes32 hashedPassword = sha256(abi.encodePacked(password));\n        return users[msg.sender].uaddress == vaddress && users[msg.sender].email == email && users[msg.sender].passwordHash == hashedPassword;\n    }\n}\n\n",
  "sourcePath": "/home/mypc/Documents/mypc/Personal/B.E./uBE/Mega Project/Implementation/v 1.0/contracts/Authentication.sol",
  "compiler": {
    "name": "solc",
    "version": "0.8.19+commit.7dd6d404.Emscripten.clang"
  },
  "schemaVersion": "3.4.10",
  "updatedAt": "2023-03-01T22:29:35.104Z",
  "networkType": "ethereum",
  "devdoc": {
    "kind": "dev",
    "methods": {},
    "version": 1
  },
  "userdoc": {
    "kind": "user",
    "methods": {},
    "version": 1
  }
}