{
  "contractName": "demo",
  "abi": [
    {
      "inputs": [
        {
          "internalType": "uint256",
          "name": "newValue",
          "type": "uint256"
        }
      ],
      "name": "setTheInt",
      "outputs": [],
      "stateMutability": "nonpayable",
      "type": "function"
    },
    {
      "inputs": [],
      "name": "getTheInt",
      "outputs": [
        {
          "internalType": "uint256",
          "name": "",
          "type": "uint256"
        }
      ],
      "stateMutability": "view",
      "type": "function",
      "constant": true
    },
    {
      "inputs": [],
      "name": "getTheInt2",
      "outputs": [
        {
          "internalType": "uint256",
          "name": "",
          "type": "uint256"
        }
      ],
      "stateMutability": "view",
      "type": "function",
      "constant": true
    }
  ],
  "bytecode": "0x6080604052600c60015534801561001557600080fd5b50610183806100256000396000f3fe608060405234801561001057600080fd5b50600436106100415760003560e01c80631316e41214610046578063457b079314610064578063ec068e0a14610080575b600080fd5b61004e61009e565b60405161005b91906100d4565b60405180910390f35b61007e60048036038101906100799190610120565b6100a8565b005b6100886100b2565b60405161009591906100d4565b60405180910390f35b6000600154905090565b8060008190555050565b60008054905090565b6000819050919050565b6100ce816100bb565b82525050565b60006020820190506100e960008301846100c5565b92915050565b600080fd5b6100fd816100bb565b811461010857600080fd5b50565b60008135905061011a816100f4565b92915050565b600060208284031215610136576101356100ef565b5b60006101448482850161010b565b9150509291505056fea2646970667358221220c66d5357b982cd490b86bab0b1a2aadca8807b1a249af09cddfb79d234a84c8e64736f6c63430008130033",
  "immutableReferences": {},
  "source": "// SPDX-License-Identifier: MIT\npragma solidity >=0.6.0 < 0.9.0;\ncontract demo {\n    uint256 myInt;\n    uint256 myInt2 = 12;\n\n    function setTheInt(uint256 newValue) public {\n        myInt = newValue;\n    }\n\n    function getTheInt() public view returns (uint256) {\n        return myInt;\n    }\n\n    function getTheInt2() public view returns (uint256) {\n        return myInt2;\n    }\n\n    \n}\n",
  "sourcePath": "/home/mypc/Documents/mypc/Personal/B.E./uBE/Mega Project/Implementation/v 1.0/contracts/demo.sol",
  "compiler": {
    "name": "solc",
    "version": "0.8.19+commit.7dd6d404.Emscripten.clang"
  },
  "schemaVersion": "3.4.10",
  "updatedAt": "2023-05-16T07:00:39.806Z",
  "networkType": "ethereum",
  "devdoc": {
    "kind": "dev",
    "methods": {},
    "version": 1
  },
  "userdoc": {
    "kind": "user",
    "methods": {},
    "version": 1
  }
}