{
  "contractName": "funding",
  "abi": [
    {
      "inputs": [],
      "stateMutability": "nonpayable",
      "type": "constructor"
    },
    {
      "inputs": [],
      "name": "admin",
      "outputs": [
        {
          "internalType": "address",
          "name": "",
          "type": "address"
        }
      ],
      "stateMutability": "view",
      "type": "function"
    },
    {
      "inputs": [
        {
          "internalType": "address",
          "name": "",
          "type": "address"
        }
      ],
      "name": "contributors",
      "outputs": [
        {
          "internalType": "uint256",
          "name": "",
          "type": "uint256"
        }
      ],
      "stateMutability": "view",
      "type": "function"
    },
    {
      "inputs": [],
      "name": "fundingGoal",
      "outputs": [
        {
          "internalType": "uint256",
          "name": "",
          "type": "uint256"
        }
      ],
      "stateMutability": "view",
      "type": "function"
    },
    {
      "inputs": [],
      "name": "goalReached",
      "outputs": [
        {
          "internalType": "bool",
          "name": "",
          "type": "bool"
        }
      ],
      "stateMutability": "view",
      "type": "function"
    },
    {
      "inputs": [],
      "name": "projectOwner",
      "outputs": [
        {
          "internalType": "address payable",
          "name": "",
          "type": "address"
        }
      ],
      "stateMutability": "view",
      "type": "function"
    },
    {
      "inputs": [],
      "name": "totalAmountRaised",
      "outputs": [
        {
          "internalType": "uint256",
          "name": "",
          "type": "uint256"
        }
      ],
      "stateMutability": "view",
      "type": "function"
    },
    {
      "inputs": [
        {
          "internalType": "uint256",
          "name": "weiAmount",
          "type": "uint256"
        }
      ],
      "name": "weiToEther",
      "outputs": [
        {
          "internalType": "uint256",
          "name": "",
          "type": "uint256"
        }
      ],
      "stateMutability": "pure",
      "type": "function"
    },
    {
      "inputs": [
        {
          "internalType": "uint256",
          "name": "_projectId",
          "type": "uint256"
        }
      ],
      "name": "contribute",
      "outputs": [],
      "stateMutability": "payable",
      "type": "function"
    },
    {
      "inputs": [
        {
          "internalType": "uint256",
          "name": "_projectId",
          "type": "uint256"
        }
      ],
      "name": "getProjectName",
      "outputs": [
        {
          "internalType": "string",
          "name": "",
          "type": "string"
        }
      ],
      "stateMutability": "view",
      "type": "function"
    },
    {
      "inputs": [
        {
          "internalType": "uint256",
          "name": "_projectId",
          "type": "uint256"
        }
      ],
      "name": "getProjectAmountRaised",
      "outputs": [
        {
          "internalType": "uint256",
          "name": "",
          "type": "uint256"
        }
      ],
      "stateMutability": "view",
      "type": "function"
    },
    {
      "inputs": [
        {
          "internalType": "uint256",
          "name": "_projectId",
          "type": "uint256"
        }
      ],
      "name": "getToRaised",
      "outputs": [
        {
          "internalType": "uint256",
          "name": "",
          "type": "uint256"
        }
      ],
      "stateMutability": "view",
      "type": "function"
    },
    {
      "inputs": [],
      "name": "withdraw",
      "outputs": [],
      "stateMutability": "nonpayable",
      "type": "function"
    },
    {
      "inputs": [],
      "name": "checkGoalReached",
      "outputs": [],
      "stateMutability": "nonpayable",
      "type": "function"
    },
    {
      "inputs": [],
      "name": "refund",
      "outputs": [],
      "stateMutability": "nonpayable",
      "type": "function"
    }
  ],
  "bytecode": "0x608060405234801561000f575f80fd5b50737b510757dc3153b985e5fd3f639b467eb007b9e15f806101000a81548173ffffffffffffffffffffffffffffffffffffffff021916908373ffffffffffffffffffffffffffffffffffffffff160217905550611219806100705f395ff3fe6080604052600436106100dc575f3560e01c80637a3a0e841161007e578063c1cbbca711610058578063c1cbbca71461027e578063d0eff8911461029a578063f1fa906c146102d6578063f851a44014610312576100dc565b80637a3a0e84146102005780637d3d65221461022a578063a4475ce414610254576100dc565b806332535f38116100ba57806332535f381461015c5780633ccfd60b14610198578063520ac64e146101ae578063590e1ae3146101ea576100dc565b806301cb3b20146100e05780631f6d4942146100f6578063242d7dba14610132575b5f80fd5b3480156100eb575f80fd5b506100f461033c565b005b348015610101575f80fd5b5061011c60048036038101906101179190610953565b610364565b6040516101299190610996565b60405180910390f35b34801561013d575f80fd5b50610146610379565b6040516101539190610996565b60405180910390f35b348015610167575f80fd5b50610182600480360381019061017d91906109d9565b61037f565b60405161018f9190610996565b60405180910390f35b3480156101a3575f80fd5b506101ac610426565b005b3480156101b9575f80fd5b506101d460048036038101906101cf91906109d9565b610549565b6040516101e19190610996565b60405180910390f35b3480156101f5575f80fd5b506101fe6105f0565b005b34801561020b575f80fd5b50610214610751565b6040516102219190610996565b60405180910390f35b348015610235575f80fd5b5061023e610757565b60405161024b9190610a1e565b60405180910390f35b34801561025f575f80fd5b50610268610769565b6040516102759190610a57565b60405180910390f35b610298600480360381019061029391906109d9565b61078e565b005b3480156102a5575f80fd5b506102c060048036038101906102bb91906109d9565b610800565b6040516102cd9190610996565b60405180910390f35b3480156102e1575f80fd5b506102fc60048036038101906102f791906109d9565b61081c565b6040516103099190610afa565b60405180910390f35b34801561031d575f80fd5b506103266108c2565b6040516103339190610b29565b60405180910390f35b6002546003541061036257600160055f6101000a81548160ff0219169083151502179055505b565b6004602052805f5260405f205f915090505481565b60035481565b5f805f9054906101000a900473ffffffffffffffffffffffffffffffffffffffff1673ffffffffffffffffffffffffffffffffffffffff1663f0f3f2c8836040518263ffffffff1660e01b81526004016103d99190610996565b5f60405180830381865afa1580156103f3573d5f803e3d5ffd5b505050506040513d5f823e3d601f19601f8201168201806040525081019061041b9190610ecd565b608001519050919050565b60055f9054906101000a900460ff16610474576040517f08c379a000000000000000000000000000000000000000000000000000000000815260040161046b90610f5e565b60405180910390fd5b60015f9054906101000a900473ffffffffffffffffffffffffffffffffffffffff1673ffffffffffffffffffffffffffffffffffffffff163373ffffffffffffffffffffffffffffffffffffffff1614610503576040517f08c379a00000000000000000000000000000000000000000000000000000000081526004016104fa90610fec565b60405180910390fd5b3373ffffffffffffffffffffffffffffffffffffffff166108fc4790811502906040515f60405180830381858888f19350505050158015610546573d5f803e3d5ffd5b50565b5f805f9054906101000a900473ffffffffffffffffffffffffffffffffffffffff1673ffffffffffffffffffffffffffffffffffffffff1663f0f3f2c8836040518263ffffffff1660e01b81526004016105a39190610996565b5f60405180830381865afa1580156105bd573d5f803e3d5ffd5b505050506040513d5f823e3d601f19601f820116820180604052508101906105e59190610ecd565b60a001519050919050565b5f60045f3373ffffffffffffffffffffffffffffffffffffffff1673ffffffffffffffffffffffffffffffffffffffff1681526020019081526020015f20541161066f576040517f08c379a00000000000000000000000000000000000000000000000000000000081526004016106669061107a565b60405180910390fd5b5f60045f3373ffffffffffffffffffffffffffffffffffffffff1673ffffffffffffffffffffffffffffffffffffffff1681526020019081526020015f205490505f60045f3373ffffffffffffffffffffffffffffffffffffffff1673ffffffffffffffffffffffffffffffffffffffff1681526020019081526020015f20819055508060035f82825461070391906110c5565b925050819055503373ffffffffffffffffffffffffffffffffffffffff166108fc8290811502906040515f60405180830381858888f1935050505015801561074d573d5f803e3d5ffd5b5050565b60025481565b60055f9054906101000a900460ff1681565b60015f9054906101000a900473ffffffffffffffffffffffffffffffffffffffff1681565b5f34116107d0576040517f08c379a00000000000000000000000000000000000000000000000000000000081526004016107c790611168565b60405180910390fd5b5f6107da82610549565b6107e38361037f565b6107ed91906110c5565b90505f6107f934610800565b9050505050565b5f670de0b6b3a76400008261081591906111b3565b9050919050565b60605f8054906101000a900473ffffffffffffffffffffffffffffffffffffffff1673ffffffffffffffffffffffffffffffffffffffff1663f0f3f2c8836040518263ffffffff1660e01b81526004016108769190610996565b5f60405180830381865afa158015610890573d5f803e3d5ffd5b505050506040513d5f823e3d601f19601f820116820180604052508101906108b89190610ecd565b5f01519050919050565b600560019054906101000a900473ffffffffffffffffffffffffffffffffffffffff1681565b5f604051905090565b5f80fd5b5f80fd5b5f73ffffffffffffffffffffffffffffffffffffffff82169050919050565b5f610922826108f9565b9050919050565b61093281610918565b811461093c575f80fd5b50565b5f8135905061094d81610929565b92915050565b5f60208284031215610968576109676108f1565b5b5f6109758482850161093f565b91505092915050565b5f819050919050565b6109908161097e565b82525050565b5f6020820190506109a95f830184610987565b92915050565b6109b88161097e565b81146109c2575f80fd5b50565b5f813590506109d3816109af565b92915050565b5f602082840312156109ee576109ed6108f1565b5b5f6109fb848285016109c5565b91505092915050565b5f8115159050919050565b610a1881610a04565b82525050565b5f602082019050610a315f830184610a0f565b92915050565b5f610a41826108f9565b9050919050565b610a5181610a37565b82525050565b5f602082019050610a6a5f830184610a48565b92915050565b5f81519050919050565b5f82825260208201905092915050565b5f5b83811015610aa7578082015181840152602081019050610a8c565b5f8484015250505050565b5f601f19601f8301169050919050565b5f610acc82610a70565b610ad68185610a7a565b9350610ae6818560208601610a8a565b610aef81610ab2565b840191505092915050565b5f6020820190508181035f830152610b128184610ac2565b905092915050565b610b2381610918565b82525050565b5f602082019050610b3c5f830184610b1a565b92915050565b5f80fd5b7f4e487b71000000000000000000000000000000000000000000000000000000005f52604160045260245ffd5b610b7c82610ab2565b810181811067ffffffffffffffff82111715610b9b57610b9a610b46565b5b80604052505050565b5f610bad6108e8565b9050610bb98282610b73565b919050565b5f80fd5b5f80fd5b5f80fd5b5f67ffffffffffffffff821115610be457610be3610b46565b5b610bed82610ab2565b9050602081019050919050565b5f610c0c610c0784610bca565b610ba4565b905082815260208101848484011115610c2857610c27610bc6565b5b610c33848285610a8a565b509392505050565b5f82601f830112610c4f57610c4e610bc2565b5b8151610c5f848260208601610bfa565b91505092915050565b5f81519050610c76816109af565b92915050565b5f67ffffffffffffffff821115610c9657610c95610b46565b5b602082029050602081019050919050565b5f80fd5b5f610cbd610cb884610c7c565b610ba4565b90508083825260208201905060208402830185811115610ce057610cdf610ca7565b5b835b81811015610d2757805167ffffffffffffffff811115610d0557610d04610bc2565b5b808601610d128982610c3b565b85526020850194505050602081019050610ce2565b5050509392505050565b5f82601f830112610d4557610d44610bc2565b5b8151610d55848260208601610cab565b91505092915050565b5f6101008284031215610d7457610d73610b42565b5b610d7f610100610ba4565b90505f82015167ffffffffffffffff811115610d9e57610d9d610bbe565b5b610daa84828501610c3b565b5f83015250602082015167ffffffffffffffff811115610dcd57610dcc610bbe565b5b610dd984828501610c3b565b602083015250604082015167ffffffffffffffff811115610dfd57610dfc610bbe565b5b610e0984828501610c3b565b604083015250606082015167ffffffffffffffff811115610e2d57610e2c610bbe565b5b610e3984828501610c3b565b6060830152506080610e4d84828501610c68565b60808301525060a0610e6184828501610c68565b60a08301525060c082015167ffffffffffffffff811115610e8557610e84610bbe565b5b610e9184828501610d31565b60c08301525060e082015167ffffffffffffffff811115610eb557610eb4610bbe565b5b610ec184828501610c3b565b60e08301525092915050565b5f60208284031215610ee257610ee16108f1565b5b5f82015167ffffffffffffffff811115610eff57610efe6108f5565b5b610f0b84828501610d5e565b91505092915050565b7f46756e64696e6720676f616c206e6f74207265616368656400000000000000005f82015250565b5f610f48601883610a7a565b9150610f5382610f14565b602082019050919050565b5f6020820190508181035f830152610f7581610f3c565b9050919050565b7f4f6e6c792070726f6a656374206f776e65722063616e207769746864726177205f8201527f66756e6473000000000000000000000000000000000000000000000000000000602082015250565b5f610fd6602583610a7a565b9150610fe182610f7c565b604082019050919050565b5f6020820190508181035f83015261100381610fca565b9050919050565b7f4e6f20636f6e747269627574696f6e20666f756e6420666f72207468697320615f8201527f6464726573730000000000000000000000000000000000000000000000000000602082015250565b5f611064602683610a7a565b915061106f8261100a565b604082019050919050565b5f6020820190508181035f83015261109181611058565b9050919050565b7f4e487b71000000000000000000000000000000000000000000000000000000005f52601160045260245ffd5b5f6110cf8261097e565b91506110da8361097e565b92508282039050818111156110f2576110f1611098565b5b92915050565b7f436f6e747269627574696f6e20616d6f756e74206d75737420626520677265615f8201527f746572207468616e203000000000000000000000000000000000000000000000602082015250565b5f611152602a83610a7a565b915061115d826110f8565b604082019050919050565b5f6020820190508181035f83015261117f81611146565b9050919050565b7f4e487b71000000000000000000000000000000000000000000000000000000005f52601260045260245ffd5b5f6111bd8261097e565b91506111c88361097e565b9250826111d8576111d7611186565b5b82820490509291505056fea26469706673582212204d32891b7bc02029e7416bd98275752c493a5fce44891c637f3afdf320719e6f64736f6c63430008140033",
  "immutableReferences": {},
  "source": "//SPDX-License-Identifier: UNLICENSED\npragma solidity >=0.6.0 < 0.9.0;\n\n//---------------------------------CONTRACT #1-------------------------------------//\n// contract funding{\n//     mapping(address=>uint) public contributors; //contributors[msg.sender]=100\n//     address public manager; \n//     uint public minimumContribution;\n//     uint public deadline;\n//     uint public target;\n//     uint public raisedAmount;\n//     uint public noOfContributors;\n    \n//     struct Request{\n//         string description;\n//         address payable recipient;\n//         uint value;\n//         bool completed;\n//         uint noOfVoters;\n//         mapping(address=>bool) voters;\n//     }\n\n//     mapping(uint=>Request) public requests;\n//     uint public numRequests;\n\n//     constructor (uint _target,uint _deadline){\n//         target=_target;\n//         deadline=block.timestamp+_deadline; //10sec + 3600sec (60*60)\n//         minimumContribution=100 wei;\n//         manager=msg.sender;\n//     }\n    \n// // Donor functions\n// // 1. Donate Money\n//     function sendEth() public payable{\n//         require(block.timestamp < deadline,\"Deadline has passed\");\n//         require(msg.value >=minimumContribution,\"Minimum Contribution is not met\");\n        \n//         if(contributors[msg.sender]==0){\n//             noOfContributors++;\n//         }\n//         contributors[msg.sender]+=msg.value;\n//         raisedAmount+=msg.value;\n//     }\n//     function getContractBalance() public view returns(uint){\n//         return address(this).balance;\n//     }\n\n// // 2. Request refund\n//     function refund() public payable{\n//         // require(block.timestamp>deadline && raisedAmount<target,\"You are not eligible for refund\");\n//         require(contributors[msg.sender]>0);\n//         address payable user= payable(msg.sender);\n//         user.transfer(contributors[msg.sender]);\n//         raisedAmount -= contributors[msg.sender];\n//         noOfContributors--;\n//         contributors[msg.sender]=0;\n        \n//     }\n\n// // 3. To get votes from existing contributors to allocate the new project\n//     function voteRequest(uint _requestNo) public{\n//         require(contributors[msg.sender]>0,\"You must be contributor\");\n//         Request storage thisRequest=requests[_requestNo];\n//         require(thisRequest.voters[msg.sender]==false,\"You have already voted\");\n//         thisRequest.voters[msg.sender]=true;\n//         thisRequest.noOfVoters++;\n//     }\n\n// // modifier to check if the function is accessed by the manager(as some functions cannot be accessed by anybody else)\n//     modifier onlyManager(){\n//         require(msg.sender == manager,\"Only manager can call this function\");\n//         _;\n//     }\n\n// // Manager(Admin) Functions\n// // 1. To create new Project allocations\n//     function createRequests(string memory _description,address payable _recipient,uint _value)public onlyManager{\n//         Request storage newRequest = requests[numRequests];\n//         numRequests++;\n//         newRequest.description=_description;\n//         newRequest.recipient=_recipient;\n//         newRequest.value=_value;\n//         newRequest.completed=false;\n//         newRequest.noOfVoters=0;\n//     }\n\n\n// }\n\n\n//---------------------------------CONTRACT #2-------------------------------------//\n// contract funding {\n    \n//     // Project struct to store project details\n//     struct Project {\n//         address owner;\n//         string title;\n//         string description;\n//         uint goal;\n//         uint raised;\n//         bool completed;\n//         mapping(address => uint) contributions;\n//     }\n    \n//     // Array of projects\n//     Project[] public projects;\n    \n//     // Event emitted when a new project is created\n//     // event ProjectCreated(uint projectId, address owner, string title, string description, uint goal);\n    \n//     // Event emitted when a project is funded\n//     event ProjectFunded(uint projectId, address funder, uint amount);\n    \n    \n//     // Function to fund a project\n//     function fundProject(uint _projectId) public payable {\n//         Project storage project = projects[_projectId];\n//         require(msg.value > 0, \"Amount should be greater than 0\");\n//         require(!project.completed, \"Project is already completed\");\n//         require(project.raised < project.goal, \"Project goal is already reached\");\n//         project.contributions[msg.sender] += msg.value;\n//         project.raised += msg.value;\n//         emit ProjectFunded(_projectId, msg.sender, msg.value);\n//     }\n    \n//     // Function to check the contribution of a funder for a project\n//     function checkContribution(uint _projectId) public view returns(uint) {\n//         return projects[_projectId].contributions[msg.sender];\n//     }\n    \n//     // Function to check the status of a project\n//     function checkProjectStatus(uint _projectId) public view returns(bool) {\n//         return projects[_projectId].completed;\n//     }\n    \n//     // Function to complete a project and transfer funds to owner\n//     function completeProject(uint _projectId) public {\n//         Project storage project = projects[_projectId];\n//         require(!project.completed, \"Project is already completed\");\n//         require(project.raised >= project.goal, \"Project goal is not reached\");\n//         project.completed = true;\n//         payable(project.owner).transfer(project.raised);\n//     }\n// }\n\n\n\n//---------------------------------CONTRACT #3-------------------------------------//\n// import \"./ProjectDetails.sol\";\n\n// contract funding {\n\n//     // Project Contract\n//     ProjectDetails projectDetails;\n\n//     address payable public projectOwner;\n//     uint public fundingGoal;\n//     uint public totalAmountRaised;\n//     mapping(address => uint) public contributors;\n//     bool public goalReached;\n\n//     address public admin;\n\n//     // constructor(address payable _projectOwner, uint _fundingGoal, address _admin) {\n//     //     projectOwner = _projectOwner;\n//     //     fundingGoal = _fundingGoal;\n//     //     admin = _admin;\n//     // }\n\n//     constructor(address _admin) {\n//         projectDetails = ProjectDetails(0xDCC75D043d19b083Cca4CA9d35FA45C2ae4D9051);\n//         admin = _admin;\n//     }\n\n\n//     function contribute(uint256 _projectId) public payable {\n//         require(msg.value > 0, \"Contribution amount must be greater than 0\");\n//         require(msg.value < projectDetails.getProject(_projectId).amountToRaise, \"Funding goal already reached\");\n//         projectDetails.getProject(_projectId).amountRaised += msg.value;\n//         contributors[msg.sender] += msg.value;\n//         totalAmountRaised += msg.value;\n//         payable(projectDetails.getProjectOwner(_projectId)).transfer(msg.value);\n//     }\n\n//     function withdraw() public {\n//         require(goalReached, \"Funding goal not reached\");\n//         require(msg.sender == projectOwner, \"Only project owner can withdraw funds\");\n//         payable(msg.sender).transfer(address(this).balance);\n//     }\n\n//     function checkGoalReached() public {\n//         if (totalAmountRaised >= fundingGoal) {\n//             goalReached = true;\n//         }\n//     }\n\n//     function refund() public {\n//         require(contributors[msg.sender] > 0, \"No contribution found for this address\");\n//         uint amount = contributors[msg.sender];\n//         contributors[msg.sender] = 0;\n//         totalAmountRaised -= amount;\n//         payable(msg.sender).transfer(amount);\n//     }\n// }\n\n\n//---------------------------------CONTRACT #4-------------------------------------//\nimport \"./ProjectDetails.sol\";\n\ncontract funding {\n\n    // Project Contract\n    ProjectDetails projectDetails;\n\n    address payable public projectOwner;\n    uint public fundingGoal;\n    uint public totalAmountRaised;\n    mapping(address => uint) public contributors;\n    bool public goalReached;\n\n    address public admin;\n\n    constructor() {\n        projectDetails = ProjectDetails(0x7B510757Dc3153b985e5fd3f639b467eB007B9E1);\n        // admin = _admin;\n    }\n\n    function weiToEther(uint256 weiAmount) public pure returns (uint256) {\n        return weiAmount / 1 ether;\n    }\n\n\n\n    function contribute(uint256 _projectId) public payable {\n        require(msg.value > 0, \"Contribution amount must be greater than 0\");\n\n        uint256 remainingAmount = getToRaised(_projectId) - getProjectAmountRaised(_projectId);\n        uint256 etherAmount = weiToEther(msg.value);\n\n        // CHANGES                                \n        if (etherAmount >= remainingAmount) {\n            // Adjust the contribution amount to the remaining amount required to reach the funding goal\n            // payable(projectDetails.getProjectOwner(_projectId)).transfer(etherAmount - remainingAmount);\n            // projectDetails.addAmountRaised(_projectId, remainingAmount);\n        } else {\n            // projectDetails.addAmountRaised(_projectId, etherAmount);\n            // payable(projectDetails.getProjectOwner(_projectId)).transfer(etherAmount);\n        }\n        \n        \n    }\n\n    // remix\n    function getProjectName(uint256 _projectId) public view returns (string memory) {\n        return projectDetails.getProject(_projectId).title;\n    }\n\n    // remix\n    function getProjectAmountRaised(uint256 _projectId) public view returns (uint256) {\n        return projectDetails.getProject(_projectId).amountRaised;\n    }\n\n    function getToRaised(uint256 _projectId) public view returns (uint256) {\n        return projectDetails.getProject(_projectId).amountToRaise;\n    }\n\n    function withdraw() public {\n        require(goalReached, \"Funding goal not reached\");\n        require(msg.sender == projectOwner, \"Only project owner can withdraw funds\");\n        payable(msg.sender).transfer(address(this).balance);\n    }\n\n    function checkGoalReached() public {\n        if (totalAmountRaised >= fundingGoal) {\n            goalReached = true;\n        }\n    }\n\n    function refund() public {\n        require(contributors[msg.sender] > 0, \"No contribution found for this address\");\n        uint amount = contributors[msg.sender];\n        contributors[msg.sender] = 0;\n        totalAmountRaised -= amount;\n        payable(msg.sender).transfer(amount);\n    }\n}\n\n",
  "sourcePath": "/home/mypc/Documents/mypc/Personal/B.E./uBE/Mega Project/Implementation/v 1.0/contracts/funding.sol",
  "compiler": {
    "name": "solc",
    "version": "0.8.20+commit.a1b79de6.Emscripten.clang"
  },
  "schemaVersion": "3.4.13",
  "updatedAt": "2023-05-17T12:03:02.151Z",
  "devdoc": {
    "kind": "dev",
    "methods": {},
    "version": 1
  },
  "userdoc": {
    "kind": "user",
    "methods": {},
    "version": 1
  }
}