{
  "contractName": "funding",
  "abi": [
    {
      "inputs": [
        {
          "internalType": "uint256",
          "name": "_target",
          "type": "uint256"
        },
        {
          "internalType": "uint256",
          "name": "_deadline",
          "type": "uint256"
        }
      ],
      "payable": false,
      "stateMutability": "nonpayable",
      "type": "constructor"
    },
    {
      "constant": true,
      "inputs": [
        {
          "internalType": "address",
          "name": "",
          "type": "address"
        }
      ],
      "name": "contributors",
      "outputs": [
        {
          "internalType": "uint256",
          "name": "",
          "type": "uint256"
        }
      ],
      "payable": false,
      "stateMutability": "view",
      "type": "function"
    },
    {
      "constant": true,
      "inputs": [],
      "name": "deadline",
      "outputs": [
        {
          "internalType": "uint256",
          "name": "",
          "type": "uint256"
        }
      ],
      "payable": false,
      "stateMutability": "view",
      "type": "function"
    },
    {
      "constant": true,
      "inputs": [],
      "name": "manager",
      "outputs": [
        {
          "internalType": "address",
          "name": "",
          "type": "address"
        }
      ],
      "payable": false,
      "stateMutability": "view",
      "type": "function"
    },
    {
      "constant": true,
      "inputs": [],
      "name": "minimumContribution",
      "outputs": [
        {
          "internalType": "uint256",
          "name": "",
          "type": "uint256"
        }
      ],
      "payable": false,
      "stateMutability": "view",
      "type": "function"
    },
    {
      "constant": true,
      "inputs": [],
      "name": "noOfContributors",
      "outputs": [
        {
          "internalType": "uint256",
          "name": "",
          "type": "uint256"
        }
      ],
      "payable": false,
      "stateMutability": "view",
      "type": "function"
    },
    {
      "constant": true,
      "inputs": [],
      "name": "numRequests",
      "outputs": [
        {
          "internalType": "uint256",
          "name": "",
          "type": "uint256"
        }
      ],
      "payable": false,
      "stateMutability": "view",
      "type": "function"
    },
    {
      "constant": true,
      "inputs": [],
      "name": "raisedAmount",
      "outputs": [
        {
          "internalType": "uint256",
          "name": "",
          "type": "uint256"
        }
      ],
      "payable": false,
      "stateMutability": "view",
      "type": "function"
    },
    {
      "constant": true,
      "inputs": [
        {
          "internalType": "uint256",
          "name": "",
          "type": "uint256"
        }
      ],
      "name": "requests",
      "outputs": [
        {
          "internalType": "string",
          "name": "description",
          "type": "string"
        },
        {
          "internalType": "address payable",
          "name": "recipient",
          "type": "address"
        },
        {
          "internalType": "uint256",
          "name": "value",
          "type": "uint256"
        },
        {
          "internalType": "bool",
          "name": "completed",
          "type": "bool"
        },
        {
          "internalType": "uint256",
          "name": "noOfVoters",
          "type": "uint256"
        }
      ],
      "payable": false,
      "stateMutability": "view",
      "type": "function"
    },
    {
      "constant": true,
      "inputs": [],
      "name": "target",
      "outputs": [
        {
          "internalType": "uint256",
          "name": "",
          "type": "uint256"
        }
      ],
      "payable": false,
      "stateMutability": "view",
      "type": "function"
    },
    {
      "constant": false,
      "inputs": [],
      "name": "sendEth",
      "outputs": [],
      "payable": true,
      "stateMutability": "payable",
      "type": "function"
    },
    {
      "constant": true,
      "inputs": [],
      "name": "getContractBalance",
      "outputs": [
        {
          "internalType": "uint256",
          "name": "",
          "type": "uint256"
        }
      ],
      "payable": false,
      "stateMutability": "view",
      "type": "function"
    },
    {
      "constant": false,
      "inputs": [
        {
          "internalType": "uint256",
          "name": "_requestNo",
          "type": "uint256"
        }
      ],
      "name": "voteRequest",
      "outputs": [],
      "payable": false,
      "stateMutability": "nonpayable",
      "type": "function"
    },
    {
      "constant": false,
      "inputs": [
        {
          "internalType": "string",
          "name": "_description",
          "type": "string"
        },
        {
          "internalType": "address payable",
          "name": "_recipient",
          "type": "address"
        },
        {
          "internalType": "uint256",
          "name": "_value",
          "type": "uint256"
        }
      ],
      "name": "createRequests",
      "outputs": [],
      "payable": false,
      "stateMutability": "nonpayable",
      "type": "function"
    }
  ],
  "bytecode": "0x608060405234801561001057600080fd5b506040516108a23803806108a28339818101604052604081101561003357600080fd5b50805160209091015160049190915542016003556064600255600180546001600160a01b031916331790556108358061006d6000396000f3fe6080604052600436106100c25760003560e01c80634e260f6f1161007f578063937e09b111610059578063937e09b1146103455780639fb42b1f1461035a578063c59ee1dc1461036f578063d4b8399214610384576100c2565b80634e260f6f146102475780636f9fb98a1461025c57806381d12c5814610271576100c2565b806306e99fef146100c75780631f6d4942146100d157806329dcb0cf146101165780633eb7647b1461012b578063481c6a75146101ec5780634cb6f4a51461021d575b600080fd5b6100cf610399565b005b3480156100dd57600080fd5b50610104600480360360208110156100f457600080fd5b50356001600160a01b031661047d565b60408051918252519081900360200190f35b34801561012257600080fd5b5061010461048f565b34801561013757600080fd5b506100cf6004803603606081101561014e57600080fd5b81019060208101813564010000000081111561016957600080fd5b82018360208201111561017b57600080fd5b8035906020019184600183028401116401000000008311171561019d57600080fd5b91908080601f016020809104026020016040519081016040528093929190818152602001838380828437600092019190915250929550506001600160a01b038335169350505060200135610495565b3480156101f857600080fd5b5061020161054d565b604080516001600160a01b039092168252519081900360200190f35b34801561022957600080fd5b506100cf6004803603602081101561024057600080fd5b503561055c565b34801561025357600080fd5b50610104610658565b34801561026857600080fd5b5061010461065e565b34801561027d57600080fd5b5061029b6004803603602081101561029457600080fd5b5035610663565b6040518080602001866001600160a01b03166001600160a01b0316815260200185815260200184151515158152602001838152602001828103825287818151815260200191508051906020019080838360005b838110156103065781810151838201526020016102ee565b50505050905090810190601f1680156103335780820380516001836020036101000a031916815260200191505b50965050505050505060405180910390f35b34801561035157600080fd5b5061010461072d565b34801561036657600080fd5b50610104610733565b34801561037b57600080fd5b50610104610739565b34801561039057600080fd5b5061010461073f565b60035442106103e5576040805162461bcd60e51b8152602060048201526013602482015272111958591b1a5b99481a185cc81c185cdcd959606a1b604482015290519081900360640190fd5b60025434101561043c576040805162461bcd60e51b815260206004820152601f60248201527f4d696e696d756d20436f6e747269627574696f6e206973206e6f74206d657400604482015290519081900360640190fd5b3360009081526020819052604090205461045a576006805460010190555b336000908152602081905260409020805434908101909155600580549091019055565b60006020819052908152604090205481565b60035481565b6001546001600160a01b031633146104de5760405162461bcd60e51b81526004018080602001828103825260238152602001806107de6023913960400191505060405180910390fd5b60088054600081815260076020908152604090912060019092019092558451909161050d918391870190610745565b506001810180546001600160a01b0319166001600160a01b039490941693909317909255600282015560038101805460ff19169055600060049091015550565b6001546001600160a01b031681565b336000908152602081905260409020546105bd576040805162461bcd60e51b815260206004820152601760248201527f596f75206d75737420626520636f6e7472696275746f72000000000000000000604482015290519081900360640190fd5b6000818152600760209081526040808320338452600581019092529091205460ff161561062a576040805162461bcd60e51b8152602060048201526016602482015275165bdd481a185d9948185b1c9958591e481d9bdd195960521b604482015290519081900360640190fd5b3360009081526005820160205260409020805460ff1916600190811790915560049091018054909101905550565b60065481565b475b90565b60076020908152600091825260409182902080548351601f600260001961010060018616150201909316929092049182018490048402810184019094528084529092918391908301828280156106fa5780601f106106cf576101008083540402835291602001916106fa565b820191906000526020600020905b8154815290600101906020018083116106dd57829003601f168201915b50505060018401546002850154600386015460049096015494956001600160a01b039092169490935060ff909116915085565b60025481565b60085481565b60055481565b60045481565b828054600181600116156101000203166002900490600052602060002090601f016020900481019282601f1061078657805160ff19168380011785556107b3565b828001600101855582156107b3579182015b828111156107b3578251825591602001919060010190610798565b506107bf9291506107c3565b5090565b61066091905b808211156107bf57600081556001016107c956fe4f6e6c79206d616e616765722063616e2063616c6c20746869732066756e6374696f6ea265627a7a72315820a6f0863ba80fc91defaaca2fe51a1c7ff6e3ba37128a2649f2a5c5ba1e5875b164736f6c63430005100032",
  "source": "//SPDX-License-Identifier: UNLICENSED\npragma solidity >=0.5.0 < 0.9.0;\n\ncontract funding{\n    mapping(address=>uint) public contributors; //contributors[msg.sender]=100\n    address public manager; \n    uint public minimumContribution;\n    uint public deadline;\n    uint public target;\n    uint public raisedAmount;\n    uint public noOfContributors;\n    \n    struct Request{\n        string description;\n        address payable recipient;\n        uint value;\n        bool completed;\n        uint noOfVoters;\n        mapping(address=>bool) voters;\n    }\n\n    mapping(uint=>Request) public requests;\n    uint public numRequests;\n\n    constructor (uint _target,uint _deadline) public{\n        target=_target;\n        deadline=block.timestamp+_deadline; //10sec + 3600sec (60*60)\n        minimumContribution=100 wei;\n        manager=msg.sender;\n    }\n    \n// Donor functions\n// 1. Donate Money\n    function sendEth() public payable{\n        require(block.timestamp < deadline,\"Deadline has passed\");\n        require(msg.value >=minimumContribution,\"Minimum Contribution is not met\");\n        \n        if(contributors[msg.sender]==0){\n            noOfContributors++;\n        }\n        contributors[msg.sender]+=msg.value;\n        raisedAmount+=msg.value;\n    }\n    function getContractBalance() public view returns(uint){\n        return address(this).balance;\n    }\n\n// 2. Request refund\n    // function refund() public payable{\n    //     // require(block.timestamp>deadline && raisedAmount<target,\"You are not eligible for refund\");\n    //     require(contributors[msg.sender]>0);\n    //     address payable user= payable(msg.sender);\n    //     user.transfer(contributors[msg.sender]);\n    //     raisedAmount -= contributors[msg.sender];\n    //     noOfContributors--;\n    //     contributors[msg.sender]=0;\n        \n    // }\n\n// 3. To get votes from existing contributors to allocate the new project\n    function voteRequest(uint _requestNo) public{\n        require(contributors[msg.sender]>0,\"You must be contributor\");\n        Request storage thisRequest=requests[_requestNo];\n        require(thisRequest.voters[msg.sender]==false,\"You have already voted\");\n        thisRequest.voters[msg.sender]=true;\n        thisRequest.noOfVoters++;\n    }\n\n// modifier to check if the function is accessed by the manager(as some functions cannot be accessed by anybody else)\n    modifier onlyManager(){\n        require(msg.sender == manager,\"Only manager can call this function\");\n        _;\n    }\n\n// Manager(Admin) Functions\n// 1. To create new Project allocations\n    function createRequests(string memory _description,address payable _recipient,uint _value)public onlyManager{\n        Request storage newRequest = requests[numRequests];\n        numRequests++;\n        newRequest.description=_description;\n        newRequest.recipient=_recipient;\n        newRequest.value=_value;\n        newRequest.completed=false;\n        newRequest.noOfVoters=0;\n    }\n\n\n}",
  "sourcePath": "/home/mypc/Documents/mypc/Personal/B.E./uBE/Mega Project/Implementation/v 1.0/contracts/funding.sol",
  "compiler": {
    "name": "solc",
    "version": "0.5.16+commit.9c3226ce.Emscripten.clang"
  },
  "schemaVersion": "3.4.10",
  "updatedAt": "2022-10-28T08:07:39.412Z",
  "networkType": "ethereum",
  "devdoc": {
    "methods": {}
  },
  "userdoc": {
    "methods": {}
  }
}