{
  "contractName": "funding",
  "abi": [
    {
      "inputs": [
        {
          "internalType": "uint256",
          "name": "_target",
          "type": "uint256"
        },
        {
          "internalType": "uint256",
          "name": "_deadline",
          "type": "uint256"
        }
      ],
      "stateMutability": "nonpayable",
      "type": "constructor"
    },
    {
      "inputs": [
        {
          "internalType": "address",
          "name": "",
          "type": "address"
        }
      ],
      "name": "contributors",
      "outputs": [
        {
          "internalType": "uint256",
          "name": "",
          "type": "uint256"
        }
      ],
      "stateMutability": "view",
      "type": "function",
      "constant": true
    },
    {
      "inputs": [],
      "name": "deadline",
      "outputs": [
        {
          "internalType": "uint256",
          "name": "",
          "type": "uint256"
        }
      ],
      "stateMutability": "view",
      "type": "function",
      "constant": true
    },
    {
      "inputs": [],
      "name": "manager",
      "outputs": [
        {
          "internalType": "address",
          "name": "",
          "type": "address"
        }
      ],
      "stateMutability": "view",
      "type": "function",
      "constant": true
    },
    {
      "inputs": [],
      "name": "minimumContribution",
      "outputs": [
        {
          "internalType": "uint256",
          "name": "",
          "type": "uint256"
        }
      ],
      "stateMutability": "view",
      "type": "function",
      "constant": true
    },
    {
      "inputs": [],
      "name": "noOfContributors",
      "outputs": [
        {
          "internalType": "uint256",
          "name": "",
          "type": "uint256"
        }
      ],
      "stateMutability": "view",
      "type": "function",
      "constant": true
    },
    {
      "inputs": [],
      "name": "numRequests",
      "outputs": [
        {
          "internalType": "uint256",
          "name": "",
          "type": "uint256"
        }
      ],
      "stateMutability": "view",
      "type": "function",
      "constant": true
    },
    {
      "inputs": [],
      "name": "raisedAmount",
      "outputs": [
        {
          "internalType": "uint256",
          "name": "",
          "type": "uint256"
        }
      ],
      "stateMutability": "view",
      "type": "function",
      "constant": true
    },
    {
      "inputs": [
        {
          "internalType": "uint256",
          "name": "",
          "type": "uint256"
        }
      ],
      "name": "requests",
      "outputs": [
        {
          "internalType": "string",
          "name": "description",
          "type": "string"
        },
        {
          "internalType": "address payable",
          "name": "recipient",
          "type": "address"
        },
        {
          "internalType": "uint256",
          "name": "value",
          "type": "uint256"
        },
        {
          "internalType": "bool",
          "name": "completed",
          "type": "bool"
        },
        {
          "internalType": "uint256",
          "name": "noOfVoters",
          "type": "uint256"
        }
      ],
      "stateMutability": "view",
      "type": "function",
      "constant": true
    },
    {
      "inputs": [],
      "name": "target",
      "outputs": [
        {
          "internalType": "uint256",
          "name": "",
          "type": "uint256"
        }
      ],
      "stateMutability": "view",
      "type": "function",
      "constant": true
    },
    {
      "inputs": [],
      "name": "sendEth",
      "outputs": [],
      "stateMutability": "payable",
      "type": "function",
      "payable": true
    },
    {
      "inputs": [],
      "name": "getContractBalance",
      "outputs": [
        {
          "internalType": "uint256",
          "name": "",
          "type": "uint256"
        }
      ],
      "stateMutability": "view",
      "type": "function",
      "constant": true
    },
    {
      "inputs": [],
      "name": "refund",
      "outputs": [],
      "stateMutability": "payable",
      "type": "function",
      "payable": true
    },
    {
      "inputs": [
        {
          "internalType": "uint256",
          "name": "_requestNo",
          "type": "uint256"
        }
      ],
      "name": "voteRequest",
      "outputs": [],
      "stateMutability": "nonpayable",
      "type": "function"
    },
    {
      "inputs": [
        {
          "internalType": "string",
          "name": "_description",
          "type": "string"
        },
        {
          "internalType": "address payable",
          "name": "_recipient",
          "type": "address"
        },
        {
          "internalType": "uint256",
          "name": "_value",
          "type": "uint256"
        }
      ],
      "name": "createRequests",
      "outputs": [],
      "stateMutability": "nonpayable",
      "type": "function"
    }
  ],
  "bytecode": "0x60806040523480156200001157600080fd5b5060405162001695380380620016958339818101604052810190620000379190620000e3565b8160048190555080426200004c919062000159565b600381905550606460028190555033600160006101000a81548173ffffffffffffffffffffffffffffffffffffffff021916908373ffffffffffffffffffffffffffffffffffffffff160217905550505062000194565b600080fd5b6000819050919050565b620000bd81620000a8565b8114620000c957600080fd5b50565b600081519050620000dd81620000b2565b92915050565b60008060408385031215620000fd57620000fc620000a3565b5b60006200010d85828601620000cc565b92505060206200012085828601620000cc565b9150509250929050565b7f4e487b7100000000000000000000000000000000000000000000000000000000600052601160045260246000fd5b60006200016682620000a8565b91506200017383620000a8565b92508282019050808211156200018e576200018d6200012a565b5b92915050565b6114f180620001a46000396000f3fe6080604052600436106100dd5760003560e01c8063590e1ae31161007f578063937e09b111610059578063937e09b1146102725780639fb42b1f1461029d578063c59ee1dc146102c8578063d4b83992146102f3576100dd565b8063590e1ae3146101fc5780636f9fb98a1461020657806381d12c5814610231576100dd565b80633eb7647b116100bb5780633eb7647b14610154578063481c6a751461017d5780634cb6f4a5146101a85780634e260f6f146101d1576100dd565b806306e99fef146100e25780631f6d4942146100ec57806329dcb0cf14610129575b600080fd5b6100ea61031e565b005b3480156100f857600080fd5b50610113600480360381019061010e9190610ab9565b610476565b6040516101209190610aff565b60405180910390f35b34801561013557600080fd5b5061013e61048e565b60405161014b9190610aff565b60405180910390f35b34801561016057600080fd5b5061017b60048036038101906101769190610cca565b610494565b005b34801561018957600080fd5b506101926105e0565b60405161019f9190610d48565b60405180910390f35b3480156101b457600080fd5b506101cf60048036038101906101ca9190610d63565b610606565b005b3480156101dd57600080fd5b506101e66107ab565b6040516101f39190610aff565b60405180910390f35b6102046107b1565b005b34801561021257600080fd5b5061021b61093c565b6040516102289190610aff565b60405180910390f35b34801561023d57600080fd5b5061025860048036038101906102539190610d63565b610944565b604051610269959493929190610e39565b60405180910390f35b34801561027e57600080fd5b50610287610a2f565b6040516102949190610aff565b60405180910390f35b3480156102a957600080fd5b506102b2610a35565b6040516102bf9190610aff565b60405180910390f35b3480156102d457600080fd5b506102dd610a3b565b6040516102ea9190610aff565b60405180910390f35b3480156102ff57600080fd5b50610308610a41565b6040516103159190610aff565b60405180910390f35b6003544210610362576040517f08c379a000000000000000000000000000000000000000000000000000000000815260040161035990610edf565b60405180910390fd5b6002543410156103a7576040517f08c379a000000000000000000000000000000000000000000000000000000000815260040161039e90610f4b565b60405180910390fd5b60008060003373ffffffffffffffffffffffffffffffffffffffff1673ffffffffffffffffffffffffffffffffffffffff1681526020019081526020016000205403610406576006600081548092919061040090610f9a565b91905055505b346000803373ffffffffffffffffffffffffffffffffffffffff1673ffffffffffffffffffffffffffffffffffffffff16815260200190815260200160002060008282546104549190610fe2565b92505081905550346005600082825461046d9190610fe2565b92505081905550565b60006020528060005260406000206000915090505481565b60035481565b600160009054906101000a900473ffffffffffffffffffffffffffffffffffffffff1673ffffffffffffffffffffffffffffffffffffffff163373ffffffffffffffffffffffffffffffffffffffff1614610524576040517f08c379a000000000000000000000000000000000000000000000000000000000815260040161051b90611088565b60405180910390fd5b600060076000600854815260200190815260200160002090506008600081548092919061055090610f9a565b91905055508381600001908161056691906112b4565b50828160010160006101000a81548173ffffffffffffffffffffffffffffffffffffffff021916908373ffffffffffffffffffffffffffffffffffffffff16021790555081816002018190555060008160030160006101000a81548160ff0219169083151502179055506000816004018190555050505050565b600160009054906101000a900473ffffffffffffffffffffffffffffffffffffffff1681565b60008060003373ffffffffffffffffffffffffffffffffffffffff1673ffffffffffffffffffffffffffffffffffffffff1681526020019081526020016000205411610687576040517f08c379a000000000000000000000000000000000000000000000000000000000815260040161067e906113d2565b60405180910390fd5b6000600760008381526020019081526020016000209050600015158160050160003373ffffffffffffffffffffffffffffffffffffffff1673ffffffffffffffffffffffffffffffffffffffff16815260200190815260200160002060009054906101000a900460ff16151514610733576040517f08c379a000000000000000000000000000000000000000000000000000000000815260040161072a9061143e565b60405180910390fd5b60018160050160003373ffffffffffffffffffffffffffffffffffffffff1673ffffffffffffffffffffffffffffffffffffffff16815260200190815260200160002060006101000a81548160ff0219169083151502179055508060040160008154809291906107a290610f9a565b91905055505050565b60065481565b60008060003373ffffffffffffffffffffffffffffffffffffffff1673ffffffffffffffffffffffffffffffffffffffff16815260200190815260200160002054116107fc57600080fd5b60003390508073ffffffffffffffffffffffffffffffffffffffff166108fc6000803373ffffffffffffffffffffffffffffffffffffffff1673ffffffffffffffffffffffffffffffffffffffff168152602001908152602001600020549081150290604051600060405180830381858888f19350505050158015610885573d6000803e3d6000fd5b506000803373ffffffffffffffffffffffffffffffffffffffff1673ffffffffffffffffffffffffffffffffffffffff16815260200190815260200160002054600560008282546108d6919061145e565b92505081905550600660008154809291906108f090611492565b919050555060008060003373ffffffffffffffffffffffffffffffffffffffff1673ffffffffffffffffffffffffffffffffffffffff1681526020019081526020016000208190555050565b600047905090565b6007602052806000526040600020600091509050806000018054610967906110d7565b80601f0160208091040260200160405190810160405280929190818152602001828054610993906110d7565b80156109e05780601f106109b5576101008083540402835291602001916109e0565b820191906000526020600020905b8154815290600101906020018083116109c357829003601f168201915b5050505050908060010160009054906101000a900473ffffffffffffffffffffffffffffffffffffffff16908060020154908060030160009054906101000a900460ff16908060040154905085565b60025481565b60085481565b60055481565b60045481565b6000604051905090565b600080fd5b600080fd5b600073ffffffffffffffffffffffffffffffffffffffff82169050919050565b6000610a8682610a5b565b9050919050565b610a9681610a7b565b8114610aa157600080fd5b50565b600081359050610ab381610a8d565b92915050565b600060208284031215610acf57610ace610a51565b5b6000610add84828501610aa4565b91505092915050565b6000819050919050565b610af981610ae6565b82525050565b6000602082019050610b146000830184610af0565b92915050565b600080fd5b600080fd5b6000601f19601f8301169050919050565b7f4e487b7100000000000000000000000000000000000000000000000000000000600052604160045260246000fd5b610b6d82610b24565b810181811067ffffffffffffffff82111715610b8c57610b8b610b35565b5b80604052505050565b6000610b9f610a47565b9050610bab8282610b64565b919050565b600067ffffffffffffffff821115610bcb57610bca610b35565b5b610bd482610b24565b9050602081019050919050565b82818337600083830152505050565b6000610c03610bfe84610bb0565b610b95565b905082815260208101848484011115610c1f57610c1e610b1f565b5b610c2a848285610be1565b509392505050565b600082601f830112610c4757610c46610b1a565b5b8135610c57848260208601610bf0565b91505092915050565b6000610c6b82610a5b565b9050919050565b610c7b81610c60565b8114610c8657600080fd5b50565b600081359050610c9881610c72565b92915050565b610ca781610ae6565b8114610cb257600080fd5b50565b600081359050610cc481610c9e565b92915050565b600080600060608486031215610ce357610ce2610a51565b5b600084013567ffffffffffffffff811115610d0157610d00610a56565b5b610d0d86828701610c32565b9350506020610d1e86828701610c89565b9250506040610d2f86828701610cb5565b9150509250925092565b610d4281610a7b565b82525050565b6000602082019050610d5d6000830184610d39565b92915050565b600060208284031215610d7957610d78610a51565b5b6000610d8784828501610cb5565b91505092915050565b600081519050919050565b600082825260208201905092915050565b60005b83811015610dca578082015181840152602081019050610daf565b60008484015250505050565b6000610de182610d90565b610deb8185610d9b565b9350610dfb818560208601610dac565b610e0481610b24565b840191505092915050565b610e1881610c60565b82525050565b60008115159050919050565b610e3381610e1e565b82525050565b600060a0820190508181036000830152610e538188610dd6565b9050610e626020830187610e0f565b610e6f6040830186610af0565b610e7c6060830185610e2a565b610e896080830184610af0565b9695505050505050565b7f446561646c696e65206861732070617373656400000000000000000000000000600082015250565b6000610ec9601383610d9b565b9150610ed482610e93565b602082019050919050565b60006020820190508181036000830152610ef881610ebc565b9050919050565b7f4d696e696d756d20436f6e747269627574696f6e206973206e6f74206d657400600082015250565b6000610f35601f83610d9b565b9150610f4082610eff565b602082019050919050565b60006020820190508181036000830152610f6481610f28565b9050919050565b7f4e487b7100000000000000000000000000000000000000000000000000000000600052601160045260246000fd5b6000610fa582610ae6565b91507fffffffffffffffffffffffffffffffffffffffffffffffffffffffffffffffff8203610fd757610fd6610f6b565b5b600182019050919050565b6000610fed82610ae6565b9150610ff883610ae6565b92508282019050808211156110105761100f610f6b565b5b92915050565b7f4f6e6c79206d616e616765722063616e2063616c6c20746869732066756e637460008201527f696f6e0000000000000000000000000000000000000000000000000000000000602082015250565b6000611072602383610d9b565b915061107d82611016565b604082019050919050565b600060208201905081810360008301526110a181611065565b9050919050565b7f4e487b7100000000000000000000000000000000000000000000000000000000600052602260045260246000fd5b600060028204905060018216806110ef57607f821691505b602082108103611102576111016110a8565b5b50919050565b60008190508160005260206000209050919050565b60006020601f8301049050919050565b600082821b905092915050565b60006008830261116a7fffffffffffffffffffffffffffffffffffffffffffffffffffffffffffffffff8261112d565b611174868361112d565b95508019841693508086168417925050509392505050565b6000819050919050565b60006111b16111ac6111a784610ae6565b61118c565b610ae6565b9050919050565b6000819050919050565b6111cb83611196565b6111df6111d7826111b8565b84845461113a565b825550505050565b600090565b6111f46111e7565b6111ff8184846111c2565b505050565b5b81811015611223576112186000826111ec565b600181019050611205565b5050565b601f8211156112685761123981611108565b6112428461111d565b81016020851015611251578190505b61126561125d8561111d565b830182611204565b50505b505050565b600082821c905092915050565b600061128b6000198460080261126d565b1980831691505092915050565b60006112a4838361127a565b9150826002028217905092915050565b6112bd82610d90565b67ffffffffffffffff8111156112d6576112d5610b35565b5b6112e082546110d7565b6112eb828285611227565b600060209050601f83116001811461131e576000841561130c578287015190505b6113168582611298565b86555061137e565b601f19841661132c86611108565b60005b828110156113545784890151825560018201915060208501945060208101905061132f565b86831015611371578489015161136d601f89168261127a565b8355505b6001600288020188555050505b505050505050565b7f596f75206d75737420626520636f6e7472696275746f72000000000000000000600082015250565b60006113bc601783610d9b565b91506113c782611386565b602082019050919050565b600060208201905081810360008301526113eb816113af565b9050919050565b7f596f75206861766520616c726561647920766f74656400000000000000000000600082015250565b6000611428601683610d9b565b9150611433826113f2565b602082019050919050565b600060208201905081810360008301526114578161141b565b9050919050565b600061146982610ae6565b915061147483610ae6565b925082820390508181111561148c5761148b610f6b565b5b92915050565b600061149d82610ae6565b9150600082036114b0576114af610f6b565b5b60018203905091905056fea2646970667358221220a966b3af19431a60e8f9c349790b4c3b39bc45162a0b6db5b6a3eec9e3ccb58064736f6c63430008110033",
  "immutableReferences": {},
  "source": "//SPDX-License-Identifier: UNLICENSED\npragma solidity >=0.6.0 < 0.9.0;\n\ncontract funding{\n    mapping(address=>uint) public contributors; //contributors[msg.sender]=100\n    address public manager; \n    uint public minimumContribution;\n    uint public deadline;\n    uint public target;\n    uint public raisedAmount;\n    uint public noOfContributors;\n    \n    struct Request{\n        string description;\n        address payable recipient;\n        uint value;\n        bool completed;\n        uint noOfVoters;\n        mapping(address=>bool) voters;\n    }\n\n    mapping(uint=>Request) public requests;\n    uint public numRequests;\n\n    constructor (uint _target,uint _deadline){\n        target=_target;\n        deadline=block.timestamp+_deadline; //10sec + 3600sec (60*60)\n        minimumContribution=100 wei;\n        manager=msg.sender;\n    }\n    \n// Donor functions\n// 1. Donate Money\n    function sendEth() public payable{\n        require(block.timestamp < deadline,\"Deadline has passed\");\n        require(msg.value >=minimumContribution,\"Minimum Contribution is not met\");\n        \n        if(contributors[msg.sender]==0){\n            noOfContributors++;\n        }\n        contributors[msg.sender]+=msg.value;\n        raisedAmount+=msg.value;\n    }\n    function getContractBalance() public view returns(uint){\n        return address(this).balance;\n    }\n\n// 2. Request refund\n    function refund() public payable{\n        // require(block.timestamp>deadline && raisedAmount<target,\"You are not eligible for refund\");\n        require(contributors[msg.sender]>0);\n        address payable user= payable(msg.sender);\n        user.transfer(contributors[msg.sender]);\n        raisedAmount -= contributors[msg.sender];\n        noOfContributors--;\n        contributors[msg.sender]=0;\n        \n    }\n\n// 3. To get votes from existing contributors to allocate the new project\n    function voteRequest(uint _requestNo) public{\n        require(contributors[msg.sender]>0,\"You must be contributor\");\n        Request storage thisRequest=requests[_requestNo];\n        require(thisRequest.voters[msg.sender]==false,\"You have already voted\");\n        thisRequest.voters[msg.sender]=true;\n        thisRequest.noOfVoters++;\n    }\n\n// modifier to check if the function is accessed by the manager(as some functions cannot be accessed by anybody else)\n    modifier onlyManager(){\n        require(msg.sender == manager,\"Only manager can call this function\");\n        _;\n    }\n\n// Manager(Admin) Functions\n// 1. To create new Project allocations\n    function createRequests(string memory _description,address payable _recipient,uint _value)public onlyManager{\n        Request storage newRequest = requests[numRequests];\n        numRequests++;\n        newRequest.description=_description;\n        newRequest.recipient=_recipient;\n        newRequest.value=_value;\n        newRequest.completed=false;\n        newRequest.noOfVoters=0;\n    }\n\n\n}",
  "sourcePath": "/home/mypc/Documents/mypc/Personal/B.E./uBE/Mega Project/Implementation/v 1.0/contracts/funding.sol",
  "compiler": {
    "name": "solc",
    "version": "0.8.17+commit.8df45f5f.Emscripten.clang"
  },
  "schemaVersion": "3.4.10",
  "updatedAt": "2023-03-15T07:32:36.949Z",
  "networkType": "ethereum",
  "devdoc": {
    "kind": "dev",
    "methods": {},
    "version": 1
  },
  "userdoc": {
    "kind": "user",
    "methods": {},
    "version": 1
  }
}