{
  "contractName": "funding",
  "abi": [
    {
      "inputs": [
        {
          "internalType": "address",
          "name": "_admin",
          "type": "address"
        }
      ],
      "stateMutability": "nonpayable",
      "type": "constructor"
    },
    {
      "inputs": [],
      "name": "admin",
      "outputs": [
        {
          "internalType": "address",
          "name": "",
          "type": "address"
        }
      ],
      "stateMutability": "view",
      "type": "function",
      "constant": true
    },
    {
      "inputs": [
        {
          "internalType": "address",
          "name": "",
          "type": "address"
        }
      ],
      "name": "contributors",
      "outputs": [
        {
          "internalType": "uint256",
          "name": "",
          "type": "uint256"
        }
      ],
      "stateMutability": "view",
      "type": "function",
      "constant": true
    },
    {
      "inputs": [],
      "name": "fundingGoal",
      "outputs": [
        {
          "internalType": "uint256",
          "name": "",
          "type": "uint256"
        }
      ],
      "stateMutability": "view",
      "type": "function",
      "constant": true
    },
    {
      "inputs": [],
      "name": "goalReached",
      "outputs": [
        {
          "internalType": "bool",
          "name": "",
          "type": "bool"
        }
      ],
      "stateMutability": "view",
      "type": "function",
      "constant": true
    },
    {
      "inputs": [],
      "name": "projectOwner",
      "outputs": [
        {
          "internalType": "address payable",
          "name": "",
          "type": "address"
        }
      ],
      "stateMutability": "view",
      "type": "function",
      "constant": true
    },
    {
      "inputs": [],
      "name": "totalAmountRaised",
      "outputs": [
        {
          "internalType": "uint256",
          "name": "",
          "type": "uint256"
        }
      ],
      "stateMutability": "view",
      "type": "function",
      "constant": true
    },
    {
      "inputs": [
        {
          "internalType": "uint256",
          "name": "_projectId",
          "type": "uint256"
        }
      ],
      "name": "contribute",
      "outputs": [],
      "stateMutability": "payable",
      "type": "function",
      "payable": true
    },
    {
      "inputs": [],
      "name": "withdraw",
      "outputs": [],
      "stateMutability": "nonpayable",
      "type": "function"
    },
    {
      "inputs": [],
      "name": "checkGoalReached",
      "outputs": [],
      "stateMutability": "nonpayable",
      "type": "function"
    },
    {
      "inputs": [],
      "name": "refund",
      "outputs": [],
      "stateMutability": "nonpayable",
      "type": "function"
    }
  ],
  "bytecode": "0x60806040523480156200001157600080fd5b50604051620013933803806200139383398181016040528101906200003791906200013d565b73dcc75d043d19b083cca4ca9d35fa45c2ae4d90516000806101000a81548173ffffffffffffffffffffffffffffffffffffffff021916908373ffffffffffffffffffffffffffffffffffffffff16021790555080600560016101000a81548173ffffffffffffffffffffffffffffffffffffffff021916908373ffffffffffffffffffffffffffffffffffffffff160217905550506200016f565b600080fd5b600073ffffffffffffffffffffffffffffffffffffffff82169050919050565b60006200010582620000d8565b9050919050565b6200011781620000f8565b81146200012357600080fd5b50565b60008151905062000137816200010c565b92915050565b600060208284031215620001565762000155620000d3565b5b6000620001668482850162000126565b91505092915050565b611214806200017f6000396000f3fe6080604052600436106100915760003560e01c80637a3a0e84116100595780637a3a0e84146101435780637d3d65221461016e578063a4475ce414610199578063c1cbbca7146101c4578063f851a440146101e057610091565b806301cb3b20146100965780631f6d4942146100ad578063242d7dba146100ea5780633ccfd60b14610115578063590e1ae31461012c575b600080fd5b3480156100a257600080fd5b506100ab61020b565b005b3480156100b957600080fd5b506100d460048036038101906100cf91906108ef565b610234565b6040516100e19190610935565b60405180910390f35b3480156100f657600080fd5b506100ff61024c565b60405161010c9190610935565b60405180910390f35b34801561012157600080fd5b5061012a610252565b005b34801561013857600080fd5b5061014161037a565b005b34801561014f57600080fd5b506101586104e8565b6040516101659190610935565b60405180910390f35b34801561017a57600080fd5b506101836104ee565b604051610190919061096b565b60405180910390f35b3480156101a557600080fd5b506101ae610501565b6040516101bb91906109a7565b60405180910390f35b6101de60048036038101906101d991906109ee565b610527565b005b3480156101ec57600080fd5b506101f5610857565b6040516102029190610a2a565b60405180910390f35b60025460035410610232576001600560006101000a81548160ff0219169083151502179055505b565b60046020528060005260406000206000915090505481565b60035481565b600560009054906101000a900460ff166102a1576040517f08c379a000000000000000000000000000000000000000000000000000000000815260040161029890610aa2565b60405180910390fd5b600160009054906101000a900473ffffffffffffffffffffffffffffffffffffffff1673ffffffffffffffffffffffffffffffffffffffff163373ffffffffffffffffffffffffffffffffffffffff1614610331576040517f08c379a000000000000000000000000000000000000000000000000000000000815260040161032890610b34565b60405180910390fd5b3373ffffffffffffffffffffffffffffffffffffffff166108fc479081150290604051600060405180830381858888f19350505050158015610377573d6000803e3d6000fd5b50565b6000600460003373ffffffffffffffffffffffffffffffffffffffff1673ffffffffffffffffffffffffffffffffffffffff16815260200190815260200160002054116103fc576040517f08c379a00000000000000000000000000000000000000000000000000000000081526004016103f390610bc6565b60405180910390fd5b6000600460003373ffffffffffffffffffffffffffffffffffffffff1673ffffffffffffffffffffffffffffffffffffffff1681526020019081526020016000205490506000600460003373ffffffffffffffffffffffffffffffffffffffff1673ffffffffffffffffffffffffffffffffffffffff1681526020019081526020016000208190555080600360008282546104979190610c15565b925050819055503373ffffffffffffffffffffffffffffffffffffffff166108fc829081150290604051600060405180830381858888f193505050501580156104e4573d6000803e3d6000fd5b5050565b60025481565b600560009054906101000a900460ff1681565b600160009054906101000a900473ffffffffffffffffffffffffffffffffffffffff1681565b6000341161056a576040517f08c379a000000000000000000000000000000000000000000000000000000000815260040161056190610cbb565b60405180910390fd5b60008054906101000a900473ffffffffffffffffffffffffffffffffffffffff1673ffffffffffffffffffffffffffffffffffffffff1663f0f3f2c8826040518263ffffffff1660e01b81526004016105c39190610935565b600060405180830381865afa1580156105e0573d6000803e3d6000fd5b505050506040513d6000823e3d601f19601f8201168201806040525081019061060991906110b3565b60800151341061064e576040517f08c379a000000000000000000000000000000000000000000000000000000000815260040161064590611148565b60405180910390fd5b3460008054906101000a900473ffffffffffffffffffffffffffffffffffffffff1673ffffffffffffffffffffffffffffffffffffffff1663f0f3f2c8836040518263ffffffff1660e01b81526004016106a89190610935565b600060405180830381865afa1580156106c5573d6000803e3d6000fd5b505050506040513d6000823e3d601f19601f820116820180604052508101906106ee91906110b3565b60a0018181516106fe9190611168565b9150818152505034600460003373ffffffffffffffffffffffffffffffffffffffff1673ffffffffffffffffffffffffffffffffffffffff16815260200190815260200160002060008282546107549190611168565b92505081905550346003600082825461076d9190611168565b9250508190555060008054906101000a900473ffffffffffffffffffffffffffffffffffffffff1673ffffffffffffffffffffffffffffffffffffffff166392256aec826040518263ffffffff1660e01b81526004016107cd9190610935565b602060405180830381865afa1580156107ea573d6000803e3d6000fd5b505050506040513d601f19601f8201168201806040525081019061080e91906111b1565b73ffffffffffffffffffffffffffffffffffffffff166108fc349081150290604051600060405180830381858888f19350505050158015610853573d6000803e3d6000fd5b5050565b600560019054906101000a900473ffffffffffffffffffffffffffffffffffffffff1681565b6000604051905090565b600080fd5b600080fd5b600073ffffffffffffffffffffffffffffffffffffffff82169050919050565b60006108bc82610891565b9050919050565b6108cc816108b1565b81146108d757600080fd5b50565b6000813590506108e9816108c3565b92915050565b60006020828403121561090557610904610887565b5b6000610913848285016108da565b91505092915050565b6000819050919050565b61092f8161091c565b82525050565b600060208201905061094a6000830184610926565b92915050565b60008115159050919050565b61096581610950565b82525050565b6000602082019050610980600083018461095c565b92915050565b600061099182610891565b9050919050565b6109a181610986565b82525050565b60006020820190506109bc6000830184610998565b92915050565b6109cb8161091c565b81146109d657600080fd5b50565b6000813590506109e8816109c2565b92915050565b600060208284031215610a0457610a03610887565b5b6000610a12848285016109d9565b91505092915050565b610a24816108b1565b82525050565b6000602082019050610a3f6000830184610a1b565b92915050565b600082825260208201905092915050565b7f46756e64696e6720676f616c206e6f7420726561636865640000000000000000600082015250565b6000610a8c601883610a45565b9150610a9782610a56565b602082019050919050565b60006020820190508181036000830152610abb81610a7f565b9050919050565b7f4f6e6c792070726f6a656374206f776e65722063616e2077697468647261772060008201527f66756e6473000000000000000000000000000000000000000000000000000000602082015250565b6000610b1e602583610a45565b9150610b2982610ac2565b604082019050919050565b60006020820190508181036000830152610b4d81610b11565b9050919050565b7f4e6f20636f6e747269627574696f6e20666f756e6420666f722074686973206160008201527f6464726573730000000000000000000000000000000000000000000000000000602082015250565b6000610bb0602683610a45565b9150610bbb82610b54565b604082019050919050565b60006020820190508181036000830152610bdf81610ba3565b9050919050565b7f4e487b7100000000000000000000000000000000000000000000000000000000600052601160045260246000fd5b6000610c208261091c565b9150610c2b8361091c565b9250828203905081811115610c4357610c42610be6565b5b92915050565b7f436f6e747269627574696f6e20616d6f756e74206d757374206265206772656160008201527f746572207468616e203000000000000000000000000000000000000000000000602082015250565b6000610ca5602a83610a45565b9150610cb082610c49565b604082019050919050565b60006020820190508181036000830152610cd481610c98565b9050919050565b600080fd5b6000601f19601f8301169050919050565b7f4e487b7100000000000000000000000000000000000000000000000000000000600052604160045260246000fd5b610d2982610ce0565b810181811067ffffffffffffffff82111715610d4857610d47610cf1565b5b80604052505050565b6000610d5b61087d565b9050610d678282610d20565b919050565b600080fd5b600080fd5b600080fd5b600067ffffffffffffffff821115610d9657610d95610cf1565b5b610d9f82610ce0565b9050602081019050919050565b60005b83811015610dca578082015181840152602081019050610daf565b60008484015250505050565b6000610de9610de484610d7b565b610d51565b905082815260208101848484011115610e0557610e04610d76565b5b610e10848285610dac565b509392505050565b600082601f830112610e2d57610e2c610d71565b5b8151610e3d848260208601610dd6565b91505092915050565b600081519050610e55816109c2565b92915050565b600067ffffffffffffffff821115610e7657610e75610cf1565b5b602082029050602081019050919050565b600080fd5b6000610e9f610e9a84610e5b565b610d51565b90508083825260208201905060208402830185811115610ec257610ec1610e87565b5b835b81811015610f0957805167ffffffffffffffff811115610ee757610ee6610d71565b5b808601610ef48982610e18565b85526020850194505050602081019050610ec4565b5050509392505050565b600082601f830112610f2857610f27610d71565b5b8151610f38848260208601610e8c565b91505092915050565b60006101008284031215610f5857610f57610cdb565b5b610f63610100610d51565b9050600082015167ffffffffffffffff811115610f8357610f82610d6c565b5b610f8f84828501610e18565b600083015250602082015167ffffffffffffffff811115610fb357610fb2610d6c565b5b610fbf84828501610e18565b602083015250604082015167ffffffffffffffff811115610fe357610fe2610d6c565b5b610fef84828501610e18565b604083015250606082015167ffffffffffffffff81111561101357611012610d6c565b5b61101f84828501610e18565b606083015250608061103384828501610e46565b60808301525060a061104784828501610e46565b60a08301525060c082015167ffffffffffffffff81111561106b5761106a610d6c565b5b61107784828501610f13565b60c08301525060e082015167ffffffffffffffff81111561109b5761109a610d6c565b5b6110a784828501610e18565b60e08301525092915050565b6000602082840312156110c9576110c8610887565b5b600082015167ffffffffffffffff8111156110e7576110e661088c565b5b6110f384828501610f41565b91505092915050565b7f46756e64696e6720676f616c20616c7265616479207265616368656400000000600082015250565b6000611132601c83610a45565b915061113d826110fc565b602082019050919050565b6000602082019050818103600083015261116181611125565b9050919050565b60006111738261091c565b915061117e8361091c565b925082820190508082111561119657611195610be6565b5b92915050565b6000815190506111ab816108c3565b92915050565b6000602082840312156111c7576111c6610887565b5b60006111d58482850161119c565b9150509291505056fea2646970667358221220353d27007cd0dd80feb4a3a2f4ca3da270cd4cf9c1626038ee132edfd0a6480864736f6c63430008130033",
  "immutableReferences": {},
  "source": "//SPDX-License-Identifier: UNLICENSED\npragma solidity >=0.6.0 < 0.9.0;\n\n//---------------------------------CONTRACT #1-------------------------------------//\n// contract funding{\n//     mapping(address=>uint) public contributors; //contributors[msg.sender]=100\n//     address public manager; \n//     uint public minimumContribution;\n//     uint public deadline;\n//     uint public target;\n//     uint public raisedAmount;\n//     uint public noOfContributors;\n    \n//     struct Request{\n//         string description;\n//         address payable recipient;\n//         uint value;\n//         bool completed;\n//         uint noOfVoters;\n//         mapping(address=>bool) voters;\n//     }\n\n//     mapping(uint=>Request) public requests;\n//     uint public numRequests;\n\n//     constructor (uint _target,uint _deadline){\n//         target=_target;\n//         deadline=block.timestamp+_deadline; //10sec + 3600sec (60*60)\n//         minimumContribution=100 wei;\n//         manager=msg.sender;\n//     }\n    \n// // Donor functions\n// // 1. Donate Money\n//     function sendEth() public payable{\n//         require(block.timestamp < deadline,\"Deadline has passed\");\n//         require(msg.value >=minimumContribution,\"Minimum Contribution is not met\");\n        \n//         if(contributors[msg.sender]==0){\n//             noOfContributors++;\n//         }\n//         contributors[msg.sender]+=msg.value;\n//         raisedAmount+=msg.value;\n//     }\n//     function getContractBalance() public view returns(uint){\n//         return address(this).balance;\n//     }\n\n// // 2. Request refund\n//     function refund() public payable{\n//         // require(block.timestamp>deadline && raisedAmount<target,\"You are not eligible for refund\");\n//         require(contributors[msg.sender]>0);\n//         address payable user= payable(msg.sender);\n//         user.transfer(contributors[msg.sender]);\n//         raisedAmount -= contributors[msg.sender];\n//         noOfContributors--;\n//         contributors[msg.sender]=0;\n        \n//     }\n\n// // 3. To get votes from existing contributors to allocate the new project\n//     function voteRequest(uint _requestNo) public{\n//         require(contributors[msg.sender]>0,\"You must be contributor\");\n//         Request storage thisRequest=requests[_requestNo];\n//         require(thisRequest.voters[msg.sender]==false,\"You have already voted\");\n//         thisRequest.voters[msg.sender]=true;\n//         thisRequest.noOfVoters++;\n//     }\n\n// // modifier to check if the function is accessed by the manager(as some functions cannot be accessed by anybody else)\n//     modifier onlyManager(){\n//         require(msg.sender == manager,\"Only manager can call this function\");\n//         _;\n//     }\n\n// // Manager(Admin) Functions\n// // 1. To create new Project allocations\n//     function createRequests(string memory _description,address payable _recipient,uint _value)public onlyManager{\n//         Request storage newRequest = requests[numRequests];\n//         numRequests++;\n//         newRequest.description=_description;\n//         newRequest.recipient=_recipient;\n//         newRequest.value=_value;\n//         newRequest.completed=false;\n//         newRequest.noOfVoters=0;\n//     }\n\n\n// }\n\n\n//---------------------------------CONTRACT #2-------------------------------------//\n// contract funding {\n    \n//     // Project struct to store project details\n//     struct Project {\n//         address owner;\n//         string title;\n//         string description;\n//         uint goal;\n//         uint raised;\n//         bool completed;\n//         mapping(address => uint) contributions;\n//     }\n    \n//     // Array of projects\n//     Project[] public projects;\n    \n//     // Event emitted when a new project is created\n//     // event ProjectCreated(uint projectId, address owner, string title, string description, uint goal);\n    \n//     // Event emitted when a project is funded\n//     event ProjectFunded(uint projectId, address funder, uint amount);\n    \n    \n//     // Function to fund a project\n//     function fundProject(uint _projectId) public payable {\n//         Project storage project = projects[_projectId];\n//         require(msg.value > 0, \"Amount should be greater than 0\");\n//         require(!project.completed, \"Project is already completed\");\n//         require(project.raised < project.goal, \"Project goal is already reached\");\n//         project.contributions[msg.sender] += msg.value;\n//         project.raised += msg.value;\n//         emit ProjectFunded(_projectId, msg.sender, msg.value);\n//     }\n    \n//     // Function to check the contribution of a funder for a project\n//     function checkContribution(uint _projectId) public view returns(uint) {\n//         return projects[_projectId].contributions[msg.sender];\n//     }\n    \n//     // Function to check the status of a project\n//     function checkProjectStatus(uint _projectId) public view returns(bool) {\n//         return projects[_projectId].completed;\n//     }\n    \n//     // Function to complete a project and transfer funds to owner\n//     function completeProject(uint _projectId) public {\n//         Project storage project = projects[_projectId];\n//         require(!project.completed, \"Project is already completed\");\n//         require(project.raised >= project.goal, \"Project goal is not reached\");\n//         project.completed = true;\n//         payable(project.owner).transfer(project.raised);\n//     }\n// }\n\n\n\n//---------------------------------CONTRACT #3-------------------------------------//\nimport \"./ProjectDetails.sol\";\n\ncontract funding {\n\n    // Project Contract\n    ProjectDetails projectDetails;\n\n    address payable public projectOwner;\n    uint public fundingGoal;\n    uint public totalAmountRaised;\n    mapping(address => uint) public contributors;\n    bool public goalReached;\n\n    address public admin;\n\n    // constructor(address payable _projectOwner, uint _fundingGoal, address _admin) {\n    //     projectOwner = _projectOwner;\n    //     fundingGoal = _fundingGoal;\n    //     admin = _admin;\n    // }\n\n    constructor(address _admin) {\n        projectDetails = ProjectDetails(0xDCC75D043d19b083Cca4CA9d35FA45C2ae4D9051);\n        admin = _admin;\n    }\n\n\n    function contribute(uint256 _projectId) public payable {\n        require(msg.value > 0, \"Contribution amount must be greater than 0\");\n        require(msg.value < projectDetails.getProject(_projectId).amountToRaise, \"Funding goal already reached\");\n        projectDetails.getProject(_projectId).amountRaised += msg.value;\n        contributors[msg.sender] += msg.value;\n        totalAmountRaised += msg.value;\n        payable(projectDetails.getProjectOwner(_projectId)).transfer(msg.value);\n    }\n\n    function withdraw() public {\n        require(goalReached, \"Funding goal not reached\");\n        require(msg.sender == projectOwner, \"Only project owner can withdraw funds\");\n        payable(msg.sender).transfer(address(this).balance);\n    }\n\n    function checkGoalReached() public {\n        if (totalAmountRaised >= fundingGoal) {\n            goalReached = true;\n        }\n    }\n\n    function refund() public {\n        require(contributors[msg.sender] > 0, \"No contribution found for this address\");\n        uint amount = contributors[msg.sender];\n        contributors[msg.sender] = 0;\n        totalAmountRaised -= amount;\n        payable(msg.sender).transfer(amount);\n    }\n}\n\n",
  "sourcePath": "/home/mypc/Documents/mypc/Personal/B.E./uBE/Mega Project/Implementation/v 1.0/contracts/funding.sol",
  "compiler": {
    "name": "solc",
    "version": "0.8.19+commit.7dd6d404.Emscripten.clang"
  },
  "schemaVersion": "3.4.10",
  "updatedAt": "2023-05-03T09:49:40.253Z",
  "networkType": "ethereum",
  "devdoc": {
    "kind": "dev",
    "methods": {},
    "version": 1
  },
  "userdoc": {
    "kind": "user",
    "methods": {},
    "version": 1
  }
}