{
  "contractName": "ProjectDetails",
  "abi": [
    {
      "inputs": [
        {
          "internalType": "string",
          "name": "_title",
          "type": "string"
        },
        {
          "internalType": "string",
          "name": "_description",
          "type": "string"
        },
        {
          "internalType": "string",
          "name": "_startDate",
          "type": "string"
        },
        {
          "internalType": "string",
          "name": "_endDate",
          "type": "string"
        },
        {
          "internalType": "uint256",
          "name": "_amountToBeRaised",
          "type": "uint256"
        }
      ],
      "name": "createProject",
      "outputs": [],
      "stateMutability": "nonpayable",
      "type": "function"
    },
    {
      "inputs": [],
      "name": "getProjectDetails",
      "outputs": [
        {
          "internalType": "string",
          "name": "",
          "type": "string"
        },
        {
          "internalType": "string",
          "name": "",
          "type": "string"
        },
        {
          "internalType": "string",
          "name": "",
          "type": "string"
        },
        {
          "internalType": "string",
          "name": "",
          "type": "string"
        },
        {
          "internalType": "uint256",
          "name": "",
          "type": "uint256"
        }
      ],
      "stateMutability": "view",
      "type": "function",
      "constant": true
    }
  ],
  "bytecode": "0x608060405234801561001057600080fd5b50610e68806100206000396000f3fe608060405234801561001057600080fd5b50600436106100365760003560e01c8063a78c389a1461003b578063ff3a9c7e14610057575b600080fd5b61005560048036038101906100509190610704565b610079565b005b61005f6102a3565b60405161007095949392919061087d565b60405180910390f35b60008551116100bd576040517f08c379a00000000000000000000000000000000000000000000000000000000081526004016100b490610938565b60405180910390fd5b6000845111610101576040517f08c379a00000000000000000000000000000000000000000000000000000000081526004016100f8906109a4565b60405180910390fd5b6000835111610145576040517f08c379a000000000000000000000000000000000000000000000000000000000815260040161013c90610a10565b60405180910390fd5b6000825111610189576040517f08c379a000000000000000000000000000000000000000000000000000000000815260040161018090610aa2565b60405180910390fd5b600081116101cc576040517f08c379a00000000000000000000000000000000000000000000000000000000081526004016101c390610b34565b60405180910390fd5b60006040518060a00160405280878152602001868152602001858152602001848152602001838152509050806000803373ffffffffffffffffffffffffffffffffffffffff1673ffffffffffffffffffffffffffffffffffffffff168152602001908152602001600020600082015181600001908161024b9190610d60565b5060208201518160010190816102619190610d60565b5060408201518160020190816102779190610d60565b50606082015181600301908161028d9190610d60565b5060808201518160040155905050505050505050565b6060806060806000806000803373ffffffffffffffffffffffffffffffffffffffff1673ffffffffffffffffffffffffffffffffffffffff1681526020019081526020016000206040518060a001604052908160008201805461030590610b83565b80601f016020809104026020016040519081016040528092919081815260200182805461033190610b83565b801561037e5780601f106103535761010080835404028352916020019161037e565b820191906000526020600020905b81548152906001019060200180831161036157829003601f168201915b5050505050815260200160018201805461039790610b83565b80601f01602080910402602001604051908101604052809291908181526020018280546103c390610b83565b80156104105780601f106103e557610100808354040283529160200191610410565b820191906000526020600020905b8154815290600101906020018083116103f357829003601f168201915b5050505050815260200160028201805461042990610b83565b80601f016020809104026020016040519081016040528092919081815260200182805461045590610b83565b80156104a25780601f10610477576101008083540402835291602001916104a2565b820191906000526020600020905b81548152906001019060200180831161048557829003601f168201915b505050505081526020016003820180546104bb90610b83565b80601f01602080910402602001604051908101604052809291908181526020018280546104e790610b83565b80156105345780601f1061050957610100808354040283529160200191610534565b820191906000526020600020905b81548152906001019060200180831161051757829003601f168201915b5050505050815260200160048201548152505090508060000151816020015182604001518360600151846080015195509550955095509550509091929394565b6000604051905090565b600080fd5b600080fd5b600080fd5b600080fd5b6000601f19601f8301169050919050565b7f4e487b7100000000000000000000000000000000000000000000000000000000600052604160045260246000fd5b6105db82610592565b810181811067ffffffffffffffff821117156105fa576105f96105a3565b5b80604052505050565b600061060d610574565b905061061982826105d2565b919050565b600067ffffffffffffffff821115610639576106386105a3565b5b61064282610592565b9050602081019050919050565b82818337600083830152505050565b600061067161066c8461061e565b610603565b90508281526020810184848401111561068d5761068c61058d565b5b61069884828561064f565b509392505050565b600082601f8301126106b5576106b4610588565b5b81356106c584826020860161065e565b91505092915050565b6000819050919050565b6106e1816106ce565b81146106ec57600080fd5b50565b6000813590506106fe816106d8565b92915050565b600080600080600060a086880312156107205761071f61057e565b5b600086013567ffffffffffffffff81111561073e5761073d610583565b5b61074a888289016106a0565b955050602086013567ffffffffffffffff81111561076b5761076a610583565b5b610777888289016106a0565b945050604086013567ffffffffffffffff81111561079857610797610583565b5b6107a4888289016106a0565b935050606086013567ffffffffffffffff8111156107c5576107c4610583565b5b6107d1888289016106a0565b92505060806107e2888289016106ef565b9150509295509295909350565b600081519050919050565b600082825260208201905092915050565b60005b8381101561082957808201518184015260208101905061080e565b60008484015250505050565b6000610840826107ef565b61084a81856107fa565b935061085a81856020860161080b565b61086381610592565b840191505092915050565b610877816106ce565b82525050565b600060a08201905081810360008301526108978188610835565b905081810360208301526108ab8187610835565b905081810360408301526108bf8186610835565b905081810360608301526108d38185610835565b90506108e2608083018461086e565b9695505050505050565b7f5469746c65206973207265717569726564000000000000000000000000000000600082015250565b60006109226011836107fa565b915061092d826108ec565b602082019050919050565b6000602082019050818103600083015261095181610915565b9050919050565b7f4465736372697074696f6e206973207265717569726564000000000000000000600082015250565b600061098e6017836107fa565b915061099982610958565b602082019050919050565b600060208201905081810360008301526109bd81610981565b9050919050565b7f5374617274206461746520697320726571756972656400000000000000000000600082015250565b60006109fa6016836107fa565b9150610a05826109c4565b602082019050919050565b60006020820190508181036000830152610a29816109ed565b9050919050565b7f456e642064617465206d7573742062652067726561746572207468616e20737460008201527f6172742064617465000000000000000000000000000000000000000000000000602082015250565b6000610a8c6028836107fa565b9150610a9782610a30565b604082019050919050565b60006020820190508181036000830152610abb81610a7f565b9050919050565b7f416d6f756e7420746f20626520726169736564206d757374206265206772656160008201527f746572207468616e207a65726f00000000000000000000000000000000000000602082015250565b6000610b1e602d836107fa565b9150610b2982610ac2565b604082019050919050565b60006020820190508181036000830152610b4d81610b11565b9050919050565b7f4e487b7100000000000000000000000000000000000000000000000000000000600052602260045260246000fd5b60006002820490506001821680610b9b57607f821691505b602082108103610bae57610bad610b54565b5b50919050565b60008190508160005260206000209050919050565b60006020601f8301049050919050565b600082821b905092915050565b600060088302610c167fffffffffffffffffffffffffffffffffffffffffffffffffffffffffffffffff82610bd9565b610c208683610bd9565b95508019841693508086168417925050509392505050565b6000819050919050565b6000610c5d610c58610c53846106ce565b610c38565b6106ce565b9050919050565b6000819050919050565b610c7783610c42565b610c8b610c8382610c64565b848454610be6565b825550505050565b600090565b610ca0610c93565b610cab818484610c6e565b505050565b5b81811015610ccf57610cc4600082610c98565b600181019050610cb1565b5050565b601f821115610d1457610ce581610bb4565b610cee84610bc9565b81016020851015610cfd578190505b610d11610d0985610bc9565b830182610cb0565b50505b505050565b600082821c905092915050565b6000610d3760001984600802610d19565b1980831691505092915050565b6000610d508383610d26565b9150826002028217905092915050565b610d69826107ef565b67ffffffffffffffff811115610d8257610d816105a3565b5b610d8c8254610b83565b610d97828285610cd3565b600060209050601f831160018114610dca5760008415610db8578287015190505b610dc28582610d44565b865550610e2a565b601f198416610dd886610bb4565b60005b82811015610e0057848901518255600182019150602085019450602081019050610ddb565b86831015610e1d5784890151610e19601f891682610d26565b8355505b6001600288020188555050505b50505050505056fea2646970667358221220bfe026521e9bc48d266a29f24eb32707a4cf54d452f8f39016f8bda67103dd1364736f6c63430008130033",
  "immutableReferences": {},
  "source": "//SPDX-License-Identifier: UNLICENSED\npragma solidity >=0.6.0 < 0.9.0;\n\ncontract ProjectDetails {\n    struct Project {\n        string title;\n        string description;\n        string startDate;\n        string endDate;\n        uint256 amountToBeRaised;\n    }\n\n    mapping(address => Project) private projects;\n\n    // Function to store project details\n    function createProject(\n        string memory _title,\n        string memory _description,\n        string memory _startDate,\n        string memory _endDate,\n        uint256 _amountToBeRaised\n    ) public {\n        require(bytes(_title).length > 0, \"Title is required\");\n        require(bytes(_description).length > 0, \"Description is required\");\n        require(bytes(_startDate).length > 0, \"Start date is required\");\n        require(bytes(_endDate).length > 0, \"End date must be greater than start date\");\n        require(_amountToBeRaised > 0, \"Amount to be raised must be greater than zero\");\n\n        Project memory newProject = Project(\n            _title,\n            _description,\n            _startDate,\n            _endDate,\n            _amountToBeRaised\n        );\n\n        projects[msg.sender] = newProject;\n    }\n\n    // Function to retrieve project details\n    function getProjectDetails() public view returns (string memory, string memory, string memory, string memory, uint256) {\n        Project memory project = projects[msg.sender];\n\n        return (\n            project.title,\n            project.description,\n            project.startDate,\n            project.endDate,\n            project.amountToBeRaised\n        );\n    }\n}\n",
  "sourcePath": "/home/mypc/Documents/mypc/Personal/B.E./uBE/Mega Project/Implementation/v 1.0/contracts/ProjectDetails.sol",
  "compiler": {
    "name": "solc",
    "version": "0.8.19+commit.7dd6d404.Emscripten.clang"
  },
  "schemaVersion": "3.4.10",
  "updatedAt": "2023-04-17T10:48:45.301Z",
  "networkType": "ethereum",
  "devdoc": {
    "kind": "dev",
    "methods": {},
    "version": 1
  },
  "userdoc": {
    "kind": "user",
    "methods": {},
    "version": 1
  }
}