{
  "contractName": "ProjectDetails",
  "abi": [
    {
      "inputs": [
        {
          "internalType": "string",
          "name": "_title",
          "type": "string"
        },
        {
          "internalType": "string",
          "name": "_description",
          "type": "string"
        },
        {
          "internalType": "string",
          "name": "_startDate",
          "type": "string"
        },
        {
          "internalType": "string",
          "name": "_endDate",
          "type": "string"
        },
        {
          "internalType": "uint256",
          "name": "_amountToRaise",
          "type": "uint256"
        }
      ],
      "name": "createProject",
      "outputs": [],
      "stateMutability": "nonpayable",
      "type": "function"
    },
    {
      "inputs": [],
      "name": "getProjectDetails",
      "outputs": [
        {
          "components": [
            {
              "internalType": "string",
              "name": "title",
              "type": "string"
            },
            {
              "internalType": "string",
              "name": "description",
              "type": "string"
            },
            {
              "internalType": "string",
              "name": "startDate",
              "type": "string"
            },
            {
              "internalType": "string",
              "name": "endDate",
              "type": "string"
            },
            {
              "internalType": "uint256",
              "name": "amountToRaise",
              "type": "uint256"
            }
          ],
          "internalType": "struct ProjectDetails.Project[]",
          "name": "",
          "type": "tuple[]"
        }
      ],
      "stateMutability": "view",
      "type": "function",
      "constant": true
    }
  ],
  "bytecode": "0x608060405234801561001057600080fd5b50610e27806100206000396000f3fe608060405234801561001057600080fd5b50600436106100365760003560e01c8063a78c389a1461003b578063ff3a9c7e14610057575b600080fd5b61005560048036038101906100509190610785565b610075565b005b61005f6101f4565b60405161006c9190610a4b565b60405180910390f35b6000600280549050905060026040518060a0016040528088815260200187815260200186815260200185815260200184815250908060018154018082558091505060019003906000526020600020906005020160009091909190915060008201518160000190816100e69190610c79565b5060208201518160010190816100fc9190610c79565b5060408201518160020190816101129190610c79565b5060608201518160030190816101289190610c79565b506080820151816004015550503360008083815260200190815260200160002060006101000a81548173ffffffffffffffffffffffffffffffffffffffff021916908373ffffffffffffffffffffffffffffffffffffffff160217905550600160003373ffffffffffffffffffffffffffffffffffffffff1673ffffffffffffffffffffffffffffffffffffffff168152602001908152602001600020819080600181540180825580915050600190039060005260206000200160009091909190915055505050505050565b60606000600160003373ffffffffffffffffffffffffffffffffffffffff1673ffffffffffffffffffffffffffffffffffffffff16815260200190815260200160002080548060200260200160405190810160405280929190818152602001828054801561028157602002820191906000526020600020905b81548152602001906001019080831161026d575b505050505090506000815167ffffffffffffffff8111156102a5576102a4610624565b5b6040519080825280602002602001820160405280156102de57816020015b6102cb6105c6565b8152602001906001900390816102c35790505b50905060005b82518110156105bd57600083828151811061030257610301610d4b565b5b60200260200101519050600281815481106103205761031f610d4b565b5b90600052602060002090600502016040518060a001604052908160008201805461034990610a9c565b80601f016020809104026020016040519081016040528092919081815260200182805461037590610a9c565b80156103c25780601f10610397576101008083540402835291602001916103c2565b820191906000526020600020905b8154815290600101906020018083116103a557829003601f168201915b505050505081526020016001820180546103db90610a9c565b80601f016020809104026020016040519081016040528092919081815260200182805461040790610a9c565b80156104545780601f1061042957610100808354040283529160200191610454565b820191906000526020600020905b81548152906001019060200180831161043757829003601f168201915b5050505050815260200160028201805461046d90610a9c565b80601f016020809104026020016040519081016040528092919081815260200182805461049990610a9c565b80156104e65780601f106104bb576101008083540402835291602001916104e6565b820191906000526020600020905b8154815290600101906020018083116104c957829003601f168201915b505050505081526020016003820180546104ff90610a9c565b80601f016020809104026020016040519081016040528092919081815260200182805461052b90610a9c565b80156105785780601f1061054d57610100808354040283529160200191610578565b820191906000526020600020905b81548152906001019060200180831161055b57829003601f168201915b5050505050815260200160048201548152505083838151811061059e5761059d610d4b565b5b60200260200101819052505080806105b590610da9565b9150506102e4565b50809250505090565b6040518060a0016040528060608152602001606081526020016060815260200160608152602001600081525090565b6000604051905090565b600080fd5b600080fd5b600080fd5b600080fd5b6000601f19601f8301169050919050565b7f4e487b7100000000000000000000000000000000000000000000000000000000600052604160045260246000fd5b61065c82610613565b810181811067ffffffffffffffff8211171561067b5761067a610624565b5b80604052505050565b600061068e6105f5565b905061069a8282610653565b919050565b600067ffffffffffffffff8211156106ba576106b9610624565b5b6106c382610613565b9050602081019050919050565b82818337600083830152505050565b60006106f26106ed8461069f565b610684565b90508281526020810184848401111561070e5761070d61060e565b5b6107198482856106d0565b509392505050565b600082601f83011261073657610735610609565b5b81356107468482602086016106df565b91505092915050565b6000819050919050565b6107628161074f565b811461076d57600080fd5b50565b60008135905061077f81610759565b92915050565b600080600080600060a086880312156107a1576107a06105ff565b5b600086013567ffffffffffffffff8111156107bf576107be610604565b5b6107cb88828901610721565b955050602086013567ffffffffffffffff8111156107ec576107eb610604565b5b6107f888828901610721565b945050604086013567ffffffffffffffff81111561081957610818610604565b5b61082588828901610721565b935050606086013567ffffffffffffffff81111561084657610845610604565b5b61085288828901610721565b925050608061086388828901610770565b9150509295509295909350565b600081519050919050565b600082825260208201905092915050565b6000819050602082019050919050565b600081519050919050565b600082825260208201905092915050565b60005b838110156108d65780820151818401526020810190506108bb565b60008484015250505050565b60006108ed8261089c565b6108f781856108a7565b93506109078185602086016108b8565b61091081610613565b840191505092915050565b6109248161074f565b82525050565b600060a083016000830151848203600086015261094782826108e2565b9150506020830151848203602086015261096182826108e2565b9150506040830151848203604086015261097b82826108e2565b9150506060830151848203606086015261099582826108e2565b91505060808301516109aa608086018261091b565b508091505092915050565b60006109c1838361092a565b905092915050565b6000602082019050919050565b60006109e182610870565b6109eb818561087b565b9350836020820285016109fd8561088c565b8060005b85811015610a395784840389528151610a1a85826109b5565b9450610a25836109c9565b925060208a01995050600181019050610a01565b50829750879550505050505092915050565b60006020820190508181036000830152610a6581846109d6565b905092915050565b7f4e487b7100000000000000000000000000000000000000000000000000000000600052602260045260246000fd5b60006002820490506001821680610ab457607f821691505b602082108103610ac757610ac6610a6d565b5b50919050565b60008190508160005260206000209050919050565b60006020601f8301049050919050565b600082821b905092915050565b600060088302610b2f7fffffffffffffffffffffffffffffffffffffffffffffffffffffffffffffffff82610af2565b610b398683610af2565b95508019841693508086168417925050509392505050565b6000819050919050565b6000610b76610b71610b6c8461074f565b610b51565b61074f565b9050919050565b6000819050919050565b610b9083610b5b565b610ba4610b9c82610b7d565b848454610aff565b825550505050565b600090565b610bb9610bac565b610bc4818484610b87565b505050565b5b81811015610be857610bdd600082610bb1565b600181019050610bca565b5050565b601f821115610c2d57610bfe81610acd565b610c0784610ae2565b81016020851015610c16578190505b610c2a610c2285610ae2565b830182610bc9565b50505b505050565b600082821c905092915050565b6000610c5060001984600802610c32565b1980831691505092915050565b6000610c698383610c3f565b9150826002028217905092915050565b610c828261089c565b67ffffffffffffffff811115610c9b57610c9a610624565b5b610ca58254610a9c565b610cb0828285610bec565b600060209050601f831160018114610ce35760008415610cd1578287015190505b610cdb8582610c5d565b865550610d43565b601f198416610cf186610acd565b60005b82811015610d1957848901518255600182019150602085019450602081019050610cf4565b86831015610d365784890151610d32601f891682610c3f565b8355505b6001600288020188555050505b505050505050565b7f4e487b7100000000000000000000000000000000000000000000000000000000600052603260045260246000fd5b7f4e487b7100000000000000000000000000000000000000000000000000000000600052601160045260246000fd5b6000610db48261074f565b91507fffffffffffffffffffffffffffffffffffffffffffffffffffffffffffffffff8203610de657610de5610d7a565b5b60018201905091905056fea26469706673582212203df31ce29d577f6aeabbeecd468956f56e3acf8e71e5e72afa0d5c081c52f0fb64736f6c63430008130033",
  "immutableReferences": {},
  "source": "//SPDX-License-Identifier: UNLICENSED\npragma solidity >=0.6.0 < 0.9.0;\n\n// ----------------------1ST CONTRACT----------------------//\n// contract ProjectDetails {\n//     struct Project {\n//         string title;\n//         string description;\n//         string startDate;\n//         string endDate;\n//         uint256 amountToBeRaised;\n//     }\n\n//     mapping(address => Project) private projects;\n\n//     // Function to store project details\n//     function createProject(\n//         string memory _title,\n//         string memory _description,\n//         string memory _startDate,\n//         string memory _endDate,\n//         uint256 _amountToBeRaised\n//     ) public {\n//         require(bytes(_title).length > 0, \"Title is required\");\n//         require(bytes(_description).length > 0, \"Description is required\");\n//         require(bytes(_startDate).length > 0, \"Start date is required\");\n//         require(bytes(_endDate).length > 0, \"End date must be greater than start date\");\n//         require(_amountToBeRaised > 0, \"Amount to be raised must be greater than zero\");\n\n//         Project memory newProject = Project(\n//             _title,\n//             _description,\n//             _startDate,\n//             _endDate,\n//             _amountToBeRaised\n//         );\n\n//         projects[msg.sender] = newProject;\n//     }\n\n//     // Function to retrieve project details\n//     function getProjectDetails() public view returns (Project memory) {\n//         Project memory project = projects[msg.sender];\n\n//         return project;\n//     }\n// }\n\n// ----------------------2ND CONTRACT----------------------//\n\ncontract ProjectDetails {\n    struct Project {\n        string title;\n        string description;\n        string startDate;\n        string endDate;\n        uint256 amountToRaise;\n    }\n\n    mapping(uint256 => address) private projectOwners;\n    mapping(address => uint256[]) private projectsByOwner;\n\n    Project[] private projects;\n\n    function createProject(string memory _title, string memory _description, string memory _startDate, string memory _endDate, uint256 _amountToRaise) public {\n        uint256 projectId = projects.length;\n        projects.push(Project(_title, _description, _startDate, _endDate, _amountToRaise));\n        projectOwners[projectId] = msg.sender;\n        projectsByOwner[msg.sender].push(projectId);\n    }\n\n    function getProjectDetails() public view returns (Project[] memory) {\n        uint256[] memory projectIds = projectsByOwner[msg.sender];\n        Project[] memory result = new Project[](projectIds.length);\n\n        for (uint256 i = 0; i < projectIds.length; i++) {\n            uint256 projectId = projectIds[i];\n            result[i] = projects[projectId];\n        }\n\n        return result;\n    }\n}\n\n",
  "sourcePath": "/home/mypc/Documents/mypc/Personal/B.E./uBE/Mega Project/Implementation/v 1.0/contracts/ProjectDetails.sol",
  "compiler": {
    "name": "solc",
    "version": "0.8.19+commit.7dd6d404.Emscripten.clang"
  },
  "schemaVersion": "3.4.10",
  "updatedAt": "2023-04-18T07:14:02.106Z",
  "networkType": "ethereum",
  "devdoc": {
    "kind": "dev",
    "methods": {},
    "version": 1
  },
  "userdoc": {
    "kind": "user",
    "methods": {},
    "version": 1
  }
}