{
  "contractName": "ProjectDetails",
  "abi": [
    {
      "inputs": [
        {
          "internalType": "address",
          "name": "_admin",
          "type": "address"
        }
      ],
      "stateMutability": "nonpayable",
      "type": "constructor"
    },
    {
      "inputs": [],
      "name": "admin",
      "outputs": [
        {
          "internalType": "address",
          "name": "",
          "type": "address"
        }
      ],
      "stateMutability": "view",
      "type": "function"
    },
    {
      "inputs": [
        {
          "internalType": "string",
          "name": "_title",
          "type": "string"
        },
        {
          "internalType": "string",
          "name": "_description",
          "type": "string"
        },
        {
          "internalType": "string",
          "name": "_startDate",
          "type": "string"
        },
        {
          "internalType": "string",
          "name": "_endDate",
          "type": "string"
        },
        {
          "internalType": "uint256",
          "name": "_amountToRaise",
          "type": "uint256"
        }
      ],
      "name": "createProject",
      "outputs": [],
      "stateMutability": "nonpayable",
      "type": "function"
    },
    {
      "inputs": [
        {
          "internalType": "uint256",
          "name": "_projectId",
          "type": "uint256"
        },
        {
          "internalType": "string[]",
          "name": "_milestones",
          "type": "string[]"
        }
      ],
      "name": "setMilestones",
      "outputs": [],
      "stateMutability": "nonpayable",
      "type": "function"
    },
    {
      "inputs": [],
      "name": "getCurrentProjectId",
      "outputs": [
        {
          "internalType": "uint256[]",
          "name": "",
          "type": "uint256[]"
        }
      ],
      "stateMutability": "view",
      "type": "function"
    },
    {
      "inputs": [
        {
          "internalType": "uint256",
          "name": "_projectId",
          "type": "uint256"
        }
      ],
      "name": "approveProject",
      "outputs": [],
      "stateMutability": "nonpayable",
      "type": "function"
    },
    {
      "inputs": [
        {
          "internalType": "uint256",
          "name": "_projectId",
          "type": "uint256"
        }
      ],
      "name": "rejectProject",
      "outputs": [],
      "stateMutability": "nonpayable",
      "type": "function"
    },
    {
      "inputs": [
        {
          "internalType": "uint256",
          "name": "_index",
          "type": "uint256"
        }
      ],
      "name": "abortProject",
      "outputs": [],
      "stateMutability": "nonpayable",
      "type": "function"
    },
    {
      "inputs": [
        {
          "internalType": "uint256",
          "name": "_projectId",
          "type": "uint256"
        }
      ],
      "name": "isProjectApproved",
      "outputs": [
        {
          "internalType": "string",
          "name": "",
          "type": "string"
        }
      ],
      "stateMutability": "view",
      "type": "function"
    },
    {
      "inputs": [
        {
          "internalType": "uint256",
          "name": "projectId",
          "type": "uint256"
        }
      ],
      "name": "getProject",
      "outputs": [
        {
          "components": [
            {
              "internalType": "string",
              "name": "title",
              "type": "string"
            },
            {
              "internalType": "string",
              "name": "description",
              "type": "string"
            },
            {
              "internalType": "string",
              "name": "startDate",
              "type": "string"
            },
            {
              "internalType": "string",
              "name": "endDate",
              "type": "string"
            },
            {
              "internalType": "uint256",
              "name": "amountToRaise",
              "type": "uint256"
            },
            {
              "internalType": "uint256",
              "name": "amountRaised",
              "type": "uint256"
            },
            {
              "internalType": "string[]",
              "name": "milestones",
              "type": "string[]"
            },
            {
              "internalType": "string",
              "name": "approved",
              "type": "string"
            }
          ],
          "internalType": "struct ProjectDetails.Project",
          "name": "",
          "type": "tuple"
        }
      ],
      "stateMutability": "view",
      "type": "function"
    },
    {
      "inputs": [],
      "name": "getProjectDetails",
      "outputs": [
        {
          "components": [
            {
              "internalType": "string",
              "name": "title",
              "type": "string"
            },
            {
              "internalType": "string",
              "name": "description",
              "type": "string"
            },
            {
              "internalType": "string",
              "name": "startDate",
              "type": "string"
            },
            {
              "internalType": "string",
              "name": "endDate",
              "type": "string"
            },
            {
              "internalType": "uint256",
              "name": "amountToRaise",
              "type": "uint256"
            },
            {
              "internalType": "uint256",
              "name": "amountRaised",
              "type": "uint256"
            },
            {
              "internalType": "string[]",
              "name": "milestones",
              "type": "string[]"
            },
            {
              "internalType": "string",
              "name": "approved",
              "type": "string"
            }
          ],
          "internalType": "struct ProjectDetails.Project[]",
          "name": "",
          "type": "tuple[]"
        }
      ],
      "stateMutability": "view",
      "type": "function"
    },
    {
      "inputs": [],
      "name": "getAllProjects",
      "outputs": [
        {
          "components": [
            {
              "internalType": "string",
              "name": "title",
              "type": "string"
            },
            {
              "internalType": "string",
              "name": "description",
              "type": "string"
            },
            {
              "internalType": "string",
              "name": "startDate",
              "type": "string"
            },
            {
              "internalType": "string",
              "name": "endDate",
              "type": "string"
            },
            {
              "internalType": "uint256",
              "name": "amountToRaise",
              "type": "uint256"
            },
            {
              "internalType": "uint256",
              "name": "amountRaised",
              "type": "uint256"
            },
            {
              "internalType": "string[]",
              "name": "milestones",
              "type": "string[]"
            },
            {
              "internalType": "string",
              "name": "approved",
              "type": "string"
            }
          ],
          "internalType": "struct ProjectDetails.Project[]",
          "name": "",
          "type": "tuple[]"
        }
      ],
      "stateMutability": "view",
      "type": "function"
    }
  ],
  "bytecode": "0x608060405234801562000010575f80fd5b50604051620028ae380380620028ae8339818101604052810190620000369190620000e1565b805f806101000a81548173ffffffffffffffffffffffffffffffffffffffff021916908373ffffffffffffffffffffffffffffffffffffffff1602179055505062000111565b5f80fd5b5f73ffffffffffffffffffffffffffffffffffffffff82169050919050565b5f620000ab8262000080565b9050919050565b620000bd816200009f565b8114620000c8575f80fd5b50565b5f81519050620000db81620000b2565b92915050565b5f60208284031215620000f957620000f86200007c565b5b5f6200010884828501620000cb565b91505092915050565b61278f806200011f5f395ff3fe608060405234801561000f575f80fd5b50600436106100a7575f3560e01c8063a78c389a1161006f578063a78c389a1461014d578063c868ba9a14610169578063f0f3f2c814610187578063f851a440146101b7578063fc69d836146101d5578063ff3a9c7e146101f1576100a7565b8063083b9bf9146100ab57806369b04f19146100c75780636c88163f146100e357806380d0382914610113578063a3bfb7bd14610131575b5f80fd5b6100c560048036038101906100c09190611b30565b61020f565b005b6100e160048036038101906100dc9190611b8a565b6102e9565b005b6100fd60048036038101906100f89190611b8a565b6103df565b60405161010a9190611c2f565b60405180910390f35b61011b610492565b6040516101289190611eec565b60405180910390f35b61014b60048036038101906101469190611b8a565b6108a6565b005b61016760048036038101906101629190611f0c565b610a46565b005b610171610c8a565b60405161017e919061209b565b60405180910390f35b6101a1600480360381019061019c9190611b8a565b610d1b565b6040516101ae919061218b565b60405180910390f35b6101bf611154565b6040516101cc91906121ea565b60405180910390f35b6101ef60048036038101906101ea9190611b8a565b611177565b005b6101f961126d565b6040516102069190611eec565b60405180910390f35b3373ffffffffffffffffffffffffffffffffffffffff1660015f8481526020019081526020015f205f9054906101000a900473ffffffffffffffffffffffffffffffffffffffff1673ffffffffffffffffffffffffffffffffffffffff16146102ad576040517f08c379a00000000000000000000000000000000000000000000000000000000081526004016102a490612273565b60405180910390fd5b80600383815481106102c2576102c1612291565b5b905f5260205f20906008020160060190805190602001906102e492919061179b565b505050565b5f8054906101000a900473ffffffffffffffffffffffffffffffffffffffff1673ffffffffffffffffffffffffffffffffffffffff163373ffffffffffffffffffffffffffffffffffffffff1614610376576040517f08c379a000000000000000000000000000000000000000000000000000000000815260040161036d90612308565b60405180910390fd5b6040518060400160405280600581526020017f66616c7365000000000000000000000000000000000000000000000000000000815250600382815481106103c0576103bf612291565b5b905f5260205f20906008020160070190816103db9190612520565b5050565b6060600382815481106103f5576103f4612291565b5b905f5260205f209060080201600701805461040f90612353565b80601f016020809104026020016040519081016040528092919081815260200182805461043b90612353565b80156104865780601f1061045d57610100808354040283529160200191610486565b820191905f5260205f20905b81548152906001019060200180831161046957829003601f168201915b50505050509050919050565b60606003805480602002602001604051908101604052809291908181526020015f905b8282101561089d578382905f5260205f209060080201604051806101000160405290815f820180546104e690612353565b80601f016020809104026020016040519081016040528092919081815260200182805461051290612353565b801561055d5780601f106105345761010080835404028352916020019161055d565b820191905f5260205f20905b81548152906001019060200180831161054057829003601f168201915b5050505050815260200160018201805461057690612353565b80601f01602080910402602001604051908101604052809291908181526020018280546105a290612353565b80156105ed5780601f106105c4576101008083540402835291602001916105ed565b820191905f5260205f20905b8154815290600101906020018083116105d057829003601f168201915b5050505050815260200160028201805461060690612353565b80601f016020809104026020016040519081016040528092919081815260200182805461063290612353565b801561067d5780601f106106545761010080835404028352916020019161067d565b820191905f5260205f20905b81548152906001019060200180831161066057829003601f168201915b5050505050815260200160038201805461069690612353565b80601f01602080910402602001604051908101604052809291908181526020018280546106c290612353565b801561070d5780601f106106e45761010080835404028352916020019161070d565b820191905f5260205f20905b8154815290600101906020018083116106f057829003601f168201915b50505050508152602001600482015481526020016005820154815260200160068201805480602002602001604051908101604052809291908181526020015f905b828210156107f6578382905f5260205f2001805461076b90612353565b80601f016020809104026020016040519081016040528092919081815260200182805461079790612353565b80156107e25780601f106107b9576101008083540402835291602001916107e2565b820191905f5260205f20905b8154815290600101906020018083116107c557829003601f168201915b50505050508152602001906001019061074e565b50505050815260200160078201805461080e90612353565b80601f016020809104026020016040519081016040528092919081815260200182805461083a90612353565b80156108855780601f1061085c57610100808354040283529160200191610885565b820191905f5260205f20905b81548152906001019060200180831161086857829003601f168201915b505050505081525050815260200190600101906104b5565b50505050905090565b3373ffffffffffffffffffffffffffffffffffffffff1660015f8381526020019081526020015f205f9054906101000a900473ffffffffffffffffffffffffffffffffffffffff1673ffffffffffffffffffffffffffffffffffffffff1614610944576040517f08c379a000000000000000000000000000000000000000000000000000000000815260040161093b9061265f565b60405180910390fd5b5f6003828154811061095957610958612291565b5b905f5260205f20906008020190506003828154811061097b5761097a612291565b5b905f5260205f2090600802015f8082015f61099691906117f2565b600182015f6109a591906117f2565b600282015f6109b491906117f2565b600382015f6109c391906117f2565b600482015f9055600582015f9055600682015f6109e0919061182f565b600782015f6109ef91906117f2565b5050805f015f6109ff91906117f2565b806001015f610a0e91906117f2565b806002015f610a1d91906117f2565b806003015f610a2c91906117f2565b806004015f9055806006015f610a42919061182f565b5050565b5f600380549050905060036040518061010001604052808881526020018781526020018681526020018581526020018481526020015f81526020015f67ffffffffffffffff811115610a9b57610a9a611926565b5b604051908082528060200260200182016040528015610ace57816020015b6060815260200190600190039081610ab95790505b5081526020016040518060400160405280600781526020017f6e6f742073657400000000000000000000000000000000000000000000000000815250815250908060018154018082558091505060019003905f5260205f2090600802015f909190919091505f820151815f019081610b469190612520565b506020820151816001019081610b5c9190612520565b506040820151816002019081610b729190612520565b506060820151816003019081610b889190612520565b506080820151816004015560a0820151816005015560c0820151816006019080519060200190610bb992919061179b565b5060e0820151816007019081610bcf9190612520565b5050503360015f8381526020019081526020015f205f6101000a81548173ffffffffffffffffffffffffffffffffffffffff021916908373ffffffffffffffffffffffffffffffffffffffff16021790555060025f3373ffffffffffffffffffffffffffffffffffffffff1673ffffffffffffffffffffffffffffffffffffffff1681526020019081526020015f2081908060018154018082558091505060019003905f5260205f20015f9091909190915055505050505050565b606060025f3373ffffffffffffffffffffffffffffffffffffffff1673ffffffffffffffffffffffffffffffffffffffff1681526020019081526020015f20805480602002602001604051908101604052809291908181526020018280548015610d1157602002820191905f5260205f20905b815481526020019060010190808311610cfd575b5050505050905090565b610d2361184d565b6003805490508210610d6a576040517f08c379a0000000000000000000000000000000000000000000000000000000008152600401610d61906126c7565b60405180910390fd5b60038281548110610d7e57610d7d612291565b5b905f5260205f209060080201604051806101000160405290815f82018054610da590612353565b80601f0160208091040260200160405190810160405280929190818152602001828054610dd190612353565b8015610e1c5780601f10610df357610100808354040283529160200191610e1c565b820191905f5260205f20905b815481529060010190602001808311610dff57829003601f168201915b50505050508152602001600182018054610e3590612353565b80601f0160208091040260200160405190810160405280929190818152602001828054610e6190612353565b8015610eac5780601f10610e8357610100808354040283529160200191610eac565b820191905f5260205f20905b815481529060010190602001808311610e8f57829003601f168201915b50505050508152602001600282018054610ec590612353565b80601f0160208091040260200160405190810160405280929190818152602001828054610ef190612353565b8015610f3c5780601f10610f1357610100808354040283529160200191610f3c565b820191905f5260205f20905b815481529060010190602001808311610f1f57829003601f168201915b50505050508152602001600382018054610f5590612353565b80601f0160208091040260200160405190810160405280929190818152602001828054610f8190612353565b8015610fcc5780601f10610fa357610100808354040283529160200191610fcc565b820191905f5260205f20905b815481529060010190602001808311610faf57829003601f168201915b50505050508152602001600482015481526020016005820154815260200160068201805480602002602001604051908101604052809291908181526020015f905b828210156110b5578382905f5260205f2001805461102a90612353565b80601f016020809104026020016040519081016040528092919081815260200182805461105690612353565b80156110a15780601f10611078576101008083540402835291602001916110a1565b820191905f5260205f20905b81548152906001019060200180831161108457829003601f168201915b50505050508152602001906001019061100d565b5050505081526020016007820180546110cd90612353565b80601f01602080910402602001604051908101604052809291908181526020018280546110f990612353565b80156111445780601f1061111b57610100808354040283529160200191611144565b820191905f5260205f20905b81548152906001019060200180831161112757829003601f168201915b5050505050815250509050919050565b5f8054906101000a900473ffffffffffffffffffffffffffffffffffffffff1681565b5f8054906101000a900473ffffffffffffffffffffffffffffffffffffffff1673ffffffffffffffffffffffffffffffffffffffff163373ffffffffffffffffffffffffffffffffffffffff1614611204576040517f08c379a00000000000000000000000000000000000000000000000000000000081526004016111fb90612308565b60405180910390fd5b6040518060400160405280600481526020017f74727565000000000000000000000000000000000000000000000000000000008152506003828154811061124e5761124d612291565b5b905f5260205f20906008020160070190816112699190612520565b5050565b60605f60025f3373ffffffffffffffffffffffffffffffffffffffff1673ffffffffffffffffffffffffffffffffffffffff1681526020019081526020015f208054806020026020016040519081016040528092919081815260200182805480156112f557602002820191905f5260205f20905b8154815260200190600101908083116112e1575b505050505090505f815167ffffffffffffffff81111561131857611317611926565b5b60405190808252806020026020018201604052801561135157816020015b61133e61184d565b8152602001906001900390816113365790505b5090505f5b8251811015611792575f83828151811061137357611372612291565b5b602002602001015190506003818154811061139157611390612291565b5b905f5260205f209060080201604051806101000160405290815f820180546113b890612353565b80601f01602080910402602001604051908101604052809291908181526020018280546113e490612353565b801561142f5780601f106114065761010080835404028352916020019161142f565b820191905f5260205f20905b81548152906001019060200180831161141257829003601f168201915b5050505050815260200160018201805461144890612353565b80601f016020809104026020016040519081016040528092919081815260200182805461147490612353565b80156114bf5780601f10611496576101008083540402835291602001916114bf565b820191905f5260205f20905b8154815290600101906020018083116114a257829003601f168201915b505050505081526020016002820180546114d890612353565b80601f016020809104026020016040519081016040528092919081815260200182805461150490612353565b801561154f5780601f106115265761010080835404028352916020019161154f565b820191905f5260205f20905b81548152906001019060200180831161153257829003601f168201915b5050505050815260200160038201805461156890612353565b80601f016020809104026020016040519081016040528092919081815260200182805461159490612353565b80156115df5780601f106115b6576101008083540402835291602001916115df565b820191905f5260205f20905b8154815290600101906020018083116115c257829003601f168201915b50505050508152602001600482015481526020016005820154815260200160068201805480602002602001604051908101604052809291908181526020015f905b828210156116c8578382905f5260205f2001805461163d90612353565b80601f016020809104026020016040519081016040528092919081815260200182805461166990612353565b80156116b45780601f1061168b576101008083540402835291602001916116b4565b820191905f5260205f20905b81548152906001019060200180831161169757829003601f168201915b505050505081526020019060010190611620565b5050505081526020016007820180546116e090612353565b80601f016020809104026020016040519081016040528092919081815260200182805461170c90612353565b80156117575780601f1061172e57610100808354040283529160200191611757565b820191905f5260205f20905b81548152906001019060200180831161173a57829003601f168201915b50505050508152505083838151811061177357611772612291565b5b602002602001018190525050808061178a90612712565b915050611356565b50809250505090565b828054828255905f5260205f209081019282156117e1579160200282015b828111156117e05782518290816117d09190612520565b50916020019190600101906117b9565b5b5090506117ee9190611890565b5090565b5080546117fe90612353565b5f825580601f1061180f575061182c565b601f0160209004905f5260205f209081019061182b91906118b3565b5b50565b5080545f8255905f5260205f209081019061184a9190611890565b50565b604051806101000160405280606081526020016060815260200160608152602001606081526020015f81526020015f815260200160608152602001606081525090565b5b808211156118af575f81816118a691906117f2565b50600101611891565b5090565b5b808211156118ca575f815f9055506001016118b4565b5090565b5f604051905090565b5f80fd5b5f80fd5b5f819050919050565b6118f1816118df565b81146118fb575f80fd5b50565b5f8135905061190c816118e8565b92915050565b5f80fd5b5f601f19601f8301169050919050565b7f4e487b71000000000000000000000000000000000000000000000000000000005f52604160045260245ffd5b61195c82611916565b810181811067ffffffffffffffff8211171561197b5761197a611926565b5b80604052505050565b5f61198d6118ce565b90506119998282611953565b919050565b5f67ffffffffffffffff8211156119b8576119b7611926565b5b602082029050602081019050919050565b5f80fd5b5f80fd5b5f67ffffffffffffffff8211156119eb576119ea611926565b5b6119f482611916565b9050602081019050919050565b828183375f83830152505050565b5f611a21611a1c846119d1565b611984565b905082815260208101848484011115611a3d57611a3c6119cd565b5b611a48848285611a01565b509392505050565b5f82601f830112611a6457611a63611912565b5b8135611a74848260208601611a0f565b91505092915050565b5f611a8f611a8a8461199e565b611984565b90508083825260208201905060208402830185811115611ab257611ab16119c9565b5b835b81811015611af957803567ffffffffffffffff811115611ad757611ad6611912565b5b808601611ae48982611a50565b85526020850194505050602081019050611ab4565b5050509392505050565b5f82601f830112611b1757611b16611912565b5b8135611b27848260208601611a7d565b91505092915050565b5f8060408385031215611b4657611b456118d7565b5b5f611b53858286016118fe565b925050602083013567ffffffffffffffff811115611b7457611b736118db565b5b611b8085828601611b03565b9150509250929050565b5f60208284031215611b9f57611b9e6118d7565b5b5f611bac848285016118fe565b91505092915050565b5f81519050919050565b5f82825260208201905092915050565b5f5b83811015611bec578082015181840152602081019050611bd1565b5f8484015250505050565b5f611c0182611bb5565b611c0b8185611bbf565b9350611c1b818560208601611bcf565b611c2481611916565b840191505092915050565b5f6020820190508181035f830152611c478184611bf7565b905092915050565b5f81519050919050565b5f82825260208201905092915050565b5f819050602082019050919050565b5f82825260208201905092915050565b5f611c9282611bb5565b611c9c8185611c78565b9350611cac818560208601611bcf565b611cb581611916565b840191505092915050565b611cc9816118df565b82525050565b5f81519050919050565b5f82825260208201905092915050565b5f819050602082019050919050565b5f611d038383611c88565b905092915050565b5f602082019050919050565b5f611d2182611ccf565b611d2b8185611cd9565b935083602082028501611d3d85611ce9565b805f5b85811015611d785784840389528151611d598582611cf8565b9450611d6483611d0b565b925060208a01995050600181019050611d40565b50829750879550505050505092915050565b5f61010083015f8301518482035f860152611da58282611c88565b91505060208301518482036020860152611dbf8282611c88565b91505060408301518482036040860152611dd98282611c88565b91505060608301518482036060860152611df38282611c88565b9150506080830151611e086080860182611cc0565b5060a0830151611e1b60a0860182611cc0565b5060c083015184820360c0860152611e338282611d17565b91505060e083015184820360e0860152611e4d8282611c88565b9150508091505092915050565b5f611e658383611d8a565b905092915050565b5f602082019050919050565b5f611e8382611c4f565b611e8d8185611c59565b935083602082028501611e9f85611c69565b805f5b85811015611eda5784840389528151611ebb8582611e5a565b9450611ec683611e6d565b925060208a01995050600181019050611ea2565b50829750879550505050505092915050565b5f6020820190508181035f830152611f048184611e79565b905092915050565b5f805f805f60a08688031215611f2557611f246118d7565b5b5f86013567ffffffffffffffff811115611f4257611f416118db565b5b611f4e88828901611a50565b955050602086013567ffffffffffffffff811115611f6f57611f6e6118db565b5b611f7b88828901611a50565b945050604086013567ffffffffffffffff811115611f9c57611f9b6118db565b5b611fa888828901611a50565b935050606086013567ffffffffffffffff811115611fc957611fc86118db565b5b611fd588828901611a50565b9250506080611fe6888289016118fe565b9150509295509295909350565b5f81519050919050565b5f82825260208201905092915050565b5f819050602082019050919050565b5f6120278383611cc0565b60208301905092915050565b5f602082019050919050565b5f61204982611ff3565b6120538185611ffd565b935061205e8361200d565b805f5b8381101561208e578151612075888261201c565b975061208083612033565b925050600181019050612061565b5085935050505092915050565b5f6020820190508181035f8301526120b3818461203f565b905092915050565b5f61010083015f8301518482035f8601526120d68282611c88565b915050602083015184820360208601526120f08282611c88565b9150506040830151848203604086015261210a8282611c88565b915050606083015184820360608601526121248282611c88565b91505060808301516121396080860182611cc0565b5060a083015161214c60a0860182611cc0565b5060c083015184820360c08601526121648282611d17565b91505060e083015184820360e086015261217e8282611c88565b9150508091505092915050565b5f6020820190508181035f8301526121a381846120bb565b905092915050565b5f73ffffffffffffffffffffffffffffffffffffffff82169050919050565b5f6121d4826121ab565b9050919050565b6121e4816121ca565b82525050565b5f6020820190506121fd5f8301846121db565b92915050565b7f4f6e6c792070726f6a656374206f776e65722063616e20736574206d696c65735f8201527f746f6e65732e0000000000000000000000000000000000000000000000000000602082015250565b5f61225d602683611bbf565b915061226882612203565b604082019050919050565b5f6020820190508181035f83015261228a81612251565b9050919050565b7f4e487b71000000000000000000000000000000000000000000000000000000005f52603260045260245ffd5b7f596f7520646f206e6f7420686176652070726976696c656765730000000000005f82015250565b5f6122f2601a83611bbf565b91506122fd826122be565b602082019050919050565b5f6020820190508181035f83015261231f816122e6565b9050919050565b7f4e487b71000000000000000000000000000000000000000000000000000000005f52602260045260245ffd5b5f600282049050600182168061236a57607f821691505b60208210810361237d5761237c612326565b5b50919050565b5f819050815f5260205f209050919050565b5f6020601f8301049050919050565b5f82821b905092915050565b5f600883026123df7fffffffffffffffffffffffffffffffffffffffffffffffffffffffffffffffff826123a4565b6123e986836123a4565b95508019841693508086168417925050509392505050565b5f819050919050565b5f61242461241f61241a846118df565b612401565b6118df565b9050919050565b5f819050919050565b61243d8361240a565b6124516124498261242b565b8484546123b0565b825550505050565b5f90565b612465612459565b612470818484612434565b505050565b5b81811015612493576124885f8261245d565b600181019050612476565b5050565b601f8211156124d8576124a981612383565b6124b284612395565b810160208510156124c1578190505b6124d56124cd85612395565b830182612475565b50505b505050565b5f82821c905092915050565b5f6124f85f19846008026124dd565b1980831691505092915050565b5f61251083836124e9565b9150826002028217905092915050565b61252982611bb5565b67ffffffffffffffff81111561254257612541611926565b5b61254c8254612353565b612557828285612497565b5f60209050601f831160018114612588575f8415612576578287015190505b6125808582612505565b8655506125e7565b601f19841661259686612383565b5f5b828110156125bd57848901518255600182019150602085019450602081019050612598565b868310156125da57848901516125d6601f8916826124e9565b8355505b6001600288020188555050505b505050505050565b7f4f6e6c792070726f6a656374206f776e65722063616e2061626f72742070726f5f8201527f6a6563742e000000000000000000000000000000000000000000000000000000602082015250565b5f612649602583611bbf565b9150612654826125ef565b604082019050919050565b5f6020820190508181035f8301526126768161263d565b9050919050565b7f496e76616c69642070726f6a65637420494400000000000000000000000000005f82015250565b5f6126b1601283611bbf565b91506126bc8261267d565b602082019050919050565b5f6020820190508181035f8301526126de816126a5565b9050919050565b7f4e487b71000000000000000000000000000000000000000000000000000000005f52601160045260245ffd5b5f61271c826118df565b91507fffffffffffffffffffffffffffffffffffffffffffffffffffffffffffffffff820361274e5761274d6126e5565b5b60018201905091905056fea264697066735822122016f3a1cbfa02889f297758d13cb8e7bb8cf16455f2cfdb5941bbf51ece1f084b64736f6c63430008140033",
  "immutableReferences": {},
  "source": "//SPDX-License-Identifier: UNLICENSED\npragma solidity >=0.6.0 < 0.9.0;\n\n// ----------------------1ST CONTRACT----------------------//\n// contract ProjectDetails {\n//     struct Project {\n//         string title;\n//         string description;\n//         string startDate;\n//         string endDate;\n//         uint256 amountToBeRaised;\n//     }\n\n//     mapping(address => Project) private projects;\n\n//     // Function to store project details\n//     function createProject(\n//         string memory _title,\n//         string memory _description,\n//         string memory _startDate,\n//         string memory _endDate,\n//         uint256 _amountToBeRaised\n//     ) public {\n//         require(bytes(_title).length > 0, \"Title is required\");\n//         require(bytes(_description).length > 0, \"Description is required\");\n//         require(bytes(_startDate).length > 0, \"Start date iitems required\");\n//         require(bytes(_endDate).length > 0, \"End date must be greater than start date\");\n//         require(_amountToBeRaised > 0, \"Amount to be raised must be greater than zero\");\n\n//         Project memory newProject = Project(\n//             _title,\n//             _description,\n//             _startDate,\n//             _endDate,\n//             _amountToBeRaised\n//         );\n\n//         projects[msg.sender] = newProject;\n//     }\n\n//     // Function to retrieve project details\n//     function getProjectDetails() public view returns (Project memory) {\n//         Project memory project = projects[msg.sender];\n\n//         return project;\n//     }\n// }\n\n// ----------------------2ND CONTRACT----------------------//\n\ncontract ProjectDetails {\n    struct Project {\n        string title;\n        string description;\n        string startDate;\n        string endDate;\n        uint256 amountToRaise;\n        uint256 amountRaised;\n        string[] milestones;\n        string approved;\n    }\n\n    address public admin;\n\n    mapping(uint256 => address) private projectOwners;\n    mapping(address => uint256[]) private projectsByOwner;\n\n    Project[] private projects;\n\n    constructor(address _admin) {\n        admin = _admin;\n    }\n\n    function createProject(string memory _title, string memory _description, string memory _startDate, string memory _endDate, uint256 _amountToRaise) public {\n        uint256 projectId = projects.length;\n        projects.push(Project(_title, _description, _startDate, _endDate, _amountToRaise, 0, new string[](0), \"not set\"));\n        projectOwners[projectId] = msg.sender;\n        projectsByOwner[msg.sender].push(projectId);\n    }\n\n    function setMilestones(uint256 _projectId, string[] memory _milestones) public {\n        require(projectOwners[_projectId] == msg.sender, \"Only project owner can set milestones.\");\n        projects[_projectId].milestones = _milestones;\n    }\n\n    // function addAmountRaised(uint256 _projectId, uint256 _amountRaised) public {\n    //     // require(projects[_projectId].amountRaised + _amountRaised < projects[_projectId].amountToRaise, \"Amount should be less than funding goal\");\n    //     projects[_projectId].amountRaised += _amountRaised;\n    // }\n\n    // function getProjectOwner(uint256 _projectId) public view returns (address) {\n    //     return projectOwners[_projectId];\n    // }\n\n    function getCurrentProjectId() public view returns (uint256[] memory) {\n        return projectsByOwner[msg.sender];\n    }\n\n    function approveProject(uint256 _projectId) public {\n        require(msg.sender == admin, \"You do not have privileges\");\n        projects[_projectId].approved = \"true\";\n    }\n\n    function rejectProject(uint256 _projectId) public {\n        require(msg.sender == admin, \"You do not have privileges\");\n        projects[_projectId].approved = \"false\";\n    }\n\n    function abortProject(uint _index) public {\n        require(projectOwners[_index] == msg.sender, \"Only project owner can abort project.\");\n\n\n        Project storage projectToDelete = projects[_index];\n\n        // Delete the project from the array\n        delete projects[_index];\n\n        // Delete the project data from storage\n        delete projectToDelete.title;\n        delete projectToDelete.description;\n        delete projectToDelete.startDate;\n        delete projectToDelete.endDate;\n        delete projectToDelete.amountToRaise;\n        delete projectToDelete.milestones;\n    }\n\n    function isProjectApproved(uint256 _projectId) public view returns (string memory) {\n        return projects[_projectId].approved;\n    }\n\n    function getProject(uint256 projectId) public view returns (Project memory) {\n        require(projectId < projects.length, \"Invalid project ID\");\n        return projects[projectId];\n    }\n\n\n    function getProjectDetails() public view returns (Project[] memory) {\n        uint256[] memory projectIds = projectsByOwner[msg.sender];\n        Project[] memory result = new Project[](projectIds.length);\n\n        for (uint256 i = 0; i < projectIds.length; i++) {\n            uint256 projectId = projectIds[i];\n            result[i] = projects[projectId];\n        }\n\n        return result;\n    }\n\n    function getAllProjects() public view returns (Project[] memory) {\n        \n        return projects;\n    }\n}\n",
  "sourcePath": "/home/mypc/Documents/mypc/Personal/B.E./uBE/Mega Project/Implementation/v 1.0/contracts/ProjectDetails.sol",
  "compiler": {
    "name": "solc",
    "version": "0.8.20+commit.a1b79de6.Emscripten.clang"
  },
  "schemaVersion": "3.4.13",
  "updatedAt": "2023-05-17T12:03:02.053Z",
  "devdoc": {
    "kind": "dev",
    "methods": {},
    "version": 1
  },
  "userdoc": {
    "kind": "user",
    "methods": {},
    "version": 1
  }
}