{
  "contractName": "ProjectDetails",
  "abi": [
    {
      "inputs": [
        {
          "internalType": "address",
          "name": "_admin",
          "type": "address"
        }
      ],
      "stateMutability": "nonpayable",
      "type": "constructor"
    },
    {
      "inputs": [],
      "name": "admin",
      "outputs": [
        {
          "internalType": "address",
          "name": "",
          "type": "address"
        }
      ],
      "stateMutability": "view",
      "type": "function",
      "constant": true
    },
    {
      "inputs": [
        {
          "internalType": "string",
          "name": "_title",
          "type": "string"
        },
        {
          "internalType": "string",
          "name": "_description",
          "type": "string"
        },
        {
          "internalType": "string",
          "name": "_startDate",
          "type": "string"
        },
        {
          "internalType": "string",
          "name": "_endDate",
          "type": "string"
        },
        {
          "internalType": "uint256",
          "name": "_amountToRaise",
          "type": "uint256"
        }
      ],
      "name": "createProject",
      "outputs": [],
      "stateMutability": "nonpayable",
      "type": "function"
    },
    {
      "inputs": [
        {
          "internalType": "uint256",
          "name": "_projectId",
          "type": "uint256"
        },
        {
          "internalType": "string[]",
          "name": "_milestones",
          "type": "string[]"
        }
      ],
      "name": "setMilestones",
      "outputs": [],
      "stateMutability": "nonpayable",
      "type": "function"
    },
    {
      "inputs": [],
      "name": "getCurrentProjectId",
      "outputs": [
        {
          "internalType": "uint256[]",
          "name": "",
          "type": "uint256[]"
        }
      ],
      "stateMutability": "view",
      "type": "function",
      "constant": true
    },
    {
      "inputs": [
        {
          "internalType": "uint256",
          "name": "_projectId",
          "type": "uint256"
        }
      ],
      "name": "approveProject",
      "outputs": [],
      "stateMutability": "nonpayable",
      "type": "function"
    },
    {
      "inputs": [
        {
          "internalType": "uint256",
          "name": "_projectId",
          "type": "uint256"
        }
      ],
      "name": "rejectProject",
      "outputs": [],
      "stateMutability": "nonpayable",
      "type": "function"
    },
    {
      "inputs": [
        {
          "internalType": "uint256",
          "name": "_index",
          "type": "uint256"
        }
      ],
      "name": "abortProject",
      "outputs": [],
      "stateMutability": "nonpayable",
      "type": "function"
    },
    {
      "inputs": [
        {
          "internalType": "uint256",
          "name": "_projectId",
          "type": "uint256"
        }
      ],
      "name": "isProjectApproved",
      "outputs": [
        {
          "internalType": "string",
          "name": "",
          "type": "string"
        }
      ],
      "stateMutability": "view",
      "type": "function",
      "constant": true
    },
    {
      "inputs": [],
      "name": "getProjectDetails",
      "outputs": [
        {
          "components": [
            {
              "internalType": "string",
              "name": "title",
              "type": "string"
            },
            {
              "internalType": "string",
              "name": "description",
              "type": "string"
            },
            {
              "internalType": "string",
              "name": "startDate",
              "type": "string"
            },
            {
              "internalType": "string",
              "name": "endDate",
              "type": "string"
            },
            {
              "internalType": "uint256",
              "name": "amountToRaise",
              "type": "uint256"
            },
            {
              "internalType": "string[]",
              "name": "milestones",
              "type": "string[]"
            },
            {
              "internalType": "string",
              "name": "approved",
              "type": "string"
            }
          ],
          "internalType": "struct ProjectDetails.Project[]",
          "name": "",
          "type": "tuple[]"
        }
      ],
      "stateMutability": "view",
      "type": "function",
      "constant": true
    },
    {
      "inputs": [],
      "name": "getAllProjects",
      "outputs": [
        {
          "components": [
            {
              "internalType": "string",
              "name": "title",
              "type": "string"
            },
            {
              "internalType": "string",
              "name": "description",
              "type": "string"
            },
            {
              "internalType": "string",
              "name": "startDate",
              "type": "string"
            },
            {
              "internalType": "string",
              "name": "endDate",
              "type": "string"
            },
            {
              "internalType": "uint256",
              "name": "amountToRaise",
              "type": "uint256"
            },
            {
              "internalType": "string[]",
              "name": "milestones",
              "type": "string[]"
            },
            {
              "internalType": "string",
              "name": "approved",
              "type": "string"
            }
          ],
          "internalType": "struct ProjectDetails.Project[]",
          "name": "",
          "type": "tuple[]"
        }
      ],
      "stateMutability": "view",
      "type": "function",
      "constant": true
    }
  ],
  "bytecode": "0x60806040523480156200001157600080fd5b5060405162002426380380620024268339818101604052810190620000379190620000e8565b806000806101000a81548173ffffffffffffffffffffffffffffffffffffffff021916908373ffffffffffffffffffffffffffffffffffffffff160217905550506200011a565b600080fd5b600073ffffffffffffffffffffffffffffffffffffffff82169050919050565b6000620000b08262000083565b9050919050565b620000c281620000a3565b8114620000ce57600080fd5b50565b600081519050620000e281620000b7565b92915050565b6000602082840312156200010157620001006200007e565b5b60006200011184828501620000d1565b91505092915050565b6122fc806200012a6000396000f3fe608060405234801561001057600080fd5b506004361061009e5760003560e01c8063a78c389a11610066578063a78c389a14610145578063c868ba9a14610161578063f851a4401461017f578063fc69d8361461019d578063ff3a9c7e146101b95761009e565b8063083b9bf9146100a357806369b04f19146100bf5780636c88163f146100db57806380d038291461010b578063a3bfb7bd14610129575b600080fd5b6100bd60048036038101906100b89190611720565b6101d7565b005b6100d960048036038101906100d4919061177c565b6102b6565b005b6100f560048036038101906100f0919061177c565b6103af565b6040516101029190611828565b60405180910390f35b610113610466565b6040516101209190611ae6565b60405180910390f35b610143600480360381019061013e919061177c565b610910565b005b61015f600480360381019061015a9190611b08565b610a41565b005b610169610c83565b6040516101769190611ca2565b60405180910390f35b610187610d18565b6040516101949190611d05565b60405180910390f35b6101b760048036038101906101b2919061177c565b610d3c565b005b6101c1610e35565b6040516101ce9190611ae6565b60405180910390f35b3373ffffffffffffffffffffffffffffffffffffffff166001600084815260200190815260200160002060009054906101000a900473ffffffffffffffffffffffffffffffffffffffff1673ffffffffffffffffffffffffffffffffffffffff1614610278576040517f08c379a000000000000000000000000000000000000000000000000000000000815260040161026f90611d92565b60405180910390fd5b806003838154811061028d5761028c611db2565b5b906000526020600020906007020160050190805190602001906102b1929190611372565b505050565b60008054906101000a900473ffffffffffffffffffffffffffffffffffffffff1673ffffffffffffffffffffffffffffffffffffffff163373ffffffffffffffffffffffffffffffffffffffff1614610344576040517f08c379a000000000000000000000000000000000000000000000000000000000815260040161033b90611e2d565b60405180910390fd5b6040518060400160405280600581526020017f66616c73650000000000000000000000000000000000000000000000000000008152506003828154811061038e5761038d611db2565b5b906000526020600020906007020160060190816103ab9190612059565b5050565b6060600382815481106103c5576103c4611db2565b5b906000526020600020906007020160060180546103e190611e7c565b80601f016020809104026020016040519081016040528092919081815260200182805461040d90611e7c565b801561045a5780601f1061042f5761010080835404028352916020019161045a565b820191906000526020600020905b81548152906001019060200180831161043d57829003601f168201915b50505050509050919050565b606060008054906101000a900473ffffffffffffffffffffffffffffffffffffffff1673ffffffffffffffffffffffffffffffffffffffff163373ffffffffffffffffffffffffffffffffffffffff16146104f6576040517f08c379a00000000000000000000000000000000000000000000000000000000081526004016104ed9061219d565b60405180910390fd5b6003805480602002602001604051908101604052809291908181526020016000905b8282101561090757838290600052602060002090600702016040518060e001604052908160008201805461054b90611e7c565b80601f016020809104026020016040519081016040528092919081815260200182805461057790611e7c565b80156105c45780601f10610599576101008083540402835291602001916105c4565b820191906000526020600020905b8154815290600101906020018083116105a757829003601f168201915b505050505081526020016001820180546105dd90611e7c565b80601f016020809104026020016040519081016040528092919081815260200182805461060990611e7c565b80156106565780601f1061062b57610100808354040283529160200191610656565b820191906000526020600020905b81548152906001019060200180831161063957829003601f168201915b5050505050815260200160028201805461066f90611e7c565b80601f016020809104026020016040519081016040528092919081815260200182805461069b90611e7c565b80156106e85780601f106106bd576101008083540402835291602001916106e8565b820191906000526020600020905b8154815290600101906020018083116106cb57829003601f168201915b5050505050815260200160038201805461070190611e7c565b80601f016020809104026020016040519081016040528092919081815260200182805461072d90611e7c565b801561077a5780601f1061074f5761010080835404028352916020019161077a565b820191906000526020600020905b81548152906001019060200180831161075d57829003601f168201915b505050505081526020016004820154815260200160058201805480602002602001604051908101604052809291908181526020016000905b8282101561085e5783829060005260206000200180546107d190611e7c565b80601f01602080910402602001604051908101604052809291908181526020018280546107fd90611e7c565b801561084a5780601f1061081f5761010080835404028352916020019161084a565b820191906000526020600020905b81548152906001019060200180831161082d57829003601f168201915b5050505050815260200190600101906107b2565b50505050815260200160068201805461087690611e7c565b80601f01602080910402602001604051908101604052809291908181526020018280546108a290611e7c565b80156108ef5780601f106108c4576101008083540402835291602001916108ef565b820191906000526020600020905b8154815290600101906020018083116108d257829003601f168201915b50505050508152505081526020019060010190610518565b50505050905090565b3373ffffffffffffffffffffffffffffffffffffffff166001600083815260200190815260200160002060009054906101000a900473ffffffffffffffffffffffffffffffffffffffff1673ffffffffffffffffffffffffffffffffffffffff16146109b1576040517f08c379a00000000000000000000000000000000000000000000000000000000081526004016109a89061222f565b60405180910390fd5b600381815481106109c5576109c4611db2565b5b9060005260206000209060070201600080820160006109e491906113cb565b6001820160006109f491906113cb565b600282016000610a0491906113cb565b600382016000610a1491906113cb565b6004820160009055600582016000610a2c919061140b565b600682016000610a3c91906113cb565b505050565b6000600380549050905060036040518060e00160405280888152602001878152602001868152602001858152602001848152602001600067ffffffffffffffff811115610a9157610a9061150a565b5b604051908082528060200260200182016040528015610ac457816020015b6060815260200190600190039081610aaf5790505b5081526020016040518060400160405280600781526020017f6e6f74207365740000000000000000000000000000000000000000000000000081525081525090806001815401808255809150506001900390600052602060002090600702016000909190919091506000820151816000019081610b419190612059565b506020820151816001019081610b579190612059565b506040820151816002019081610b6d9190612059565b506060820151816003019081610b839190612059565b506080820151816004015560a0820151816005019080519060200190610baa929190611372565b5060c0820151816006019081610bc09190612059565b505050336001600083815260200190815260200160002060006101000a81548173ffffffffffffffffffffffffffffffffffffffff021916908373ffffffffffffffffffffffffffffffffffffffff160217905550600260003373ffffffffffffffffffffffffffffffffffffffff1673ffffffffffffffffffffffffffffffffffffffff168152602001908152602001600020819080600181540180825580915050600190039060005260206000200160009091909190915055505050505050565b6060600260003373ffffffffffffffffffffffffffffffffffffffff1673ffffffffffffffffffffffffffffffffffffffff168152602001908152602001600020805480602002602001604051908101604052809291908181526020018280548015610d0e57602002820191906000526020600020905b815481526020019060010190808311610cfa575b5050505050905090565b60008054906101000a900473ffffffffffffffffffffffffffffffffffffffff1681565b60008054906101000a900473ffffffffffffffffffffffffffffffffffffffff1673ffffffffffffffffffffffffffffffffffffffff163373ffffffffffffffffffffffffffffffffffffffff1614610dca576040517f08c379a0000000000000000000000000000000000000000000000000000000008152600401610dc190611e2d565b60405180910390fd5b6040518060400160405280600481526020017f747275650000000000000000000000000000000000000000000000000000000081525060038281548110610e1457610e13611db2565b5b90600052602060002090600702016006019081610e319190612059565b5050565b60606000600260003373ffffffffffffffffffffffffffffffffffffffff1673ffffffffffffffffffffffffffffffffffffffff168152602001908152602001600020805480602002602001604051908101604052809291908181526020018280548015610ec257602002820191906000526020600020905b815481526020019060010190808311610eae575b505050505090506000815167ffffffffffffffff811115610ee657610ee561150a565b5b604051908082528060200260200182016040528015610f1f57816020015b610f0c61142c565b815260200190600190039081610f045790505b50905060005b8251811015611369576000838281518110610f4357610f42611db2565b5b6020026020010151905060038181548110610f6157610f60611db2565b5b90600052602060002090600702016040518060e0016040529081600082018054610f8a90611e7c565b80601f0160208091040260200160405190810160405280929190818152602001828054610fb690611e7c565b80156110035780601f10610fd857610100808354040283529160200191611003565b820191906000526020600020905b815481529060010190602001808311610fe657829003601f168201915b5050505050815260200160018201805461101c90611e7c565b80601f016020809104026020016040519081016040528092919081815260200182805461104890611e7c565b80156110955780601f1061106a57610100808354040283529160200191611095565b820191906000526020600020905b81548152906001019060200180831161107857829003601f168201915b505050505081526020016002820180546110ae90611e7c565b80601f01602080910402602001604051908101604052809291908181526020018280546110da90611e7c565b80156111275780601f106110fc57610100808354040283529160200191611127565b820191906000526020600020905b81548152906001019060200180831161110a57829003601f168201915b5050505050815260200160038201805461114090611e7c565b80601f016020809104026020016040519081016040528092919081815260200182805461116c90611e7c565b80156111b95780601f1061118e576101008083540402835291602001916111b9565b820191906000526020600020905b81548152906001019060200180831161119c57829003601f168201915b505050505081526020016004820154815260200160058201805480602002602001604051908101604052809291908181526020016000905b8282101561129d57838290600052602060002001805461121090611e7c565b80601f016020809104026020016040519081016040528092919081815260200182805461123c90611e7c565b80156112895780601f1061125e57610100808354040283529160200191611289565b820191906000526020600020905b81548152906001019060200180831161126c57829003601f168201915b5050505050815260200190600101906111f1565b5050505081526020016006820180546112b590611e7c565b80601f01602080910402602001604051908101604052809291908181526020018280546112e190611e7c565b801561132e5780601f106113035761010080835404028352916020019161132e565b820191906000526020600020905b81548152906001019060200180831161131157829003601f168201915b50505050508152505083838151811061134a57611349611db2565b5b60200260200101819052505080806113619061227e565b915050610f25565b50809250505090565b8280548282559060005260206000209081019282156113ba579160200282015b828111156113b95782518290816113a99190612059565b5091602001919060010190611392565b5b5090506113c79190611469565b5090565b5080546113d790611e7c565b6000825580601f106113e95750611408565b601f016020900490600052602060002090810190611407919061148d565b5b50565b50805460008255906000526020600020908101906114299190611469565b50565b6040518060e00160405280606081526020016060815260200160608152602001606081526020016000815260200160608152602001606081525090565b5b80821115611489576000818161148091906113cb565b5060010161146a565b5090565b5b808211156114a657600081600090555060010161148e565b5090565b6000604051905090565b600080fd5b600080fd5b6000819050919050565b6114d1816114be565b81146114dc57600080fd5b50565b6000813590506114ee816114c8565b92915050565b600080fd5b6000601f19601f8301169050919050565b7f4e487b7100000000000000000000000000000000000000000000000000000000600052604160045260246000fd5b611542826114f9565b810181811067ffffffffffffffff821117156115615761156061150a565b5b80604052505050565b60006115746114aa565b90506115808282611539565b919050565b600067ffffffffffffffff8211156115a05761159f61150a565b5b602082029050602081019050919050565b600080fd5b600080fd5b600067ffffffffffffffff8211156115d6576115d561150a565b5b6115df826114f9565b9050602081019050919050565b82818337600083830152505050565b600061160e611609846115bb565b61156a565b90508281526020810184848401111561162a576116296115b6565b5b6116358482856115ec565b509392505050565b600082601f830112611652576116516114f4565b5b81356116628482602086016115fb565b91505092915050565b600061167e61167984611585565b61156a565b905080838252602082019050602084028301858111156116a1576116a06115b1565b5b835b818110156116e857803567ffffffffffffffff8111156116c6576116c56114f4565b5b8086016116d3898261163d565b855260208501945050506020810190506116a3565b5050509392505050565b600082601f830112611707576117066114f4565b5b813561171784826020860161166b565b91505092915050565b60008060408385031215611737576117366114b4565b5b6000611745858286016114df565b925050602083013567ffffffffffffffff811115611766576117656114b9565b5b611772858286016116f2565b9150509250929050565b600060208284031215611792576117916114b4565b5b60006117a0848285016114df565b91505092915050565b600081519050919050565b600082825260208201905092915050565b60005b838110156117e35780820151818401526020810190506117c8565b60008484015250505050565b60006117fa826117a9565b61180481856117b4565b93506118148185602086016117c5565b61181d816114f9565b840191505092915050565b6000602082019050818103600083015261184281846117ef565b905092915050565b600081519050919050565b600082825260208201905092915050565b6000819050602082019050919050565b600082825260208201905092915050565b6000611892826117a9565b61189c8185611876565b93506118ac8185602086016117c5565b6118b5816114f9565b840191505092915050565b6118c9816114be565b82525050565b600081519050919050565b600082825260208201905092915050565b6000819050602082019050919050565b60006119078383611887565b905092915050565b6000602082019050919050565b6000611927826118cf565b61193181856118da565b935083602082028501611943856118eb565b8060005b8581101561197f578484038952815161196085826118fb565b945061196b8361190f565b925060208a01995050600181019050611947565b50829750879550505050505092915050565b600060e08301600083015184820360008601526119ae8282611887565b915050602083015184820360208601526119c88282611887565b915050604083015184820360408601526119e28282611887565b915050606083015184820360608601526119fc8282611887565b9150506080830151611a1160808601826118c0565b5060a083015184820360a0860152611a29828261191c565b91505060c083015184820360c0860152611a438282611887565b9150508091505092915050565b6000611a5c8383611991565b905092915050565b6000602082019050919050565b6000611a7c8261184a565b611a868185611855565b935083602082028501611a9885611866565b8060005b85811015611ad45784840389528151611ab58582611a50565b9450611ac083611a64565b925060208a01995050600181019050611a9c565b50829750879550505050505092915050565b60006020820190508181036000830152611b008184611a71565b905092915050565b600080600080600060a08688031215611b2457611b236114b4565b5b600086013567ffffffffffffffff811115611b4257611b416114b9565b5b611b4e8882890161163d565b955050602086013567ffffffffffffffff811115611b6f57611b6e6114b9565b5b611b7b8882890161163d565b945050604086013567ffffffffffffffff811115611b9c57611b9b6114b9565b5b611ba88882890161163d565b935050606086013567ffffffffffffffff811115611bc957611bc86114b9565b5b611bd58882890161163d565b9250506080611be6888289016114df565b9150509295509295909350565b600081519050919050565b600082825260208201905092915050565b6000819050602082019050919050565b6000611c2b83836118c0565b60208301905092915050565b6000602082019050919050565b6000611c4f82611bf3565b611c598185611bfe565b9350611c6483611c0f565b8060005b83811015611c95578151611c7c8882611c1f565b9750611c8783611c37565b925050600181019050611c68565b5085935050505092915050565b60006020820190508181036000830152611cbc8184611c44565b905092915050565b600073ffffffffffffffffffffffffffffffffffffffff82169050919050565b6000611cef82611cc4565b9050919050565b611cff81611ce4565b82525050565b6000602082019050611d1a6000830184611cf6565b92915050565b7f4f6e6c792070726f6a656374206f776e65722063616e20736574206d696c657360008201527f746f6e65732e0000000000000000000000000000000000000000000000000000602082015250565b6000611d7c6026836117b4565b9150611d8782611d20565b604082019050919050565b60006020820190508181036000830152611dab81611d6f565b9050919050565b7f4e487b7100000000000000000000000000000000000000000000000000000000600052603260045260246000fd5b7f596f7520646f206e6f7420686176652070726976696c65676573000000000000600082015250565b6000611e17601a836117b4565b9150611e2282611de1565b602082019050919050565b60006020820190508181036000830152611e4681611e0a565b9050919050565b7f4e487b7100000000000000000000000000000000000000000000000000000000600052602260045260246000fd5b60006002820490506001821680611e9457607f821691505b602082108103611ea757611ea6611e4d565b5b50919050565b60008190508160005260206000209050919050565b60006020601f8301049050919050565b600082821b905092915050565b600060088302611f0f7fffffffffffffffffffffffffffffffffffffffffffffffffffffffffffffffff82611ed2565b611f198683611ed2565b95508019841693508086168417925050509392505050565b6000819050919050565b6000611f56611f51611f4c846114be565b611f31565b6114be565b9050919050565b6000819050919050565b611f7083611f3b565b611f84611f7c82611f5d565b848454611edf565b825550505050565b600090565b611f99611f8c565b611fa4818484611f67565b505050565b5b81811015611fc857611fbd600082611f91565b600181019050611faa565b5050565b601f82111561200d57611fde81611ead565b611fe784611ec2565b81016020851015611ff6578190505b61200a61200285611ec2565b830182611fa9565b50505b505050565b600082821c905092915050565b600061203060001984600802612012565b1980831691505092915050565b6000612049838361201f565b9150826002028217905092915050565b612062826117a9565b67ffffffffffffffff81111561207b5761207a61150a565b5b6120858254611e7c565b612090828285611fcc565b600060209050601f8311600181146120c357600084156120b1578287015190505b6120bb858261203d565b865550612123565b601f1984166120d186611ead565b60005b828110156120f9578489015182556001820191506020850194506020810190506120d4565b868310156121165784890151612112601f89168261201f565b8355505b6001600288020188555050505b505050505050565b7f4f6e6c792061646d696e2063616e206163636573732074686973206d6574686f60008201527f642e000000000000000000000000000000000000000000000000000000000000602082015250565b60006121876022836117b4565b91506121928261212b565b604082019050919050565b600060208201905081810360008301526121b68161217a565b9050919050565b7f4f6e6c792070726f6a656374206f776e65722063616e2061626f72742070726f60008201527f6a6563742e000000000000000000000000000000000000000000000000000000602082015250565b60006122196025836117b4565b9150612224826121bd565b604082019050919050565b600060208201905081810360008301526122488161220c565b9050919050565b7f4e487b7100000000000000000000000000000000000000000000000000000000600052601160045260246000fd5b6000612289826114be565b91507fffffffffffffffffffffffffffffffffffffffffffffffffffffffffffffffff82036122bb576122ba61224f565b5b60018201905091905056fea2646970667358221220011f7470109f588fd334365f8b698806d946072e7bbfbf4bc74f275f852a158664736f6c63430008130033",
  "immutableReferences": {},
  "source": "//SPDX-License-Identifier: UNLICENSED\npragma solidity >=0.6.0 < 0.9.0;\n\n// ----------------------1ST CONTRACT----------------------//\n// contract ProjectDetails {\n//     struct Project {\n//         string title;\n//         string description;\n//         string startDate;\n//         string endDate;\n//         uint256 amountToBeRaised;\n//     }\n\n//     mapping(address => Project) private projects;\n\n//     // Function to store project details\n//     function createProject(\n//         string memory _title,\n//         string memory _description,\n//         string memory _startDate,\n//         string memory _endDate,\n//         uint256 _amountToBeRaised\n//     ) public {\n//         require(bytes(_title).length > 0, \"Title is required\");\n//         require(bytes(_description).length > 0, \"Description is required\");\n//         require(bytes(_startDate).length > 0, \"Start date iitems required\");\n//         require(bytes(_endDate).length > 0, \"End date must be greater than start date\");\n//         require(_amountToBeRaised > 0, \"Amount to be raised must be greater than zero\");\n\n//         Project memory newProject = Project(\n//             _title,\n//             _description,\n//             _startDate,\n//             _endDate,\n//             _amountToBeRaised\n//         );\n\n//         projects[msg.sender] = newProject;\n//     }\n\n//     // Function to retrieve project details\n//     function getProjectDetails() public view returns (Project memory) {\n//         Project memory project = projects[msg.sender];\n\n//         return project;\n//     }\n// }\n\n// ----------------------2ND CONTRACT----------------------//\n\ncontract ProjectDetails {\n    struct Project {\n        string title;\n        string description;\n        string startDate;\n        string endDate;\n        uint256 amountToRaise;\n        string[] milestones;\n        string approved;\n    }\n\n    address public admin;\n\n    mapping(uint256 => address) private projectOwners;\n    mapping(address => uint256[]) private projectsByOwner;\n\n    Project[] private projects;\n\n    constructor(address _admin) {\n        admin = _admin;\n    }\n\n    function createProject(string memory _title, string memory _description, string memory _startDate, string memory _endDate, uint256 _amountToRaise) public {\n        uint256 projectId = projects.length;\n        projects.push(Project(_title, _description, _startDate, _endDate, _amountToRaise, new string[](0), \"not set\"));\n        projectOwners[projectId] = msg.sender;\n        projectsByOwner[msg.sender].push(projectId);\n    }\n\n    function setMilestones(uint256 _projectId, string[] memory _milestones) public {\n        require(projectOwners[_projectId] == msg.sender, \"Only project owner can set milestones.\");\n        projects[_projectId].milestones = _milestones;\n    }\n\n    function getCurrentProjectId() public view returns (uint256[] memory) {\n        return projectsByOwner[msg.sender];\n    }\n\n    function approveProject(uint256 _projectId) public {\n        require(msg.sender == admin, \"You do not have privileges\");\n        projects[_projectId].approved = \"true\";\n    }\n\n    function rejectProject(uint256 _projectId) public {\n        require(msg.sender == admin, \"You do not have privileges\");\n        projects[_projectId].approved = \"false\";\n    }\n\n    function abortProject(uint _index) public {\n        require(projectOwners[_index] == msg.sender, \"Only project owner can abort project.\");\n        delete projects[_index];\n    }\n\n    function isProjectApproved(uint256 _projectId) public view returns (string memory) {\n        return projects[_projectId].approved;\n    }\n\n\n    function getProjectDetails() public view returns (Project[] memory) {\n        uint256[] memory projectIds = projectsByOwner[msg.sender];\n        Project[] memory result = new Project[](projectIds.length);\n\n        for (uint256 i = 0; i < projectIds.length; i++) {\n            uint256 projectId = projectIds[i];\n            result[i] = projects[projectId];\n        }\n\n        return result;\n    }\n\n    function getAllProjects() public view returns (Project[] memory) {\n        require(msg.sender == admin, \"Only admin can access this method.\");\n        \n        return projects;\n    }\n}\n\n",
  "sourcePath": "/home/mypc/Documents/mypc/Personal/B.E./uBE/Mega Project/Implementation/v 1.0/contracts/ProjectDetails.sol",
  "compiler": {
    "name": "solc",
    "version": "0.8.19+commit.7dd6d404.Emscripten.clang"
  },
  "schemaVersion": "3.4.10",
  "updatedAt": "2023-05-01T06:18:53.191Z",
  "networkType": "ethereum",
  "devdoc": {
    "kind": "dev",
    "methods": {},
    "version": 1
  },
  "userdoc": {
    "kind": "user",
    "methods": {},
    "version": 1
  }
}