{
  "contractName": "ProjectDetails",
  "abi": [
    {
      "inputs": [
        {
          "internalType": "string",
          "name": "_title",
          "type": "string"
        },
        {
          "internalType": "string",
          "name": "_description",
          "type": "string"
        },
        {
          "internalType": "string",
          "name": "_startDate",
          "type": "string"
        },
        {
          "internalType": "string",
          "name": "_endDate",
          "type": "string"
        },
        {
          "internalType": "uint256",
          "name": "_amountToRaise",
          "type": "uint256"
        }
      ],
      "name": "createProject",
      "outputs": [],
      "stateMutability": "nonpayable",
      "type": "function"
    },
    {
      "inputs": [
        {
          "internalType": "uint256",
          "name": "_projectId",
          "type": "uint256"
        },
        {
          "internalType": "string[]",
          "name": "_milestones",
          "type": "string[]"
        }
      ],
      "name": "setMilestones",
      "outputs": [],
      "stateMutability": "nonpayable",
      "type": "function"
    },
    {
      "inputs": [],
      "name": "getCurrentProjectId",
      "outputs": [
        {
          "internalType": "uint256[]",
          "name": "",
          "type": "uint256[]"
        }
      ],
      "stateMutability": "view",
      "type": "function",
      "constant": true
    },
    {
      "inputs": [
        {
          "internalType": "uint256",
          "name": "_projectId",
          "type": "uint256"
        }
      ],
      "name": "approveProject",
      "outputs": [],
      "stateMutability": "nonpayable",
      "type": "function"
    },
    {
      "inputs": [
        {
          "internalType": "uint256",
          "name": "_projectId",
          "type": "uint256"
        }
      ],
      "name": "rejectProject",
      "outputs": [],
      "stateMutability": "nonpayable",
      "type": "function"
    },
    {
      "inputs": [
        {
          "internalType": "uint256",
          "name": "_projectId",
          "type": "uint256"
        }
      ],
      "name": "isProjectApproved",
      "outputs": [
        {
          "internalType": "bool",
          "name": "",
          "type": "bool"
        }
      ],
      "stateMutability": "view",
      "type": "function",
      "constant": true
    },
    {
      "inputs": [],
      "name": "getProjectDetails",
      "outputs": [
        {
          "components": [
            {
              "internalType": "string",
              "name": "title",
              "type": "string"
            },
            {
              "internalType": "string",
              "name": "description",
              "type": "string"
            },
            {
              "internalType": "string",
              "name": "startDate",
              "type": "string"
            },
            {
              "internalType": "string",
              "name": "endDate",
              "type": "string"
            },
            {
              "internalType": "uint256",
              "name": "amountToRaise",
              "type": "uint256"
            },
            {
              "internalType": "string[]",
              "name": "milestones",
              "type": "string[]"
            },
            {
              "internalType": "bool",
              "name": "approved",
              "type": "bool"
            }
          ],
          "internalType": "struct ProjectDetails.Project[]",
          "name": "",
          "type": "tuple[]"
        }
      ],
      "stateMutability": "view",
      "type": "function",
      "constant": true
    }
  ],
  "bytecode": "0x608060405234801561001057600080fd5b5061197c806100206000396000f3fe608060405234801561001057600080fd5b506004361061007d5760003560e01c8063a78c389a1161005b578063a78c389a146100ea578063c868ba9a14610106578063fc69d83614610124578063ff3a9c7e146101405761007d565b8063083b9bf91461008257806369b04f191461009e5780636c88163f146100ba575b600080fd5b61009c60048036038101906100979190610f3d565b61015e565b005b6100b860048036038101906100b39190610f99565b61023c565b005b6100d460048036038101906100cf9190610f99565b61031d565b6040516100e19190610fe1565b60405180910390f35b61010460048036038101906100ff9190610ffc565b610359565b005b61010e610572565b60405161011b91906111a5565b60405180910390f35b61013e60048036038101906101399190610f99565b610607565b005b6101486106e8565b6040516101559190611491565b60405180910390f35b3373ffffffffffffffffffffffffffffffffffffffff1660008084815260200190815260200160002060009054906101000a900473ffffffffffffffffffffffffffffffffffffffff1673ffffffffffffffffffffffffffffffffffffffff16146101fe576040517f08c379a00000000000000000000000000000000000000000000000000000000081526004016101f590611536565b60405180910390fd5b806002838154811061021357610212611556565b5b90600052602060002090600702016005019080519060200190610237929190610bae565b505050565b3373ffffffffffffffffffffffffffffffffffffffff1660008083815260200190815260200160002060009054906101000a900473ffffffffffffffffffffffffffffffffffffffff1673ffffffffffffffffffffffffffffffffffffffff16146102dc576040517f08c379a00000000000000000000000000000000000000000000000000000000081526004016102d3906115d1565b60405180910390fd5b6000600282815481106102f2576102f1611556565b5b906000526020600020906007020160060160006101000a81548160ff02191690831515021790555050565b60006002828154811061033357610332611556565b5b906000526020600020906007020160060160009054906101000a900460ff169050919050565b6000600280549050905060026040518060e00160405280888152602001878152602001868152602001858152602001848152602001600067ffffffffffffffff8111156103a9576103a8610d27565b5b6040519080825280602002602001820160405280156103dc57816020015b60608152602001906001900390816103c75790505b508152602001600015158152509080600181540180825580915050600190039060005260206000209060070201600090919091909150600082015181600001908161042791906117fd565b50602082015181600101908161043d91906117fd565b50604082015181600201908161045391906117fd565b50606082015181600301908161046991906117fd565b506080820151816004015560a0820151816005019080519060200190610490929190610bae565b5060c08201518160060160006101000a81548160ff02191690831515021790555050503360008083815260200190815260200160002060006101000a81548173ffffffffffffffffffffffffffffffffffffffff021916908373ffffffffffffffffffffffffffffffffffffffff160217905550600160003373ffffffffffffffffffffffffffffffffffffffff1673ffffffffffffffffffffffffffffffffffffffff168152602001908152602001600020819080600181540180825580915050600190039060005260206000200160009091909190915055505050505050565b6060600160003373ffffffffffffffffffffffffffffffffffffffff1673ffffffffffffffffffffffffffffffffffffffff1681526020019081526020016000208054806020026020016040519081016040528092919081815260200182805480156105fd57602002820191906000526020600020905b8154815260200190600101908083116105e9575b5050505050905090565b3373ffffffffffffffffffffffffffffffffffffffff1660008083815260200190815260200160002060009054906101000a900473ffffffffffffffffffffffffffffffffffffffff1673ffffffffffffffffffffffffffffffffffffffff16146106a7576040517f08c379a000000000000000000000000000000000000000000000000000000000815260040161069e906115d1565b60405180910390fd5b6001600282815481106106bd576106bc611556565b5b906000526020600020906007020160060160006101000a81548160ff02191690831515021790555050565b60606000600160003373ffffffffffffffffffffffffffffffffffffffff1673ffffffffffffffffffffffffffffffffffffffff16815260200190815260200160002080548060200260200160405190810160405280929190818152602001828054801561077557602002820191906000526020600020905b815481526020019060010190808311610761575b505050505090506000815167ffffffffffffffff81111561079957610798610d27565b5b6040519080825280602002602001820160405280156107d257816020015b6107bf610c07565b8152602001906001900390816107b75790505b50905060005b8251811015610ba55760008382815181106107f6576107f5611556565b5b602002602001015190506002818154811061081457610813611556565b5b90600052602060002090600702016040518060e001604052908160008201805461083d90611620565b80601f016020809104026020016040519081016040528092919081815260200182805461086990611620565b80156108b65780601f1061088b576101008083540402835291602001916108b6565b820191906000526020600020905b81548152906001019060200180831161089957829003601f168201915b505050505081526020016001820180546108cf90611620565b80601f01602080910402602001604051908101604052809291908181526020018280546108fb90611620565b80156109485780601f1061091d57610100808354040283529160200191610948565b820191906000526020600020905b81548152906001019060200180831161092b57829003601f168201915b5050505050815260200160028201805461096190611620565b80601f016020809104026020016040519081016040528092919081815260200182805461098d90611620565b80156109da5780601f106109af576101008083540402835291602001916109da565b820191906000526020600020905b8154815290600101906020018083116109bd57829003601f168201915b505050505081526020016003820180546109f390611620565b80601f0160208091040260200160405190810160405280929190818152602001828054610a1f90611620565b8015610a6c5780601f10610a4157610100808354040283529160200191610a6c565b820191906000526020600020905b815481529060010190602001808311610a4f57829003601f168201915b505050505081526020016004820154815260200160058201805480602002602001604051908101604052809291908181526020016000905b82821015610b50578382906000526020600020018054610ac390611620565b80601f0160208091040260200160405190810160405280929190818152602001828054610aef90611620565b8015610b3c5780601f10610b1157610100808354040283529160200191610b3c565b820191906000526020600020905b815481529060010190602001808311610b1f57829003601f168201915b505050505081526020019060010190610aa4565b5050505081526020016006820160009054906101000a900460ff161515151581525050838381518110610b8657610b85611556565b5b6020026020010181905250508080610b9d906118fe565b9150506107d8565b50809250505090565b828054828255906000526020600020908101928215610bf6579160200282015b82811115610bf5578251829081610be591906117fd565b5091602001919060010190610bce565b5b509050610c039190610c46565b5090565b6040518060e001604052806060815260200160608152602001606081526020016060815260200160008152602001606081526020016000151581525090565b5b80821115610c665760008181610c5d9190610c6a565b50600101610c47565b5090565b508054610c7690611620565b6000825580601f10610c885750610ca7565b601f016020900490600052602060002090810190610ca69190610caa565b5b50565b5b80821115610cc3576000816000905550600101610cab565b5090565b6000604051905090565b600080fd5b600080fd5b6000819050919050565b610cee81610cdb565b8114610cf957600080fd5b50565b600081359050610d0b81610ce5565b92915050565b600080fd5b6000601f19601f8301169050919050565b7f4e487b7100000000000000000000000000000000000000000000000000000000600052604160045260246000fd5b610d5f82610d16565b810181811067ffffffffffffffff82111715610d7e57610d7d610d27565b5b80604052505050565b6000610d91610cc7565b9050610d9d8282610d56565b919050565b600067ffffffffffffffff821115610dbd57610dbc610d27565b5b602082029050602081019050919050565b600080fd5b600080fd5b600067ffffffffffffffff821115610df357610df2610d27565b5b610dfc82610d16565b9050602081019050919050565b82818337600083830152505050565b6000610e2b610e2684610dd8565b610d87565b905082815260208101848484011115610e4757610e46610dd3565b5b610e52848285610e09565b509392505050565b600082601f830112610e6f57610e6e610d11565b5b8135610e7f848260208601610e18565b91505092915050565b6000610e9b610e9684610da2565b610d87565b90508083825260208201905060208402830185811115610ebe57610ebd610dce565b5b835b81811015610f0557803567ffffffffffffffff811115610ee357610ee2610d11565b5b808601610ef08982610e5a565b85526020850194505050602081019050610ec0565b5050509392505050565b600082601f830112610f2457610f23610d11565b5b8135610f34848260208601610e88565b91505092915050565b60008060408385031215610f5457610f53610cd1565b5b6000610f6285828601610cfc565b925050602083013567ffffffffffffffff811115610f8357610f82610cd6565b5b610f8f85828601610f0f565b9150509250929050565b600060208284031215610faf57610fae610cd1565b5b6000610fbd84828501610cfc565b91505092915050565b60008115159050919050565b610fdb81610fc6565b82525050565b6000602082019050610ff66000830184610fd2565b92915050565b600080600080600060a0868803121561101857611017610cd1565b5b600086013567ffffffffffffffff81111561103657611035610cd6565b5b61104288828901610e5a565b955050602086013567ffffffffffffffff81111561106357611062610cd6565b5b61106f88828901610e5a565b945050604086013567ffffffffffffffff8111156110905761108f610cd6565b5b61109c88828901610e5a565b935050606086013567ffffffffffffffff8111156110bd576110bc610cd6565b5b6110c988828901610e5a565b92505060806110da88828901610cfc565b9150509295509295909350565b600081519050919050565b600082825260208201905092915050565b6000819050602082019050919050565b61111c81610cdb565b82525050565b600061112e8383611113565b60208301905092915050565b6000602082019050919050565b6000611152826110e7565b61115c81856110f2565b935061116783611103565b8060005b8381101561119857815161117f8882611122565b975061118a8361113a565b92505060018101905061116b565b5085935050505092915050565b600060208201905081810360008301526111bf8184611147565b905092915050565b600081519050919050565b600082825260208201905092915050565b6000819050602082019050919050565b600081519050919050565b600082825260208201905092915050565b60005b8381101561122d578082015181840152602081019050611212565b60008484015250505050565b6000611244826111f3565b61124e81856111fe565b935061125e81856020860161120f565b61126781610d16565b840191505092915050565b600081519050919050565b600082825260208201905092915050565b6000819050602082019050919050565b60006112aa8383611239565b905092915050565b6000602082019050919050565b60006112ca82611272565b6112d4818561127d565b9350836020820285016112e68561128e565b8060005b858110156113225784840389528151611303858261129e565b945061130e836112b2565b925060208a019950506001810190506112ea565b50829750879550505050505092915050565b61133d81610fc6565b82525050565b600060e08301600083015184820360008601526113608282611239565b9150506020830151848203602086015261137a8282611239565b915050604083015184820360408601526113948282611239565b915050606083015184820360608601526113ae8282611239565b91505060808301516113c36080860182611113565b5060a083015184820360a08601526113db82826112bf565b91505060c08301516113f060c0860182611334565b508091505092915050565b60006114078383611343565b905092915050565b6000602082019050919050565b6000611427826111c7565b61143181856111d2565b935083602082028501611443856111e3565b8060005b8581101561147f578484038952815161146085826113fb565b945061146b8361140f565b925060208a01995050600181019050611447565b50829750879550505050505092915050565b600060208201905081810360008301526114ab818461141c565b905092915050565b600082825260208201905092915050565b7f4f6e6c792070726f6a656374206f776e65722063616e20736574206d696c657360008201527f746f6e65732e0000000000000000000000000000000000000000000000000000602082015250565b60006115206026836114b3565b915061152b826114c4565b604082019050919050565b6000602082019050818103600083015261154f81611513565b9050919050565b7f4e487b7100000000000000000000000000000000000000000000000000000000600052603260045260246000fd5b7f596f7520646f206e6f74206f776e20746869732070726f6a6563740000000000600082015250565b60006115bb601b836114b3565b91506115c682611585565b602082019050919050565b600060208201905081810360008301526115ea816115ae565b9050919050565b7f4e487b7100000000000000000000000000000000000000000000000000000000600052602260045260246000fd5b6000600282049050600182168061163857607f821691505b60208210810361164b5761164a6115f1565b5b50919050565b60008190508160005260206000209050919050565b60006020601f8301049050919050565b600082821b905092915050565b6000600883026116b37fffffffffffffffffffffffffffffffffffffffffffffffffffffffffffffffff82611676565b6116bd8683611676565b95508019841693508086168417925050509392505050565b6000819050919050565b60006116fa6116f56116f084610cdb565b6116d5565b610cdb565b9050919050565b6000819050919050565b611714836116df565b61172861172082611701565b848454611683565b825550505050565b600090565b61173d611730565b61174881848461170b565b505050565b5b8181101561176c57611761600082611735565b60018101905061174e565b5050565b601f8211156117b15761178281611651565b61178b84611666565b8101602085101561179a578190505b6117ae6117a685611666565b83018261174d565b50505b505050565b600082821c905092915050565b60006117d4600019846008026117b6565b1980831691505092915050565b60006117ed83836117c3565b9150826002028217905092915050565b611806826111f3565b67ffffffffffffffff81111561181f5761181e610d27565b5b6118298254611620565b611834828285611770565b600060209050601f8311600181146118675760008415611855578287015190505b61185f85826117e1565b8655506118c7565b601f19841661187586611651565b60005b8281101561189d57848901518255600182019150602085019450602081019050611878565b868310156118ba57848901516118b6601f8916826117c3565b8355505b6001600288020188555050505b505050505050565b7f4e487b7100000000000000000000000000000000000000000000000000000000600052601160045260246000fd5b600061190982610cdb565b91507fffffffffffffffffffffffffffffffffffffffffffffffffffffffffffffffff820361193b5761193a6118cf565b5b60018201905091905056fea264697066735822122011e30e980f0fa7231ad6a83a0bdc5deb4d567be9b92c5cdba16ab776e002c2aa64736f6c63430008130033",
  "immutableReferences": {},
  "source": "//SPDX-License-Identifier: UNLICENSED\npragma solidity >=0.6.0 < 0.9.0;\n\n// ----------------------1ST CONTRACT----------------------//\n// contract ProjectDetails {\n//     struct Project {\n//         string title;\n//         string description;\n//         string startDate;\n//         string endDate;\n//         uint256 amountToBeRaised;\n//     }\n\n//     mapping(address => Project) private projects;\n\n//     // Function to store project details\n//     function createProject(\n//         string memory _title,\n//         string memory _description,\n//         string memory _startDate,\n//         string memory _endDate,\n//         uint256 _amountToBeRaised\n//     ) public {\n//         require(bytes(_title).length > 0, \"Title is required\");\n//         require(bytes(_description).length > 0, \"Description is required\");\n//         require(bytes(_startDate).length > 0, \"Start date iitems required\");\n//         require(bytes(_endDate).length > 0, \"End date must be greater than start date\");\n//         require(_amountToBeRaised > 0, \"Amount to be raised must be greater than zero\");\n\n//         Project memory newProject = Project(\n//             _title,\n//             _description,\n//             _startDate,\n//             _endDate,\n//             _amountToBeRaised\n//         );\n\n//         projects[msg.sender] = newProject;\n//     }\n\n//     // Function to retrieve project details\n//     function getProjectDetails() public view returns (Project memory) {\n//         Project memory project = projects[msg.sender];\n\n//         return project;\n//     }\n// }\n\n// ----------------------2ND CONTRACT----------------------//\n\ncontract ProjectDetails {\n    struct Project {\n        string title;\n        string description;\n        string startDate;\n        string endDate;\n        uint256 amountToRaise;\n        string[] milestones;\n        bool approved;\n    }\n\n    mapping(uint256 => address) private projectOwners;\n    mapping(address => uint256[]) private projectsByOwner;\n\n    Project[] private projects;\n\n    function createProject(string memory _title, string memory _description, string memory _startDate, string memory _endDate, uint256 _amountToRaise) public {\n        uint256 projectId = projects.length;\n        projects.push(Project(_title, _description, _startDate, _endDate, _amountToRaise, new string[](0), false));\n        projectOwners[projectId] = msg.sender;\n        projectsByOwner[msg.sender].push(projectId);\n    }\n\n    function setMilestones(uint256 _projectId, string[] memory _milestones) public {\n        require(projectOwners[_projectId] == msg.sender, \"Only project owner can set milestones.\");\n        projects[_projectId].milestones = _milestones;\n    }\n\n    function getCurrentProjectId() public view returns (uint256[] memory) {\n        return projectsByOwner[msg.sender];\n    }\n\n    function approveProject(uint256 _projectId) public {\n        require(projectOwners[_projectId] == msg.sender, \"You do not own this project\");\n        projects[_projectId].approved = true;\n    }\n\n    function rejectProject(uint256 _projectId) public {\n        require(projectOwners[_projectId] == msg.sender, \"You do not own this project\");\n        projects[_projectId].approved = false;\n    }\n\n    function isProjectApproved(uint256 _projectId) public view returns (bool) {\n        return projects[_projectId].approved;\n    }\n\n\n    function getProjectDetails() public view returns (Project[] memory) {\n        uint256[] memory projectIds = projectsByOwner[msg.sender];\n        Project[] memory result = new Project[](projectIds.length);\n\n        for (uint256 i = 0; i < projectIds.length; i++) {\n            uint256 projectId = projectIds[i];\n            result[i] = projects[projectId];\n        }\n\n        return result;\n    }\n}\n\n",
  "sourcePath": "/home/mypc/Documents/mypc/Personal/B.E./uBE/Mega Project/Implementation/v 1.0/contracts/ProjectDetails.sol",
  "compiler": {
    "name": "solc",
    "version": "0.8.19+commit.7dd6d404.Emscripten.clang"
  },
  "schemaVersion": "3.4.10",
  "updatedAt": "2023-04-24T06:29:47.608Z",
  "networkType": "ethereum",
  "devdoc": {
    "kind": "dev",
    "methods": {},
    "version": 1
  },
  "userdoc": {
    "kind": "user",
    "methods": {},
    "version": 1
  }
}