{
  "contractName": "ProjectDetails",
  "abi": [
    {
      "inputs": [
        {
          "internalType": "address",
          "name": "_admin",
          "type": "address"
        }
      ],
      "stateMutability": "nonpayable",
      "type": "constructor"
    },
    {
      "inputs": [],
      "name": "admin",
      "outputs": [
        {
          "internalType": "address",
          "name": "",
          "type": "address"
        }
      ],
      "stateMutability": "view",
      "type": "function",
      "constant": true
    },
    {
      "inputs": [
        {
          "internalType": "string",
          "name": "_title",
          "type": "string"
        },
        {
          "internalType": "string",
          "name": "_description",
          "type": "string"
        },
        {
          "internalType": "string",
          "name": "_startDate",
          "type": "string"
        },
        {
          "internalType": "string",
          "name": "_endDate",
          "type": "string"
        },
        {
          "internalType": "uint256",
          "name": "_amountToRaise",
          "type": "uint256"
        }
      ],
      "name": "createProject",
      "outputs": [],
      "stateMutability": "nonpayable",
      "type": "function"
    },
    {
      "inputs": [
        {
          "internalType": "uint256",
          "name": "_projectId",
          "type": "uint256"
        },
        {
          "internalType": "string[]",
          "name": "_milestones",
          "type": "string[]"
        }
      ],
      "name": "setMilestones",
      "outputs": [],
      "stateMutability": "nonpayable",
      "type": "function"
    },
    {
      "inputs": [],
      "name": "getCurrentProjectId",
      "outputs": [
        {
          "internalType": "uint256[]",
          "name": "",
          "type": "uint256[]"
        }
      ],
      "stateMutability": "view",
      "type": "function",
      "constant": true
    },
    {
      "inputs": [
        {
          "internalType": "uint256",
          "name": "_projectId",
          "type": "uint256"
        }
      ],
      "name": "getProjectOwner",
      "outputs": [
        {
          "internalType": "address",
          "name": "",
          "type": "address"
        }
      ],
      "stateMutability": "view",
      "type": "function",
      "constant": true
    },
    {
      "inputs": [
        {
          "internalType": "uint256",
          "name": "_projectId",
          "type": "uint256"
        }
      ],
      "name": "approveProject",
      "outputs": [],
      "stateMutability": "nonpayable",
      "type": "function"
    },
    {
      "inputs": [
        {
          "internalType": "uint256",
          "name": "_projectId",
          "type": "uint256"
        }
      ],
      "name": "rejectProject",
      "outputs": [],
      "stateMutability": "nonpayable",
      "type": "function"
    },
    {
      "inputs": [
        {
          "internalType": "uint256",
          "name": "_index",
          "type": "uint256"
        }
      ],
      "name": "abortProject",
      "outputs": [],
      "stateMutability": "nonpayable",
      "type": "function"
    },
    {
      "inputs": [
        {
          "internalType": "uint256",
          "name": "_projectId",
          "type": "uint256"
        }
      ],
      "name": "isProjectApproved",
      "outputs": [
        {
          "internalType": "string",
          "name": "",
          "type": "string"
        }
      ],
      "stateMutability": "view",
      "type": "function",
      "constant": true
    },
    {
      "inputs": [
        {
          "internalType": "uint256",
          "name": "projectId",
          "type": "uint256"
        }
      ],
      "name": "getProject",
      "outputs": [
        {
          "components": [
            {
              "internalType": "string",
              "name": "title",
              "type": "string"
            },
            {
              "internalType": "string",
              "name": "description",
              "type": "string"
            },
            {
              "internalType": "string",
              "name": "startDate",
              "type": "string"
            },
            {
              "internalType": "string",
              "name": "endDate",
              "type": "string"
            },
            {
              "internalType": "uint256",
              "name": "amountToRaise",
              "type": "uint256"
            },
            {
              "internalType": "uint256",
              "name": "amountRaised",
              "type": "uint256"
            },
            {
              "internalType": "string[]",
              "name": "milestones",
              "type": "string[]"
            },
            {
              "internalType": "string",
              "name": "approved",
              "type": "string"
            }
          ],
          "internalType": "struct ProjectDetails.Project",
          "name": "",
          "type": "tuple"
        }
      ],
      "stateMutability": "view",
      "type": "function",
      "constant": true
    },
    {
      "inputs": [],
      "name": "getProjectDetails",
      "outputs": [
        {
          "components": [
            {
              "internalType": "string",
              "name": "title",
              "type": "string"
            },
            {
              "internalType": "string",
              "name": "description",
              "type": "string"
            },
            {
              "internalType": "string",
              "name": "startDate",
              "type": "string"
            },
            {
              "internalType": "string",
              "name": "endDate",
              "type": "string"
            },
            {
              "internalType": "uint256",
              "name": "amountToRaise",
              "type": "uint256"
            },
            {
              "internalType": "uint256",
              "name": "amountRaised",
              "type": "uint256"
            },
            {
              "internalType": "string[]",
              "name": "milestones",
              "type": "string[]"
            },
            {
              "internalType": "string",
              "name": "approved",
              "type": "string"
            }
          ],
          "internalType": "struct ProjectDetails.Project[]",
          "name": "",
          "type": "tuple[]"
        }
      ],
      "stateMutability": "view",
      "type": "function",
      "constant": true
    },
    {
      "inputs": [],
      "name": "getAllProjects",
      "outputs": [
        {
          "components": [
            {
              "internalType": "string",
              "name": "title",
              "type": "string"
            },
            {
              "internalType": "string",
              "name": "description",
              "type": "string"
            },
            {
              "internalType": "string",
              "name": "startDate",
              "type": "string"
            },
            {
              "internalType": "string",
              "name": "endDate",
              "type": "string"
            },
            {
              "internalType": "uint256",
              "name": "amountToRaise",
              "type": "uint256"
            },
            {
              "internalType": "uint256",
              "name": "amountRaised",
              "type": "uint256"
            },
            {
              "internalType": "string[]",
              "name": "milestones",
              "type": "string[]"
            },
            {
              "internalType": "string",
              "name": "approved",
              "type": "string"
            }
          ],
          "internalType": "struct ProjectDetails.Project[]",
          "name": "",
          "type": "tuple[]"
        }
      ],
      "stateMutability": "view",
      "type": "function",
      "constant": true
    }
  ],
  "bytecode": "0x60806040523480156200001157600080fd5b5060405162002a3038038062002a308339818101604052810190620000379190620000e8565b806000806101000a81548173ffffffffffffffffffffffffffffffffffffffff021916908373ffffffffffffffffffffffffffffffffffffffff160217905550506200011a565b600080fd5b600073ffffffffffffffffffffffffffffffffffffffff82169050919050565b6000620000b08262000083565b9050919050565b620000c281620000a3565b8114620000ce57600080fd5b50565b600081519050620000e281620000b7565b92915050565b6000602082840312156200010157620001006200007e565b5b60006200011184828501620000d1565b91505092915050565b612906806200012a6000396000f3fe608060405234801561001057600080fd5b50600436106100b45760003560e01c8063a78c389a11610071578063a78c389a1461018b578063c868ba9a146101a7578063f0f3f2c8146101c5578063f851a440146101f5578063fc69d83614610213578063ff3a9c7e1461022f576100b4565b8063083b9bf9146100b957806369b04f19146100d55780636c88163f146100f157806380d038291461012157806392256aec1461013f578063a3bfb7bd1461016f575b600080fd5b6100d360048036038101906100ce9190611c47565b61024d565b005b6100ef60048036038101906100ea9190611ca3565b61032c565b005b61010b60048036038101906101069190611ca3565b610425565b6040516101189190611d4f565b60405180910390f35b6101296104dc565b6040516101369190612021565b60405180910390f35b61015960048036038101906101549190611ca3565b610903565b6040516101669190612084565b60405180910390f35b61018960048036038101906101849190611ca3565b610940565b005b6101a560048036038101906101a0919061209f565b610af8565b005b6101af610d4c565b6040516101bc9190612239565b60405180910390f35b6101df60048036038101906101da9190611ca3565b610de1565b6040516101ec919061232e565b60405180910390f35b6101fd61122c565b60405161020a9190612084565b60405180910390f35b61022d60048036038101906102289190611ca3565b611250565b005b610237611349565b6040516102449190612021565b60405180910390f35b3373ffffffffffffffffffffffffffffffffffffffff166001600084815260200190815260200160002060009054906101000a900473ffffffffffffffffffffffffffffffffffffffff1673ffffffffffffffffffffffffffffffffffffffff16146102ee576040517f08c379a00000000000000000000000000000000000000000000000000000000081526004016102e5906123c2565b60405180910390fd5b8060038381548110610303576103026123e2565b5b90600052602060002090600802016006019080519060200190610327929190611891565b505050565b60008054906101000a900473ffffffffffffffffffffffffffffffffffffffff1673ffffffffffffffffffffffffffffffffffffffff163373ffffffffffffffffffffffffffffffffffffffff16146103ba576040517f08c379a00000000000000000000000000000000000000000000000000000000081526004016103b19061245d565b60405180910390fd5b6040518060400160405280600581526020017f66616c736500000000000000000000000000000000000000000000000000000081525060038281548110610404576104036123e2565b5b906000526020600020906008020160070190816104219190612689565b5050565b60606003828154811061043b5761043a6123e2565b5b90600052602060002090600802016007018054610457906124ac565b80601f0160208091040260200160405190810160405280929190818152602001828054610483906124ac565b80156104d05780601f106104a5576101008083540402835291602001916104d0565b820191906000526020600020905b8154815290600101906020018083116104b357829003601f168201915b50505050509050919050565b60606003805480602002602001604051908101604052809291908181526020016000905b828210156108fa578382906000526020600020906008020160405180610100016040529081600082018054610534906124ac565b80601f0160208091040260200160405190810160405280929190818152602001828054610560906124ac565b80156105ad5780601f10610582576101008083540402835291602001916105ad565b820191906000526020600020905b81548152906001019060200180831161059057829003601f168201915b505050505081526020016001820180546105c6906124ac565b80601f01602080910402602001604051908101604052809291908181526020018280546105f2906124ac565b801561063f5780601f106106145761010080835404028352916020019161063f565b820191906000526020600020905b81548152906001019060200180831161062257829003601f168201915b50505050508152602001600282018054610658906124ac565b80601f0160208091040260200160405190810160405280929190818152602001828054610684906124ac565b80156106d15780601f106106a6576101008083540402835291602001916106d1565b820191906000526020600020905b8154815290600101906020018083116106b457829003601f168201915b505050505081526020016003820180546106ea906124ac565b80601f0160208091040260200160405190810160405280929190818152602001828054610716906124ac565b80156107635780601f1061073857610100808354040283529160200191610763565b820191906000526020600020905b81548152906001019060200180831161074657829003601f168201915b50505050508152602001600482015481526020016005820154815260200160068201805480602002602001604051908101604052809291908181526020016000905b828210156108515783829060005260206000200180546107c4906124ac565b80601f01602080910402602001604051908101604052809291908181526020018280546107f0906124ac565b801561083d5780601f106108125761010080835404028352916020019161083d565b820191906000526020600020905b81548152906001019060200180831161082057829003601f168201915b5050505050815260200190600101906107a5565b505050508152602001600782018054610869906124ac565b80601f0160208091040260200160405190810160405280929190818152602001828054610895906124ac565b80156108e25780601f106108b7576101008083540402835291602001916108e2565b820191906000526020600020905b8154815290600101906020018083116108c557829003601f168201915b50505050508152505081526020019060010190610500565b50505050905090565b60006001600083815260200190815260200160002060009054906101000a900473ffffffffffffffffffffffffffffffffffffffff169050919050565b3373ffffffffffffffffffffffffffffffffffffffff166001600083815260200190815260200160002060009054906101000a900473ffffffffffffffffffffffffffffffffffffffff1673ffffffffffffffffffffffffffffffffffffffff16146109e1576040517f08c379a00000000000000000000000000000000000000000000000000000000081526004016109d8906127cd565b60405180910390fd5b6000600382815481106109f7576109f66123e2565b5b9060005260206000209060080201905060038281548110610a1b57610a1a6123e2565b5b906000526020600020906008020160008082016000610a3a91906118ea565b600182016000610a4a91906118ea565b600282016000610a5a91906118ea565b600382016000610a6a91906118ea565b60048201600090556005820160009055600682016000610a8a919061192a565b600782016000610a9a91906118ea565b5050806000016000610aac91906118ea565b806001016000610abc91906118ea565b806002016000610acc91906118ea565b806003016000610adc91906118ea565b8060040160009055806006016000610af4919061192a565b5050565b60006003805490509050600360405180610100016040528088815260200187815260200186815260200185815260200184815260200160008152602001600067ffffffffffffffff811115610b5057610b4f611a31565b5b604051908082528060200260200182016040528015610b8357816020015b6060815260200190600190039081610b6e5790505b5081526020016040518060400160405280600781526020017f6e6f74207365740000000000000000000000000000000000000000000000000081525081525090806001815401808255809150506001900390600052602060002090600802016000909190919091506000820151816000019081610c009190612689565b506020820151816001019081610c169190612689565b506040820151816002019081610c2c9190612689565b506060820151816003019081610c429190612689565b506080820151816004015560a0820151816005015560c0820151816006019080519060200190610c73929190611891565b5060e0820151816007019081610c899190612689565b505050336001600083815260200190815260200160002060006101000a81548173ffffffffffffffffffffffffffffffffffffffff021916908373ffffffffffffffffffffffffffffffffffffffff160217905550600260003373ffffffffffffffffffffffffffffffffffffffff1673ffffffffffffffffffffffffffffffffffffffff168152602001908152602001600020819080600181540180825580915050600190039060005260206000200160009091909190915055505050505050565b6060600260003373ffffffffffffffffffffffffffffffffffffffff1673ffffffffffffffffffffffffffffffffffffffff168152602001908152602001600020805480602002602001604051908101604052809291908181526020018280548015610dd757602002820191906000526020600020905b815481526020019060010190808311610dc3575b5050505050905090565b610de961194b565b6003805490508210610e30576040517f08c379a0000000000000000000000000000000000000000000000000000000008152600401610e2790612839565b60405180910390fd5b60038281548110610e4457610e436123e2565b5b906000526020600020906008020160405180610100016040529081600082018054610e6e906124ac565b80601f0160208091040260200160405190810160405280929190818152602001828054610e9a906124ac565b8015610ee75780601f10610ebc57610100808354040283529160200191610ee7565b820191906000526020600020905b815481529060010190602001808311610eca57829003601f168201915b50505050508152602001600182018054610f00906124ac565b80601f0160208091040260200160405190810160405280929190818152602001828054610f2c906124ac565b8015610f795780601f10610f4e57610100808354040283529160200191610f79565b820191906000526020600020905b815481529060010190602001808311610f5c57829003601f168201915b50505050508152602001600282018054610f92906124ac565b80601f0160208091040260200160405190810160405280929190818152602001828054610fbe906124ac565b801561100b5780601f10610fe05761010080835404028352916020019161100b565b820191906000526020600020905b815481529060010190602001808311610fee57829003601f168201915b50505050508152602001600382018054611024906124ac565b80601f0160208091040260200160405190810160405280929190818152602001828054611050906124ac565b801561109d5780601f106110725761010080835404028352916020019161109d565b820191906000526020600020905b81548152906001019060200180831161108057829003601f168201915b50505050508152602001600482015481526020016005820154815260200160068201805480602002602001604051908101604052809291908181526020016000905b8282101561118b5783829060005260206000200180546110fe906124ac565b80601f016020809104026020016040519081016040528092919081815260200182805461112a906124ac565b80156111775780601f1061114c57610100808354040283529160200191611177565b820191906000526020600020905b81548152906001019060200180831161115a57829003601f168201915b5050505050815260200190600101906110df565b5050505081526020016007820180546111a3906124ac565b80601f01602080910402602001604051908101604052809291908181526020018280546111cf906124ac565b801561121c5780601f106111f15761010080835404028352916020019161121c565b820191906000526020600020905b8154815290600101906020018083116111ff57829003601f168201915b5050505050815250509050919050565b60008054906101000a900473ffffffffffffffffffffffffffffffffffffffff1681565b60008054906101000a900473ffffffffffffffffffffffffffffffffffffffff1673ffffffffffffffffffffffffffffffffffffffff163373ffffffffffffffffffffffffffffffffffffffff16146112de576040517f08c379a00000000000000000000000000000000000000000000000000000000081526004016112d59061245d565b60405180910390fd5b6040518060400160405280600481526020017f747275650000000000000000000000000000000000000000000000000000000081525060038281548110611328576113276123e2565b5b906000526020600020906008020160070190816113459190612689565b5050565b60606000600260003373ffffffffffffffffffffffffffffffffffffffff1673ffffffffffffffffffffffffffffffffffffffff1681526020019081526020016000208054806020026020016040519081016040528092919081815260200182805480156113d657602002820191906000526020600020905b8154815260200190600101908083116113c2575b505050505090506000815167ffffffffffffffff8111156113fa576113f9611a31565b5b60405190808252806020026020018201604052801561143357816020015b61142061194b565b8152602001906001900390816114185790505b50905060005b8251811015611888576000838281518110611457576114566123e2565b5b6020026020010151905060038181548110611475576114746123e2565b5b90600052602060002090600802016040518061010001604052908160008201805461149f906124ac565b80601f01602080910402602001604051908101604052809291908181526020018280546114cb906124ac565b80156115185780601f106114ed57610100808354040283529160200191611518565b820191906000526020600020905b8154815290600101906020018083116114fb57829003601f168201915b50505050508152602001600182018054611531906124ac565b80601f016020809104026020016040519081016040528092919081815260200182805461155d906124ac565b80156115aa5780601f1061157f576101008083540402835291602001916115aa565b820191906000526020600020905b81548152906001019060200180831161158d57829003601f168201915b505050505081526020016002820180546115c3906124ac565b80601f01602080910402602001604051908101604052809291908181526020018280546115ef906124ac565b801561163c5780601f106116115761010080835404028352916020019161163c565b820191906000526020600020905b81548152906001019060200180831161161f57829003601f168201915b50505050508152602001600382018054611655906124ac565b80601f0160208091040260200160405190810160405280929190818152602001828054611681906124ac565b80156116ce5780601f106116a3576101008083540402835291602001916116ce565b820191906000526020600020905b8154815290600101906020018083116116b157829003601f168201915b50505050508152602001600482015481526020016005820154815260200160068201805480602002602001604051908101604052809291908181526020016000905b828210156117bc57838290600052602060002001805461172f906124ac565b80601f016020809104026020016040519081016040528092919081815260200182805461175b906124ac565b80156117a85780601f1061177d576101008083540402835291602001916117a8565b820191906000526020600020905b81548152906001019060200180831161178b57829003601f168201915b505050505081526020019060010190611710565b5050505081526020016007820180546117d4906124ac565b80601f0160208091040260200160405190810160405280929190818152602001828054611800906124ac565b801561184d5780601f106118225761010080835404028352916020019161184d565b820191906000526020600020905b81548152906001019060200180831161183057829003601f168201915b505050505081525050838381518110611869576118686123e2565b5b602002602001018190525050808061188090612888565b915050611439565b50809250505090565b8280548282559060005260206000209081019282156118d9579160200282015b828111156118d85782518290816118c89190612689565b50916020019190600101906118b1565b5b5090506118e69190611990565b5090565b5080546118f6906124ac565b6000825580601f106119085750611927565b601f01602090049060005260206000209081019061192691906119b4565b5b50565b50805460008255906000526020600020908101906119489190611990565b50565b60405180610100016040528060608152602001606081526020016060815260200160608152602001600081526020016000815260200160608152602001606081525090565b5b808211156119b057600081816119a791906118ea565b50600101611991565b5090565b5b808211156119cd5760008160009055506001016119b5565b5090565b6000604051905090565b600080fd5b600080fd5b6000819050919050565b6119f8816119e5565b8114611a0357600080fd5b50565b600081359050611a15816119ef565b92915050565b600080fd5b6000601f19601f8301169050919050565b7f4e487b7100000000000000000000000000000000000000000000000000000000600052604160045260246000fd5b611a6982611a20565b810181811067ffffffffffffffff82111715611a8857611a87611a31565b5b80604052505050565b6000611a9b6119d1565b9050611aa78282611a60565b919050565b600067ffffffffffffffff821115611ac757611ac6611a31565b5b602082029050602081019050919050565b600080fd5b600080fd5b600067ffffffffffffffff821115611afd57611afc611a31565b5b611b0682611a20565b9050602081019050919050565b82818337600083830152505050565b6000611b35611b3084611ae2565b611a91565b905082815260208101848484011115611b5157611b50611add565b5b611b5c848285611b13565b509392505050565b600082601f830112611b7957611b78611a1b565b5b8135611b89848260208601611b22565b91505092915050565b6000611ba5611ba084611aac565b611a91565b90508083825260208201905060208402830185811115611bc857611bc7611ad8565b5b835b81811015611c0f57803567ffffffffffffffff811115611bed57611bec611a1b565b5b808601611bfa8982611b64565b85526020850194505050602081019050611bca565b5050509392505050565b600082601f830112611c2e57611c2d611a1b565b5b8135611c3e848260208601611b92565b91505092915050565b60008060408385031215611c5e57611c5d6119db565b5b6000611c6c85828601611a06565b925050602083013567ffffffffffffffff811115611c8d57611c8c6119e0565b5b611c9985828601611c19565b9150509250929050565b600060208284031215611cb957611cb86119db565b5b6000611cc784828501611a06565b91505092915050565b600081519050919050565b600082825260208201905092915050565b60005b83811015611d0a578082015181840152602081019050611cef565b60008484015250505050565b6000611d2182611cd0565b611d2b8185611cdb565b9350611d3b818560208601611cec565b611d4481611a20565b840191505092915050565b60006020820190508181036000830152611d698184611d16565b905092915050565b600081519050919050565b600082825260208201905092915050565b6000819050602082019050919050565b600082825260208201905092915050565b6000611db982611cd0565b611dc38185611d9d565b9350611dd3818560208601611cec565b611ddc81611a20565b840191505092915050565b611df0816119e5565b82525050565b600081519050919050565b600082825260208201905092915050565b6000819050602082019050919050565b6000611e2e8383611dae565b905092915050565b6000602082019050919050565b6000611e4e82611df6565b611e588185611e01565b935083602082028501611e6a85611e12565b8060005b85811015611ea65784840389528151611e878582611e22565b9450611e9283611e36565b925060208a01995050600181019050611e6e565b50829750879550505050505092915050565b6000610100830160008301518482036000860152611ed68282611dae565b91505060208301518482036020860152611ef08282611dae565b91505060408301518482036040860152611f0a8282611dae565b91505060608301518482036060860152611f248282611dae565b9150506080830151611f396080860182611de7565b5060a0830151611f4c60a0860182611de7565b5060c083015184820360c0860152611f648282611e43565b91505060e083015184820360e0860152611f7e8282611dae565b9150508091505092915050565b6000611f978383611eb8565b905092915050565b6000602082019050919050565b6000611fb782611d71565b611fc18185611d7c565b935083602082028501611fd385611d8d565b8060005b8581101561200f5784840389528151611ff08582611f8b565b9450611ffb83611f9f565b925060208a01995050600181019050611fd7565b50829750879550505050505092915050565b6000602082019050818103600083015261203b8184611fac565b905092915050565b600073ffffffffffffffffffffffffffffffffffffffff82169050919050565b600061206e82612043565b9050919050565b61207e81612063565b82525050565b60006020820190506120996000830184612075565b92915050565b600080600080600060a086880312156120bb576120ba6119db565b5b600086013567ffffffffffffffff8111156120d9576120d86119e0565b5b6120e588828901611b64565b955050602086013567ffffffffffffffff811115612106576121056119e0565b5b61211288828901611b64565b945050604086013567ffffffffffffffff811115612133576121326119e0565b5b61213f88828901611b64565b935050606086013567ffffffffffffffff8111156121605761215f6119e0565b5b61216c88828901611b64565b925050608061217d88828901611a06565b9150509295509295909350565b600081519050919050565b600082825260208201905092915050565b6000819050602082019050919050565b60006121c28383611de7565b60208301905092915050565b6000602082019050919050565b60006121e68261218a565b6121f08185612195565b93506121fb836121a6565b8060005b8381101561222c57815161221388826121b6565b975061221e836121ce565b9250506001810190506121ff565b5085935050505092915050565b6000602082019050818103600083015261225381846121db565b905092915050565b60006101008301600083015184820360008601526122798282611dae565b915050602083015184820360208601526122938282611dae565b915050604083015184820360408601526122ad8282611dae565b915050606083015184820360608601526122c78282611dae565b91505060808301516122dc6080860182611de7565b5060a08301516122ef60a0860182611de7565b5060c083015184820360c08601526123078282611e43565b91505060e083015184820360e08601526123218282611dae565b9150508091505092915050565b60006020820190508181036000830152612348818461225b565b905092915050565b7f4f6e6c792070726f6a656374206f776e65722063616e20736574206d696c657360008201527f746f6e65732e0000000000000000000000000000000000000000000000000000602082015250565b60006123ac602683611cdb565b91506123b782612350565b604082019050919050565b600060208201905081810360008301526123db8161239f565b9050919050565b7f4e487b7100000000000000000000000000000000000000000000000000000000600052603260045260246000fd5b7f596f7520646f206e6f7420686176652070726976696c65676573000000000000600082015250565b6000612447601a83611cdb565b915061245282612411565b602082019050919050565b600060208201905081810360008301526124768161243a565b9050919050565b7f4e487b7100000000000000000000000000000000000000000000000000000000600052602260045260246000fd5b600060028204905060018216806124c457607f821691505b6020821081036124d7576124d661247d565b5b50919050565b60008190508160005260206000209050919050565b60006020601f8301049050919050565b600082821b905092915050565b60006008830261253f7fffffffffffffffffffffffffffffffffffffffffffffffffffffffffffffffff82612502565b6125498683612502565b95508019841693508086168417925050509392505050565b6000819050919050565b600061258661258161257c846119e5565b612561565b6119e5565b9050919050565b6000819050919050565b6125a08361256b565b6125b46125ac8261258d565b84845461250f565b825550505050565b600090565b6125c96125bc565b6125d4818484612597565b505050565b5b818110156125f8576125ed6000826125c1565b6001810190506125da565b5050565b601f82111561263d5761260e816124dd565b612617846124f2565b81016020851015612626578190505b61263a612632856124f2565b8301826125d9565b50505b505050565b600082821c905092915050565b600061266060001984600802612642565b1980831691505092915050565b6000612679838361264f565b9150826002028217905092915050565b61269282611cd0565b67ffffffffffffffff8111156126ab576126aa611a31565b5b6126b582546124ac565b6126c08282856125fc565b600060209050601f8311600181146126f357600084156126e1578287015190505b6126eb858261266d565b865550612753565b601f198416612701866124dd565b60005b8281101561272957848901518255600182019150602085019450602081019050612704565b868310156127465784890151612742601f89168261264f565b8355505b6001600288020188555050505b505050505050565b7f4f6e6c792070726f6a656374206f776e65722063616e2061626f72742070726f60008201527f6a6563742e000000000000000000000000000000000000000000000000000000602082015250565b60006127b7602583611cdb565b91506127c28261275b565b604082019050919050565b600060208201905081810360008301526127e6816127aa565b9050919050565b7f496e76616c69642070726f6a6563742049440000000000000000000000000000600082015250565b6000612823601283611cdb565b915061282e826127ed565b602082019050919050565b6000602082019050818103600083015261285281612816565b9050919050565b7f4e487b7100000000000000000000000000000000000000000000000000000000600052601160045260246000fd5b6000612893826119e5565b91507fffffffffffffffffffffffffffffffffffffffffffffffffffffffffffffffff82036128c5576128c4612859565b5b60018201905091905056fea2646970667358221220abfb2c154da11ee772ab6dfb93dc8582c05c33b6b4f7bfe9b5c0ae559f6e562a64736f6c63430008130033",
  "immutableReferences": {},
  "source": "//SPDX-License-Identifier: UNLICENSED\npragma solidity >=0.6.0 < 0.9.0;\n\n// ----------------------1ST CONTRACT----------------------//\n// contract ProjectDetails {\n//     struct Project {\n//         string title;\n//         string description;\n//         string startDate;\n//         string endDate;\n//         uint256 amountToBeRaised;\n//     }\n\n//     mapping(address => Project) private projects;\n\n//     // Function to store project details\n//     function createProject(\n//         string memory _title,\n//         string memory _description,\n//         string memory _startDate,\n//         string memory _endDate,\n//         uint256 _amountToBeRaised\n//     ) public {\n//         require(bytes(_title).length > 0, \"Title is required\");\n//         require(bytes(_description).length > 0, \"Description is required\");\n//         require(bytes(_startDate).length > 0, \"Start date iitems required\");\n//         require(bytes(_endDate).length > 0, \"End date must be greater than start date\");\n//         require(_amountToBeRaised > 0, \"Amount to be raised must be greater than zero\");\n\n//         Project memory newProject = Project(\n//             _title,\n//             _description,\n//             _startDate,\n//             _endDate,\n//             _amountToBeRaised\n//         );\n\n//         projects[msg.sender] = newProject;\n//     }\n\n//     // Function to retrieve project details\n//     function getProjectDetails() public view returns (Project memory) {\n//         Project memory project = projects[msg.sender];\n\n//         return project;\n//     }\n// }\n\n// ----------------------2ND CONTRACT----------------------//\n\ncontract ProjectDetails {\n    struct Project {\n        string title;\n        string description;\n        string startDate;\n        string endDate;\n        uint256 amountToRaise;\n        uint256 amountRaised;\n        string[] milestones;\n        string approved;\n    }\n\n    address public admin;\n\n    mapping(uint256 => address) private projectOwners;\n    mapping(address => uint256[]) private projectsByOwner;\n\n    Project[] private projects;\n\n    constructor(address _admin) {\n        admin = _admin;\n    }\n\n    function createProject(string memory _title, string memory _description, string memory _startDate, string memory _endDate, uint256 _amountToRaise) public {\n        uint256 projectId = projects.length;\n        projects.push(Project(_title, _description, _startDate, _endDate, _amountToRaise, 0, new string[](0), \"not set\"));\n        projectOwners[projectId] = msg.sender;\n        projectsByOwner[msg.sender].push(projectId);\n    }\n\n    function setMilestones(uint256 _projectId, string[] memory _milestones) public {\n        require(projectOwners[_projectId] == msg.sender, \"Only project owner can set milestones.\");\n        projects[_projectId].milestones = _milestones;\n    }\n\n    function getCurrentProjectId() public view returns (uint256[] memory) {\n        return projectsByOwner[msg.sender];\n    }\n\n    function getProjectOwner(uint256 _projectId) public view returns (address) {\n        return projectOwners[_projectId];\n    }\n\n    function approveProject(uint256 _projectId) public {\n        require(msg.sender == admin, \"You do not have privileges\");\n        projects[_projectId].approved = \"true\";\n    }\n\n    function rejectProject(uint256 _projectId) public {\n        require(msg.sender == admin, \"You do not have privileges\");\n        projects[_projectId].approved = \"false\";\n    }\n\n    function abortProject(uint _index) public {\n        require(projectOwners[_index] == msg.sender, \"Only project owner can abort project.\");\n\n\n        Project storage projectToDelete = projects[_index];\n\n        // Delete the project from the array\n        delete projects[_index];\n\n        // Delete the project data from storage\n        delete projectToDelete.title;\n        delete projectToDelete.description;\n        delete projectToDelete.startDate;\n        delete projectToDelete.endDate;\n        delete projectToDelete.amountToRaise;\n        delete projectToDelete.milestones;\n    }\n\n    function isProjectApproved(uint256 _projectId) public view returns (string memory) {\n        return projects[_projectId].approved;\n    }\n\n    function getProject(uint256 projectId) public view returns (Project memory) {\n        require(projectId < projects.length, \"Invalid project ID\");\n        return projects[projectId];\n    }\n\n\n    function getProjectDetails() public view returns (Project[] memory) {\n        uint256[] memory projectIds = projectsByOwner[msg.sender];\n        Project[] memory result = new Project[](projectIds.length);\n\n        for (uint256 i = 0; i < projectIds.length; i++) {\n            uint256 projectId = projectIds[i];\n            result[i] = projects[projectId];\n        }\n\n        return result;\n    }\n\n    function getAllProjects() public view returns (Project[] memory) {\n        \n        return projects;\n    }\n}\n\n",
  "sourcePath": "/home/mypc/Documents/mypc/Personal/B.E./uBE/Mega Project/Implementation/v 1.0/contracts/ProjectDetails.sol",
  "compiler": {
    "name": "solc",
    "version": "0.8.19+commit.7dd6d404.Emscripten.clang"
  },
  "schemaVersion": "3.4.10",
  "updatedAt": "2023-05-03T09:49:39.589Z",
  "networkType": "ethereum",
  "devdoc": {
    "kind": "dev",
    "methods": {},
    "version": 1
  },
  "userdoc": {
    "kind": "user",
    "methods": {},
    "version": 1
  }
}