{
  "contractName": "ProjectDetails",
  "abi": [
    {
      "inputs": [
        {
          "internalType": "address",
          "name": "_admin",
          "type": "address"
        }
      ],
      "stateMutability": "nonpayable",
      "type": "constructor"
    },
    {
      "inputs": [],
      "name": "admin",
      "outputs": [
        {
          "internalType": "address",
          "name": "",
          "type": "address"
        }
      ],
      "stateMutability": "view",
      "type": "function",
      "constant": true
    },
    {
      "inputs": [
        {
          "internalType": "string",
          "name": "_title",
          "type": "string"
        },
        {
          "internalType": "string",
          "name": "_description",
          "type": "string"
        },
        {
          "internalType": "string",
          "name": "_startDate",
          "type": "string"
        },
        {
          "internalType": "string",
          "name": "_endDate",
          "type": "string"
        },
        {
          "internalType": "uint256",
          "name": "_amountToRaise",
          "type": "uint256"
        }
      ],
      "name": "createProject",
      "outputs": [],
      "stateMutability": "nonpayable",
      "type": "function"
    },
    {
      "inputs": [
        {
          "internalType": "uint256",
          "name": "_projectId",
          "type": "uint256"
        },
        {
          "internalType": "string[]",
          "name": "_milestones",
          "type": "string[]"
        }
      ],
      "name": "setMilestones",
      "outputs": [],
      "stateMutability": "nonpayable",
      "type": "function"
    },
    {
      "inputs": [],
      "name": "getCurrentProjectId",
      "outputs": [
        {
          "internalType": "uint256[]",
          "name": "",
          "type": "uint256[]"
        }
      ],
      "stateMutability": "view",
      "type": "function",
      "constant": true
    },
    {
      "inputs": [
        {
          "internalType": "uint256",
          "name": "_projectId",
          "type": "uint256"
        }
      ],
      "name": "approveProject",
      "outputs": [],
      "stateMutability": "nonpayable",
      "type": "function"
    },
    {
      "inputs": [
        {
          "internalType": "uint256",
          "name": "_projectId",
          "type": "uint256"
        }
      ],
      "name": "rejectProject",
      "outputs": [],
      "stateMutability": "nonpayable",
      "type": "function"
    },
    {
      "inputs": [
        {
          "internalType": "uint256",
          "name": "_index",
          "type": "uint256"
        }
      ],
      "name": "abortProject",
      "outputs": [],
      "stateMutability": "nonpayable",
      "type": "function"
    },
    {
      "inputs": [
        {
          "internalType": "uint256",
          "name": "_projectId",
          "type": "uint256"
        }
      ],
      "name": "isProjectApproved",
      "outputs": [
        {
          "internalType": "string",
          "name": "",
          "type": "string"
        }
      ],
      "stateMutability": "view",
      "type": "function",
      "constant": true
    },
    {
      "inputs": [
        {
          "internalType": "uint256",
          "name": "projectId",
          "type": "uint256"
        }
      ],
      "name": "getProject",
      "outputs": [
        {
          "components": [
            {
              "internalType": "string",
              "name": "title",
              "type": "string"
            },
            {
              "internalType": "string",
              "name": "description",
              "type": "string"
            },
            {
              "internalType": "string",
              "name": "startDate",
              "type": "string"
            },
            {
              "internalType": "string",
              "name": "endDate",
              "type": "string"
            },
            {
              "internalType": "uint256",
              "name": "amountToRaise",
              "type": "uint256"
            },
            {
              "internalType": "uint256",
              "name": "amountRaised",
              "type": "uint256"
            },
            {
              "internalType": "string[]",
              "name": "milestones",
              "type": "string[]"
            },
            {
              "internalType": "string",
              "name": "approved",
              "type": "string"
            }
          ],
          "internalType": "struct ProjectDetails.Project",
          "name": "",
          "type": "tuple"
        }
      ],
      "stateMutability": "view",
      "type": "function",
      "constant": true
    },
    {
      "inputs": [],
      "name": "getProjectDetails",
      "outputs": [
        {
          "components": [
            {
              "internalType": "string",
              "name": "title",
              "type": "string"
            },
            {
              "internalType": "string",
              "name": "description",
              "type": "string"
            },
            {
              "internalType": "string",
              "name": "startDate",
              "type": "string"
            },
            {
              "internalType": "string",
              "name": "endDate",
              "type": "string"
            },
            {
              "internalType": "uint256",
              "name": "amountToRaise",
              "type": "uint256"
            },
            {
              "internalType": "uint256",
              "name": "amountRaised",
              "type": "uint256"
            },
            {
              "internalType": "string[]",
              "name": "milestones",
              "type": "string[]"
            },
            {
              "internalType": "string",
              "name": "approved",
              "type": "string"
            }
          ],
          "internalType": "struct ProjectDetails.Project[]",
          "name": "",
          "type": "tuple[]"
        }
      ],
      "stateMutability": "view",
      "type": "function",
      "constant": true
    },
    {
      "inputs": [],
      "name": "getAllProjects",
      "outputs": [
        {
          "components": [
            {
              "internalType": "string",
              "name": "title",
              "type": "string"
            },
            {
              "internalType": "string",
              "name": "description",
              "type": "string"
            },
            {
              "internalType": "string",
              "name": "startDate",
              "type": "string"
            },
            {
              "internalType": "string",
              "name": "endDate",
              "type": "string"
            },
            {
              "internalType": "uint256",
              "name": "amountToRaise",
              "type": "uint256"
            },
            {
              "internalType": "uint256",
              "name": "amountRaised",
              "type": "uint256"
            },
            {
              "internalType": "string[]",
              "name": "milestones",
              "type": "string[]"
            },
            {
              "internalType": "string",
              "name": "approved",
              "type": "string"
            }
          ],
          "internalType": "struct ProjectDetails.Project[]",
          "name": "",
          "type": "tuple[]"
        }
      ],
      "stateMutability": "view",
      "type": "function",
      "constant": true
    }
  ],
  "bytecode": "0x60806040523480156200001157600080fd5b50604051620029b8380380620029b88339818101604052810190620000379190620000e8565b806000806101000a81548173ffffffffffffffffffffffffffffffffffffffff021916908373ffffffffffffffffffffffffffffffffffffffff160217905550506200011a565b600080fd5b600073ffffffffffffffffffffffffffffffffffffffff82169050919050565b6000620000b08262000083565b9050919050565b620000c281620000a3565b8114620000ce57600080fd5b50565b600081519050620000e281620000b7565b92915050565b6000602082840312156200010157620001006200007e565b5b60006200011184828501620000d1565b91505092915050565b61288e806200012a6000396000f3fe608060405234801561001057600080fd5b50600436106100a95760003560e01c8063a78c389a11610071578063a78c389a14610150578063c868ba9a1461016c578063f0f3f2c81461018a578063f851a440146101ba578063fc69d836146101d8578063ff3a9c7e146101f4576100a9565b8063083b9bf9146100ae57806369b04f19146100ca5780636c88163f146100e657806380d0382914610116578063a3bfb7bd14610134575b600080fd5b6100c860048036038101906100c39190611bcf565b610212565b005b6100e460048036038101906100df9190611c2b565b6102f1565b005b61010060048036038101906100fb9190611c2b565b6103ea565b60405161010d9190611cd7565b60405180910390f35b61011e6104a1565b60405161012b9190611fa9565b60405180910390f35b61014e60048036038101906101499190611c2b565b6108c8565b005b61016a60048036038101906101659190611fcb565b610a80565b005b610174610cd4565b6040516101819190612165565b60405180910390f35b6101a4600480360381019061019f9190611c2b565b610d69565b6040516101b1919061225a565b60405180910390f35b6101c26111b4565b6040516101cf91906122bd565b60405180910390f35b6101f260048036038101906101ed9190611c2b565b6111d8565b005b6101fc6112d1565b6040516102099190611fa9565b60405180910390f35b3373ffffffffffffffffffffffffffffffffffffffff166001600084815260200190815260200160002060009054906101000a900473ffffffffffffffffffffffffffffffffffffffff1673ffffffffffffffffffffffffffffffffffffffff16146102b3576040517f08c379a00000000000000000000000000000000000000000000000000000000081526004016102aa9061234a565b60405180910390fd5b80600383815481106102c8576102c761236a565b5b906000526020600020906008020160060190805190602001906102ec929190611819565b505050565b60008054906101000a900473ffffffffffffffffffffffffffffffffffffffff1673ffffffffffffffffffffffffffffffffffffffff163373ffffffffffffffffffffffffffffffffffffffff161461037f576040517f08c379a0000000000000000000000000000000000000000000000000000000008152600401610376906123e5565b60405180910390fd5b6040518060400160405280600581526020017f66616c7365000000000000000000000000000000000000000000000000000000815250600382815481106103c9576103c861236a565b5b906000526020600020906008020160070190816103e69190612611565b5050565b606060038281548110610400576103ff61236a565b5b9060005260206000209060080201600701805461041c90612434565b80601f016020809104026020016040519081016040528092919081815260200182805461044890612434565b80156104955780601f1061046a57610100808354040283529160200191610495565b820191906000526020600020905b81548152906001019060200180831161047857829003601f168201915b50505050509050919050565b60606003805480602002602001604051908101604052809291908181526020016000905b828210156108bf5783829060005260206000209060080201604051806101000160405290816000820180546104f990612434565b80601f016020809104026020016040519081016040528092919081815260200182805461052590612434565b80156105725780601f1061054757610100808354040283529160200191610572565b820191906000526020600020905b81548152906001019060200180831161055557829003601f168201915b5050505050815260200160018201805461058b90612434565b80601f01602080910402602001604051908101604052809291908181526020018280546105b790612434565b80156106045780601f106105d957610100808354040283529160200191610604565b820191906000526020600020905b8154815290600101906020018083116105e757829003601f168201915b5050505050815260200160028201805461061d90612434565b80601f016020809104026020016040519081016040528092919081815260200182805461064990612434565b80156106965780601f1061066b57610100808354040283529160200191610696565b820191906000526020600020905b81548152906001019060200180831161067957829003601f168201915b505050505081526020016003820180546106af90612434565b80601f01602080910402602001604051908101604052809291908181526020018280546106db90612434565b80156107285780601f106106fd57610100808354040283529160200191610728565b820191906000526020600020905b81548152906001019060200180831161070b57829003601f168201915b50505050508152602001600482015481526020016005820154815260200160068201805480602002602001604051908101604052809291908181526020016000905b8282101561081657838290600052602060002001805461078990612434565b80601f01602080910402602001604051908101604052809291908181526020018280546107b590612434565b80156108025780601f106107d757610100808354040283529160200191610802565b820191906000526020600020905b8154815290600101906020018083116107e557829003601f168201915b50505050508152602001906001019061076a565b50505050815260200160078201805461082e90612434565b80601f016020809104026020016040519081016040528092919081815260200182805461085a90612434565b80156108a75780601f1061087c576101008083540402835291602001916108a7565b820191906000526020600020905b81548152906001019060200180831161088a57829003601f168201915b505050505081525050815260200190600101906104c5565b50505050905090565b3373ffffffffffffffffffffffffffffffffffffffff166001600083815260200190815260200160002060009054906101000a900473ffffffffffffffffffffffffffffffffffffffff1673ffffffffffffffffffffffffffffffffffffffff1614610969576040517f08c379a000000000000000000000000000000000000000000000000000000000815260040161096090612755565b60405180910390fd5b60006003828154811061097f5761097e61236a565b5b90600052602060002090600802019050600382815481106109a3576109a261236a565b5b9060005260206000209060080201600080820160006109c29190611872565b6001820160006109d29190611872565b6002820160006109e29190611872565b6003820160006109f29190611872565b60048201600090556005820160009055600682016000610a1291906118b2565b600782016000610a229190611872565b5050806000016000610a349190611872565b806001016000610a449190611872565b806002016000610a549190611872565b806003016000610a649190611872565b8060040160009055806006016000610a7c91906118b2565b5050565b60006003805490509050600360405180610100016040528088815260200187815260200186815260200185815260200184815260200160008152602001600067ffffffffffffffff811115610ad857610ad76119b9565b5b604051908082528060200260200182016040528015610b0b57816020015b6060815260200190600190039081610af65790505b5081526020016040518060400160405280600781526020017f6e6f74207365740000000000000000000000000000000000000000000000000081525081525090806001815401808255809150506001900390600052602060002090600802016000909190919091506000820151816000019081610b889190612611565b506020820151816001019081610b9e9190612611565b506040820151816002019081610bb49190612611565b506060820151816003019081610bca9190612611565b506080820151816004015560a0820151816005015560c0820151816006019080519060200190610bfb929190611819565b5060e0820151816007019081610c119190612611565b505050336001600083815260200190815260200160002060006101000a81548173ffffffffffffffffffffffffffffffffffffffff021916908373ffffffffffffffffffffffffffffffffffffffff160217905550600260003373ffffffffffffffffffffffffffffffffffffffff1673ffffffffffffffffffffffffffffffffffffffff168152602001908152602001600020819080600181540180825580915050600190039060005260206000200160009091909190915055505050505050565b6060600260003373ffffffffffffffffffffffffffffffffffffffff1673ffffffffffffffffffffffffffffffffffffffff168152602001908152602001600020805480602002602001604051908101604052809291908181526020018280548015610d5f57602002820191906000526020600020905b815481526020019060010190808311610d4b575b5050505050905090565b610d716118d3565b6003805490508210610db8576040517f08c379a0000000000000000000000000000000000000000000000000000000008152600401610daf906127c1565b60405180910390fd5b60038281548110610dcc57610dcb61236a565b5b906000526020600020906008020160405180610100016040529081600082018054610df690612434565b80601f0160208091040260200160405190810160405280929190818152602001828054610e2290612434565b8015610e6f5780601f10610e4457610100808354040283529160200191610e6f565b820191906000526020600020905b815481529060010190602001808311610e5257829003601f168201915b50505050508152602001600182018054610e8890612434565b80601f0160208091040260200160405190810160405280929190818152602001828054610eb490612434565b8015610f015780601f10610ed657610100808354040283529160200191610f01565b820191906000526020600020905b815481529060010190602001808311610ee457829003601f168201915b50505050508152602001600282018054610f1a90612434565b80601f0160208091040260200160405190810160405280929190818152602001828054610f4690612434565b8015610f935780601f10610f6857610100808354040283529160200191610f93565b820191906000526020600020905b815481529060010190602001808311610f7657829003601f168201915b50505050508152602001600382018054610fac90612434565b80601f0160208091040260200160405190810160405280929190818152602001828054610fd890612434565b80156110255780601f10610ffa57610100808354040283529160200191611025565b820191906000526020600020905b81548152906001019060200180831161100857829003601f168201915b50505050508152602001600482015481526020016005820154815260200160068201805480602002602001604051908101604052809291908181526020016000905b8282101561111357838290600052602060002001805461108690612434565b80601f01602080910402602001604051908101604052809291908181526020018280546110b290612434565b80156110ff5780601f106110d4576101008083540402835291602001916110ff565b820191906000526020600020905b8154815290600101906020018083116110e257829003601f168201915b505050505081526020019060010190611067565b50505050815260200160078201805461112b90612434565b80601f016020809104026020016040519081016040528092919081815260200182805461115790612434565b80156111a45780601f10611179576101008083540402835291602001916111a4565b820191906000526020600020905b81548152906001019060200180831161118757829003601f168201915b5050505050815250509050919050565b60008054906101000a900473ffffffffffffffffffffffffffffffffffffffff1681565b60008054906101000a900473ffffffffffffffffffffffffffffffffffffffff1673ffffffffffffffffffffffffffffffffffffffff163373ffffffffffffffffffffffffffffffffffffffff1614611266576040517f08c379a000000000000000000000000000000000000000000000000000000000815260040161125d906123e5565b60405180910390fd5b6040518060400160405280600481526020017f7472756500000000000000000000000000000000000000000000000000000000815250600382815481106112b0576112af61236a565b5b906000526020600020906008020160070190816112cd9190612611565b5050565b60606000600260003373ffffffffffffffffffffffffffffffffffffffff1673ffffffffffffffffffffffffffffffffffffffff16815260200190815260200160002080548060200260200160405190810160405280929190818152602001828054801561135e57602002820191906000526020600020905b81548152602001906001019080831161134a575b505050505090506000815167ffffffffffffffff811115611382576113816119b9565b5b6040519080825280602002602001820160405280156113bb57816020015b6113a86118d3565b8152602001906001900390816113a05790505b50905060005b82518110156118105760008382815181106113df576113de61236a565b5b60200260200101519050600381815481106113fd576113fc61236a565b5b90600052602060002090600802016040518061010001604052908160008201805461142790612434565b80601f016020809104026020016040519081016040528092919081815260200182805461145390612434565b80156114a05780601f10611475576101008083540402835291602001916114a0565b820191906000526020600020905b81548152906001019060200180831161148357829003601f168201915b505050505081526020016001820180546114b990612434565b80601f01602080910402602001604051908101604052809291908181526020018280546114e590612434565b80156115325780601f1061150757610100808354040283529160200191611532565b820191906000526020600020905b81548152906001019060200180831161151557829003601f168201915b5050505050815260200160028201805461154b90612434565b80601f016020809104026020016040519081016040528092919081815260200182805461157790612434565b80156115c45780601f10611599576101008083540402835291602001916115c4565b820191906000526020600020905b8154815290600101906020018083116115a757829003601f168201915b505050505081526020016003820180546115dd90612434565b80601f016020809104026020016040519081016040528092919081815260200182805461160990612434565b80156116565780601f1061162b57610100808354040283529160200191611656565b820191906000526020600020905b81548152906001019060200180831161163957829003601f168201915b50505050508152602001600482015481526020016005820154815260200160068201805480602002602001604051908101604052809291908181526020016000905b828210156117445783829060005260206000200180546116b790612434565b80601f01602080910402602001604051908101604052809291908181526020018280546116e390612434565b80156117305780601f1061170557610100808354040283529160200191611730565b820191906000526020600020905b81548152906001019060200180831161171357829003601f168201915b505050505081526020019060010190611698565b50505050815260200160078201805461175c90612434565b80601f016020809104026020016040519081016040528092919081815260200182805461178890612434565b80156117d55780601f106117aa576101008083540402835291602001916117d5565b820191906000526020600020905b8154815290600101906020018083116117b857829003601f168201915b5050505050815250508383815181106117f1576117f061236a565b5b602002602001018190525050808061180890612810565b9150506113c1565b50809250505090565b828054828255906000526020600020908101928215611861579160200282015b828111156118605782518290816118509190612611565b5091602001919060010190611839565b5b50905061186e9190611918565b5090565b50805461187e90612434565b6000825580601f1061189057506118af565b601f0160209004906000526020600020908101906118ae919061193c565b5b50565b50805460008255906000526020600020908101906118d09190611918565b50565b60405180610100016040528060608152602001606081526020016060815260200160608152602001600081526020016000815260200160608152602001606081525090565b5b80821115611938576000818161192f9190611872565b50600101611919565b5090565b5b8082111561195557600081600090555060010161193d565b5090565b6000604051905090565b600080fd5b600080fd5b6000819050919050565b6119808161196d565b811461198b57600080fd5b50565b60008135905061199d81611977565b92915050565b600080fd5b6000601f19601f8301169050919050565b7f4e487b7100000000000000000000000000000000000000000000000000000000600052604160045260246000fd5b6119f1826119a8565b810181811067ffffffffffffffff82111715611a1057611a0f6119b9565b5b80604052505050565b6000611a23611959565b9050611a2f82826119e8565b919050565b600067ffffffffffffffff821115611a4f57611a4e6119b9565b5b602082029050602081019050919050565b600080fd5b600080fd5b600067ffffffffffffffff821115611a8557611a846119b9565b5b611a8e826119a8565b9050602081019050919050565b82818337600083830152505050565b6000611abd611ab884611a6a565b611a19565b905082815260208101848484011115611ad957611ad8611a65565b5b611ae4848285611a9b565b509392505050565b600082601f830112611b0157611b006119a3565b5b8135611b11848260208601611aaa565b91505092915050565b6000611b2d611b2884611a34565b611a19565b90508083825260208201905060208402830185811115611b5057611b4f611a60565b5b835b81811015611b9757803567ffffffffffffffff811115611b7557611b746119a3565b5b808601611b828982611aec565b85526020850194505050602081019050611b52565b5050509392505050565b600082601f830112611bb657611bb56119a3565b5b8135611bc6848260208601611b1a565b91505092915050565b60008060408385031215611be657611be5611963565b5b6000611bf48582860161198e565b925050602083013567ffffffffffffffff811115611c1557611c14611968565b5b611c2185828601611ba1565b9150509250929050565b600060208284031215611c4157611c40611963565b5b6000611c4f8482850161198e565b91505092915050565b600081519050919050565b600082825260208201905092915050565b60005b83811015611c92578082015181840152602081019050611c77565b60008484015250505050565b6000611ca982611c58565b611cb38185611c63565b9350611cc3818560208601611c74565b611ccc816119a8565b840191505092915050565b60006020820190508181036000830152611cf18184611c9e565b905092915050565b600081519050919050565b600082825260208201905092915050565b6000819050602082019050919050565b600082825260208201905092915050565b6000611d4182611c58565b611d4b8185611d25565b9350611d5b818560208601611c74565b611d64816119a8565b840191505092915050565b611d788161196d565b82525050565b600081519050919050565b600082825260208201905092915050565b6000819050602082019050919050565b6000611db68383611d36565b905092915050565b6000602082019050919050565b6000611dd682611d7e565b611de08185611d89565b935083602082028501611df285611d9a565b8060005b85811015611e2e5784840389528151611e0f8582611daa565b9450611e1a83611dbe565b925060208a01995050600181019050611df6565b50829750879550505050505092915050565b6000610100830160008301518482036000860152611e5e8282611d36565b91505060208301518482036020860152611e788282611d36565b91505060408301518482036040860152611e928282611d36565b91505060608301518482036060860152611eac8282611d36565b9150506080830151611ec16080860182611d6f565b5060a0830151611ed460a0860182611d6f565b5060c083015184820360c0860152611eec8282611dcb565b91505060e083015184820360e0860152611f068282611d36565b9150508091505092915050565b6000611f1f8383611e40565b905092915050565b6000602082019050919050565b6000611f3f82611cf9565b611f498185611d04565b935083602082028501611f5b85611d15565b8060005b85811015611f975784840389528151611f788582611f13565b9450611f8383611f27565b925060208a01995050600181019050611f5f565b50829750879550505050505092915050565b60006020820190508181036000830152611fc38184611f34565b905092915050565b600080600080600060a08688031215611fe757611fe6611963565b5b600086013567ffffffffffffffff81111561200557612004611968565b5b61201188828901611aec565b955050602086013567ffffffffffffffff81111561203257612031611968565b5b61203e88828901611aec565b945050604086013567ffffffffffffffff81111561205f5761205e611968565b5b61206b88828901611aec565b935050606086013567ffffffffffffffff81111561208c5761208b611968565b5b61209888828901611aec565b92505060806120a98882890161198e565b9150509295509295909350565b600081519050919050565b600082825260208201905092915050565b6000819050602082019050919050565b60006120ee8383611d6f565b60208301905092915050565b6000602082019050919050565b6000612112826120b6565b61211c81856120c1565b9350612127836120d2565b8060005b8381101561215857815161213f88826120e2565b975061214a836120fa565b92505060018101905061212b565b5085935050505092915050565b6000602082019050818103600083015261217f8184612107565b905092915050565b60006101008301600083015184820360008601526121a58282611d36565b915050602083015184820360208601526121bf8282611d36565b915050604083015184820360408601526121d98282611d36565b915050606083015184820360608601526121f38282611d36565b91505060808301516122086080860182611d6f565b5060a083015161221b60a0860182611d6f565b5060c083015184820360c08601526122338282611dcb565b91505060e083015184820360e086015261224d8282611d36565b9150508091505092915050565b600060208201905081810360008301526122748184612187565b905092915050565b600073ffffffffffffffffffffffffffffffffffffffff82169050919050565b60006122a78261227c565b9050919050565b6122b78161229c565b82525050565b60006020820190506122d260008301846122ae565b92915050565b7f4f6e6c792070726f6a656374206f776e65722063616e20736574206d696c657360008201527f746f6e65732e0000000000000000000000000000000000000000000000000000602082015250565b6000612334602683611c63565b915061233f826122d8565b604082019050919050565b6000602082019050818103600083015261236381612327565b9050919050565b7f4e487b7100000000000000000000000000000000000000000000000000000000600052603260045260246000fd5b7f596f7520646f206e6f7420686176652070726976696c65676573000000000000600082015250565b60006123cf601a83611c63565b91506123da82612399565b602082019050919050565b600060208201905081810360008301526123fe816123c2565b9050919050565b7f4e487b7100000000000000000000000000000000000000000000000000000000600052602260045260246000fd5b6000600282049050600182168061244c57607f821691505b60208210810361245f5761245e612405565b5b50919050565b60008190508160005260206000209050919050565b60006020601f8301049050919050565b600082821b905092915050565b6000600883026124c77fffffffffffffffffffffffffffffffffffffffffffffffffffffffffffffffff8261248a565b6124d1868361248a565b95508019841693508086168417925050509392505050565b6000819050919050565b600061250e6125096125048461196d565b6124e9565b61196d565b9050919050565b6000819050919050565b612528836124f3565b61253c61253482612515565b848454612497565b825550505050565b600090565b612551612544565b61255c81848461251f565b505050565b5b8181101561258057612575600082612549565b600181019050612562565b5050565b601f8211156125c55761259681612465565b61259f8461247a565b810160208510156125ae578190505b6125c26125ba8561247a565b830182612561565b50505b505050565b600082821c905092915050565b60006125e8600019846008026125ca565b1980831691505092915050565b600061260183836125d7565b9150826002028217905092915050565b61261a82611c58565b67ffffffffffffffff811115612633576126326119b9565b5b61263d8254612434565b612648828285612584565b600060209050601f83116001811461267b5760008415612669578287015190505b61267385826125f5565b8655506126db565b601f19841661268986612465565b60005b828110156126b15784890151825560018201915060208501945060208101905061268c565b868310156126ce57848901516126ca601f8916826125d7565b8355505b6001600288020188555050505b505050505050565b7f4f6e6c792070726f6a656374206f776e65722063616e2061626f72742070726f60008201527f6a6563742e000000000000000000000000000000000000000000000000000000602082015250565b600061273f602583611c63565b915061274a826126e3565b604082019050919050565b6000602082019050818103600083015261276e81612732565b9050919050565b7f496e76616c69642070726f6a6563742049440000000000000000000000000000600082015250565b60006127ab601283611c63565b91506127b682612775565b602082019050919050565b600060208201905081810360008301526127da8161279e565b9050919050565b7f4e487b7100000000000000000000000000000000000000000000000000000000600052601160045260246000fd5b600061281b8261196d565b91507fffffffffffffffffffffffffffffffffffffffffffffffffffffffffffffffff820361284d5761284c6127e1565b5b60018201905091905056fea2646970667358221220a5c761e009a51120c1b165d7a1903a74ddc59a9021fb164304ec32989d1a7db364736f6c63430008130033",
  "immutableReferences": {},
  "source": "//SPDX-License-Identifier: UNLICENSED\npragma solidity >=0.6.0 < 0.9.0;\n\n// ----------------------1ST CONTRACT----------------------//\n// contract ProjectDetails {\n//     struct Project {\n//         string title;\n//         string description;\n//         string startDate;\n//         string endDate;\n//         uint256 amountToBeRaised;\n//     }\n\n//     mapping(address => Project) private projects;\n\n//     // Function to store project details\n//     function createProject(\n//         string memory _title,\n//         string memory _description,\n//         string memory _startDate,\n//         string memory _endDate,\n//         uint256 _amountToBeRaised\n//     ) public {\n//         require(bytes(_title).length > 0, \"Title is required\");\n//         require(bytes(_description).length > 0, \"Description is required\");\n//         require(bytes(_startDate).length > 0, \"Start date iitems required\");\n//         require(bytes(_endDate).length > 0, \"End date must be greater than start date\");\n//         require(_amountToBeRaised > 0, \"Amount to be raised must be greater than zero\");\n\n//         Project memory newProject = Project(\n//             _title,\n//             _description,\n//             _startDate,\n//             _endDate,\n//             _amountToBeRaised\n//         );\n\n//         projects[msg.sender] = newProject;\n//     }\n\n//     // Function to retrieve project details\n//     function getProjectDetails() public view returns (Project memory) {\n//         Project memory project = projects[msg.sender];\n\n//         return project;\n//     }\n// }\n\n// ----------------------2ND CONTRACT----------------------//\n\ncontract ProjectDetails {\n    struct Project {\n        string title;\n        string description;\n        string startDate;\n        string endDate;\n        uint256 amountToRaise;\n        uint256 amountRaised;\n        string[] milestones;\n        string approved;\n    }\n\n    address public admin;\n\n    mapping(uint256 => address) private projectOwners;\n    mapping(address => uint256[]) private projectsByOwner;\n\n    Project[] private projects;\n\n    constructor(address _admin) {\n        admin = _admin;\n    }\n\n    function createProject(string memory _title, string memory _description, string memory _startDate, string memory _endDate, uint256 _amountToRaise) public {\n        uint256 projectId = projects.length;\n        projects.push(Project(_title, _description, _startDate, _endDate, _amountToRaise, 0, new string[](0), \"not set\"));\n        projectOwners[projectId] = msg.sender;\n        projectsByOwner[msg.sender].push(projectId);\n    }\n\n    function setMilestones(uint256 _projectId, string[] memory _milestones) public {\n        require(projectOwners[_projectId] == msg.sender, \"Only project owner can set milestones.\");\n        projects[_projectId].milestones = _milestones;\n    }\n\n    function getCurrentProjectId() public view returns (uint256[] memory) {\n        return projectsByOwner[msg.sender];\n    }\n\n    function approveProject(uint256 _projectId) public {\n        require(msg.sender == admin, \"You do not have privileges\");\n        projects[_projectId].approved = \"true\";\n    }\n\n    function rejectProject(uint256 _projectId) public {\n        require(msg.sender == admin, \"You do not have privileges\");\n        projects[_projectId].approved = \"false\";\n    }\n\n    function abortProject(uint _index) public {\n        require(projectOwners[_index] == msg.sender, \"Only project owner can abort project.\");\n\n\n        Project storage projectToDelete = projects[_index];\n\n        // Delete the project from the array\n        delete projects[_index];\n\n        // Delete the project data from storage\n        delete projectToDelete.title;\n        delete projectToDelete.description;\n        delete projectToDelete.startDate;\n        delete projectToDelete.endDate;\n        delete projectToDelete.amountToRaise;\n        delete projectToDelete.milestones;\n    }\n\n    function isProjectApproved(uint256 _projectId) public view returns (string memory) {\n        return projects[_projectId].approved;\n    }\n\n    function getProject(uint256 projectId) public view returns (Project memory) {\n        require(projectId < projects.length, \"Invalid project ID\");\n        return projects[projectId];\n    }\n\n\n    function getProjectDetails() public view returns (Project[] memory) {\n        uint256[] memory projectIds = projectsByOwner[msg.sender];\n        Project[] memory result = new Project[](projectIds.length);\n\n        for (uint256 i = 0; i < projectIds.length; i++) {\n            uint256 projectId = projectIds[i];\n            result[i] = projects[projectId];\n        }\n\n        return result;\n    }\n\n    function getAllProjects() public view returns (Project[] memory) {\n        \n        return projects;\n    }\n}\n\n",
  "sourcePath": "/home/mypc/Documents/mypc/Personal/B.E./uBE/Mega Project/Implementation/v 1.0/contracts/ProjectDetails.sol",
  "compiler": {
    "name": "solc",
    "version": "0.8.19+commit.7dd6d404.Emscripten.clang"
  },
  "schemaVersion": "3.4.10",
  "updatedAt": "2023-05-03T06:46:54.365Z",
  "networkType": "ethereum",
  "devdoc": {
    "kind": "dev",
    "methods": {},
    "version": 1
  },
  "userdoc": {
    "kind": "user",
    "methods": {},
    "version": 1
  }
}