{
  "contractName": "ProjectDetails",
  "abi": [
    {
      "inputs": [
        {
          "internalType": "address",
          "name": "_admin",
          "type": "address"
        }
      ],
      "stateMutability": "nonpayable",
      "type": "constructor"
    },
    {
      "inputs": [],
      "name": "admin",
      "outputs": [
        {
          "internalType": "address",
          "name": "",
          "type": "address"
        }
      ],
      "stateMutability": "view",
      "type": "function",
      "constant": true
    },
    {
      "inputs": [
        {
          "internalType": "string",
          "name": "_title",
          "type": "string"
        },
        {
          "internalType": "string",
          "name": "_description",
          "type": "string"
        },
        {
          "internalType": "string",
          "name": "_startDate",
          "type": "string"
        },
        {
          "internalType": "string",
          "name": "_endDate",
          "type": "string"
        },
        {
          "internalType": "uint256",
          "name": "_amountToRaise",
          "type": "uint256"
        }
      ],
      "name": "createProject",
      "outputs": [],
      "stateMutability": "nonpayable",
      "type": "function"
    },
    {
      "inputs": [
        {
          "internalType": "uint256",
          "name": "_projectId",
          "type": "uint256"
        },
        {
          "internalType": "string[]",
          "name": "_milestones",
          "type": "string[]"
        }
      ],
      "name": "setMilestones",
      "outputs": [],
      "stateMutability": "nonpayable",
      "type": "function"
    },
    {
      "inputs": [],
      "name": "getCurrentProjectId",
      "outputs": [
        {
          "internalType": "uint256[]",
          "name": "",
          "type": "uint256[]"
        }
      ],
      "stateMutability": "view",
      "type": "function",
      "constant": true
    },
    {
      "inputs": [
        {
          "internalType": "uint256",
          "name": "_projectId",
          "type": "uint256"
        }
      ],
      "name": "approveProject",
      "outputs": [],
      "stateMutability": "nonpayable",
      "type": "function"
    },
    {
      "inputs": [
        {
          "internalType": "uint256",
          "name": "_projectId",
          "type": "uint256"
        }
      ],
      "name": "rejectProject",
      "outputs": [],
      "stateMutability": "nonpayable",
      "type": "function"
    },
    {
      "inputs": [
        {
          "internalType": "uint256",
          "name": "_index",
          "type": "uint256"
        }
      ],
      "name": "abortProject",
      "outputs": [],
      "stateMutability": "nonpayable",
      "type": "function"
    },
    {
      "inputs": [
        {
          "internalType": "uint256",
          "name": "_projectId",
          "type": "uint256"
        }
      ],
      "name": "isProjectApproved",
      "outputs": [
        {
          "internalType": "bool",
          "name": "",
          "type": "bool"
        }
      ],
      "stateMutability": "view",
      "type": "function",
      "constant": true
    },
    {
      "inputs": [],
      "name": "getProjectDetails",
      "outputs": [
        {
          "components": [
            {
              "internalType": "string",
              "name": "title",
              "type": "string"
            },
            {
              "internalType": "string",
              "name": "description",
              "type": "string"
            },
            {
              "internalType": "string",
              "name": "startDate",
              "type": "string"
            },
            {
              "internalType": "string",
              "name": "endDate",
              "type": "string"
            },
            {
              "internalType": "uint256",
              "name": "amountToRaise",
              "type": "uint256"
            },
            {
              "internalType": "string[]",
              "name": "milestones",
              "type": "string[]"
            },
            {
              "internalType": "bool",
              "name": "approved",
              "type": "bool"
            }
          ],
          "internalType": "struct ProjectDetails.Project[]",
          "name": "",
          "type": "tuple[]"
        }
      ],
      "stateMutability": "view",
      "type": "function",
      "constant": true
    },
    {
      "inputs": [],
      "name": "getAllProjects",
      "outputs": [
        {
          "components": [
            {
              "internalType": "string",
              "name": "title",
              "type": "string"
            },
            {
              "internalType": "string",
              "name": "description",
              "type": "string"
            },
            {
              "internalType": "string",
              "name": "startDate",
              "type": "string"
            },
            {
              "internalType": "string",
              "name": "endDate",
              "type": "string"
            },
            {
              "internalType": "uint256",
              "name": "amountToRaise",
              "type": "uint256"
            },
            {
              "internalType": "string[]",
              "name": "milestones",
              "type": "string[]"
            },
            {
              "internalType": "bool",
              "name": "approved",
              "type": "bool"
            }
          ],
          "internalType": "struct ProjectDetails.Project[]",
          "name": "",
          "type": "tuple[]"
        }
      ],
      "stateMutability": "view",
      "type": "function",
      "constant": true
    }
  ],
  "bytecode": "0x60806040523480156200001157600080fd5b5060405162002290380380620022908339818101604052810190620000379190620000e8565b806000806101000a81548173ffffffffffffffffffffffffffffffffffffffff021916908373ffffffffffffffffffffffffffffffffffffffff160217905550506200011a565b600080fd5b600073ffffffffffffffffffffffffffffffffffffffff82169050919050565b6000620000b08262000083565b9050919050565b620000c281620000a3565b8114620000ce57600080fd5b50565b600081519050620000e281620000b7565b92915050565b6000602082840312156200010157620001006200007e565b5b60006200011184828501620000d1565b91505092915050565b612166806200012a6000396000f3fe608060405234801561001057600080fd5b506004361061009e5760003560e01c8063a78c389a11610066578063a78c389a14610145578063c868ba9a14610161578063f851a4401461017f578063fc69d8361461019d578063ff3a9c7e146101b95761009e565b8063083b9bf9146100a357806369b04f19146100bf5780636c88163f146100db57806380d038291461010b578063a3bfb7bd14610129575b600080fd5b6100bd60048036038101906100b891906115a7565b6101d7565b005b6100d960048036038101906100d49190611603565b6102b6565b005b6100f560048036038101906100f09190611603565b6103b8565b604051610102919061164b565b60405180910390f35b6101136103f4565b604051610120919061193f565b60405180910390f35b610143600480360381019061013e9190611603565b610827565b005b61015f600480360381019061015a9190611961565b61095c565b005b610169610b76565b6040516101769190611afb565b60405180910390f35b610187610c0b565b6040516101949190611b5e565b60405180910390f35b6101b760048036038101906101b29190611603565b610c2f565b005b6101c1610d31565b6040516101ce919061193f565b60405180910390f35b3373ffffffffffffffffffffffffffffffffffffffff166001600084815260200190815260200160002060009054906101000a900473ffffffffffffffffffffffffffffffffffffffff1673ffffffffffffffffffffffffffffffffffffffff1614610278576040517f08c379a000000000000000000000000000000000000000000000000000000000815260040161026f90611bfc565b60405180910390fd5b806003838154811061028d5761028c611c1c565b5b906000526020600020906007020160050190805190602001906102b19291906111f7565b505050565b60008054906101000a900473ffffffffffffffffffffffffffffffffffffffff1673ffffffffffffffffffffffffffffffffffffffff166001600083815260200190815260200160002060009054906101000a900473ffffffffffffffffffffffffffffffffffffffff1673ffffffffffffffffffffffffffffffffffffffff1614610377576040517f08c379a000000000000000000000000000000000000000000000000000000000815260040161036e90611c97565b60405180910390fd5b60006003828154811061038d5761038c611c1c565b5b906000526020600020906007020160060160006101000a81548160ff02191690831515021790555050565b6000600382815481106103ce576103cd611c1c565b5b906000526020600020906007020160060160009054906101000a900460ff169050919050565b606060008054906101000a900473ffffffffffffffffffffffffffffffffffffffff1673ffffffffffffffffffffffffffffffffffffffff163373ffffffffffffffffffffffffffffffffffffffff1614610484576040517f08c379a000000000000000000000000000000000000000000000000000000000815260040161047b90611d29565b60405180910390fd5b6003805480602002602001604051908101604052809291908181526020016000905b8282101561081e57838290600052602060002090600702016040518060e00160405290816000820180546104d990611d78565b80601f016020809104026020016040519081016040528092919081815260200182805461050590611d78565b80156105525780601f1061052757610100808354040283529160200191610552565b820191906000526020600020905b81548152906001019060200180831161053557829003601f168201915b5050505050815260200160018201805461056b90611d78565b80601f016020809104026020016040519081016040528092919081815260200182805461059790611d78565b80156105e45780601f106105b9576101008083540402835291602001916105e4565b820191906000526020600020905b8154815290600101906020018083116105c757829003601f168201915b505050505081526020016002820180546105fd90611d78565b80601f016020809104026020016040519081016040528092919081815260200182805461062990611d78565b80156106765780601f1061064b57610100808354040283529160200191610676565b820191906000526020600020905b81548152906001019060200180831161065957829003601f168201915b5050505050815260200160038201805461068f90611d78565b80601f01602080910402602001604051908101604052809291908181526020018280546106bb90611d78565b80156107085780601f106106dd57610100808354040283529160200191610708565b820191906000526020600020905b8154815290600101906020018083116106eb57829003601f168201915b505050505081526020016004820154815260200160058201805480602002602001604051908101604052809291908181526020016000905b828210156107ec57838290600052602060002001805461075f90611d78565b80601f016020809104026020016040519081016040528092919081815260200182805461078b90611d78565b80156107d85780601f106107ad576101008083540402835291602001916107d8565b820191906000526020600020905b8154815290600101906020018083116107bb57829003601f168201915b505050505081526020019060010190610740565b5050505081526020016006820160009054906101000a900460ff161515151581525050815260200190600101906104a6565b50505050905090565b3373ffffffffffffffffffffffffffffffffffffffff166001600083815260200190815260200160002060009054906101000a900473ffffffffffffffffffffffffffffffffffffffff1673ffffffffffffffffffffffffffffffffffffffff16146108c8576040517f08c379a00000000000000000000000000000000000000000000000000000000081526004016108bf90611e1b565b60405180910390fd5b600381815481106108dc576108db611c1c565b5b9060005260206000209060070201600080820160006108fb9190611250565b60018201600061090b9190611250565b60028201600061091b9190611250565b60038201600061092b9190611250565b60048201600090556005820160006109439190611290565b6006820160006101000a81549060ff0219169055505050565b6000600380549050905060036040518060e00160405280888152602001878152602001868152602001858152602001848152602001600067ffffffffffffffff8111156109ac576109ab611391565b5b6040519080825280602002602001820160405280156109df57816020015b60608152602001906001900390816109ca5790505b5081526020016000151581525090806001815401808255809150506001900390600052602060002090600702016000909190919091506000820151816000019081610a2a9190611fe7565b506020820151816001019081610a409190611fe7565b506040820151816002019081610a569190611fe7565b506060820151816003019081610a6c9190611fe7565b506080820151816004015560a0820151816005019080519060200190610a939291906111f7565b5060c08201518160060160006101000a81548160ff0219169083151502179055505050336001600083815260200190815260200160002060006101000a81548173ffffffffffffffffffffffffffffffffffffffff021916908373ffffffffffffffffffffffffffffffffffffffff160217905550600260003373ffffffffffffffffffffffffffffffffffffffff1673ffffffffffffffffffffffffffffffffffffffff168152602001908152602001600020819080600181540180825580915050600190039060005260206000200160009091909190915055505050505050565b6060600260003373ffffffffffffffffffffffffffffffffffffffff1673ffffffffffffffffffffffffffffffffffffffff168152602001908152602001600020805480602002602001604051908101604052809291908181526020018280548015610c0157602002820191906000526020600020905b815481526020019060010190808311610bed575b5050505050905090565b60008054906101000a900473ffffffffffffffffffffffffffffffffffffffff1681565b60008054906101000a900473ffffffffffffffffffffffffffffffffffffffff1673ffffffffffffffffffffffffffffffffffffffff166001600083815260200190815260200160002060009054906101000a900473ffffffffffffffffffffffffffffffffffffffff1673ffffffffffffffffffffffffffffffffffffffff1614610cf0576040517f08c379a0000000000000000000000000000000000000000000000000000000008152600401610ce790611c97565b60405180910390fd5b600160038281548110610d0657610d05611c1c565b5b906000526020600020906007020160060160006101000a81548160ff02191690831515021790555050565b60606000600260003373ffffffffffffffffffffffffffffffffffffffff1673ffffffffffffffffffffffffffffffffffffffff168152602001908152602001600020805480602002602001604051908101604052809291908181526020018280548015610dbe57602002820191906000526020600020905b815481526020019060010190808311610daa575b505050505090506000815167ffffffffffffffff811115610de257610de1611391565b5b604051908082528060200260200182016040528015610e1b57816020015b610e086112b1565b815260200190600190039081610e005790505b50905060005b82518110156111ee576000838281518110610e3f57610e3e611c1c565b5b6020026020010151905060038181548110610e5d57610e5c611c1c565b5b90600052602060002090600702016040518060e0016040529081600082018054610e8690611d78565b80601f0160208091040260200160405190810160405280929190818152602001828054610eb290611d78565b8015610eff5780601f10610ed457610100808354040283529160200191610eff565b820191906000526020600020905b815481529060010190602001808311610ee257829003601f168201915b50505050508152602001600182018054610f1890611d78565b80601f0160208091040260200160405190810160405280929190818152602001828054610f4490611d78565b8015610f915780601f10610f6657610100808354040283529160200191610f91565b820191906000526020600020905b815481529060010190602001808311610f7457829003601f168201915b50505050508152602001600282018054610faa90611d78565b80601f0160208091040260200160405190810160405280929190818152602001828054610fd690611d78565b80156110235780601f10610ff857610100808354040283529160200191611023565b820191906000526020600020905b81548152906001019060200180831161100657829003601f168201915b5050505050815260200160038201805461103c90611d78565b80601f016020809104026020016040519081016040528092919081815260200182805461106890611d78565b80156110b55780601f1061108a576101008083540402835291602001916110b5565b820191906000526020600020905b81548152906001019060200180831161109857829003601f168201915b505050505081526020016004820154815260200160058201805480602002602001604051908101604052809291908181526020016000905b8282101561119957838290600052602060002001805461110c90611d78565b80601f016020809104026020016040519081016040528092919081815260200182805461113890611d78565b80156111855780601f1061115a57610100808354040283529160200191611185565b820191906000526020600020905b81548152906001019060200180831161116857829003601f168201915b5050505050815260200190600101906110ed565b5050505081526020016006820160009054906101000a900460ff1615151515815250508383815181106111cf576111ce611c1c565b5b60200260200101819052505080806111e6906120e8565b915050610e21565b50809250505090565b82805482825590600052602060002090810192821561123f579160200282015b8281111561123e57825182908161122e9190611fe7565b5091602001919060010190611217565b5b50905061124c91906112f0565b5090565b50805461125c90611d78565b6000825580601f1061126e575061128d565b601f01602090049060005260206000209081019061128c9190611314565b5b50565b50805460008255906000526020600020908101906112ae91906112f0565b50565b6040518060e001604052806060815260200160608152602001606081526020016060815260200160008152602001606081526020016000151581525090565b5b8082111561131057600081816113079190611250565b506001016112f1565b5090565b5b8082111561132d576000816000905550600101611315565b5090565b6000604051905090565b600080fd5b600080fd5b6000819050919050565b61135881611345565b811461136357600080fd5b50565b6000813590506113758161134f565b92915050565b600080fd5b6000601f19601f8301169050919050565b7f4e487b7100000000000000000000000000000000000000000000000000000000600052604160045260246000fd5b6113c982611380565b810181811067ffffffffffffffff821117156113e8576113e7611391565b5b80604052505050565b60006113fb611331565b905061140782826113c0565b919050565b600067ffffffffffffffff82111561142757611426611391565b5b602082029050602081019050919050565b600080fd5b600080fd5b600067ffffffffffffffff82111561145d5761145c611391565b5b61146682611380565b9050602081019050919050565b82818337600083830152505050565b600061149561149084611442565b6113f1565b9050828152602081018484840111156114b1576114b061143d565b5b6114bc848285611473565b509392505050565b600082601f8301126114d9576114d861137b565b5b81356114e9848260208601611482565b91505092915050565b60006115056115008461140c565b6113f1565b9050808382526020820190506020840283018581111561152857611527611438565b5b835b8181101561156f57803567ffffffffffffffff81111561154d5761154c61137b565b5b80860161155a89826114c4565b8552602085019450505060208101905061152a565b5050509392505050565b600082601f83011261158e5761158d61137b565b5b813561159e8482602086016114f2565b91505092915050565b600080604083850312156115be576115bd61133b565b5b60006115cc85828601611366565b925050602083013567ffffffffffffffff8111156115ed576115ec611340565b5b6115f985828601611579565b9150509250929050565b6000602082840312156116195761161861133b565b5b600061162784828501611366565b91505092915050565b60008115159050919050565b61164581611630565b82525050565b6000602082019050611660600083018461163c565b92915050565b600081519050919050565b600082825260208201905092915050565b6000819050602082019050919050565b600081519050919050565b600082825260208201905092915050565b60005b838110156116cc5780820151818401526020810190506116b1565b60008484015250505050565b60006116e382611692565b6116ed818561169d565b93506116fd8185602086016116ae565b61170681611380565b840191505092915050565b61171a81611345565b82525050565b600081519050919050565b600082825260208201905092915050565b6000819050602082019050919050565b600061175883836116d8565b905092915050565b6000602082019050919050565b600061177882611720565b611782818561172b565b9350836020820285016117948561173c565b8060005b858110156117d057848403895281516117b1858261174c565b94506117bc83611760565b925060208a01995050600181019050611798565b50829750879550505050505092915050565b6117eb81611630565b82525050565b600060e083016000830151848203600086015261180e82826116d8565b9150506020830151848203602086015261182882826116d8565b9150506040830151848203604086015261184282826116d8565b9150506060830151848203606086015261185c82826116d8565b91505060808301516118716080860182611711565b5060a083015184820360a0860152611889828261176d565b91505060c083015161189e60c08601826117e2565b508091505092915050565b60006118b583836117f1565b905092915050565b6000602082019050919050565b60006118d582611666565b6118df8185611671565b9350836020820285016118f185611682565b8060005b8581101561192d578484038952815161190e85826118a9565b9450611919836118bd565b925060208a019950506001810190506118f5565b50829750879550505050505092915050565b6000602082019050818103600083015261195981846118ca565b905092915050565b600080600080600060a0868803121561197d5761197c61133b565b5b600086013567ffffffffffffffff81111561199b5761199a611340565b5b6119a7888289016114c4565b955050602086013567ffffffffffffffff8111156119c8576119c7611340565b5b6119d4888289016114c4565b945050604086013567ffffffffffffffff8111156119f5576119f4611340565b5b611a01888289016114c4565b935050606086013567ffffffffffffffff811115611a2257611a21611340565b5b611a2e888289016114c4565b9250506080611a3f88828901611366565b9150509295509295909350565b600081519050919050565b600082825260208201905092915050565b6000819050602082019050919050565b6000611a848383611711565b60208301905092915050565b6000602082019050919050565b6000611aa882611a4c565b611ab28185611a57565b9350611abd83611a68565b8060005b83811015611aee578151611ad58882611a78565b9750611ae083611a90565b925050600181019050611ac1565b5085935050505092915050565b60006020820190508181036000830152611b158184611a9d565b905092915050565b600073ffffffffffffffffffffffffffffffffffffffff82169050919050565b6000611b4882611b1d565b9050919050565b611b5881611b3d565b82525050565b6000602082019050611b736000830184611b4f565b92915050565b600082825260208201905092915050565b7f4f6e6c792070726f6a656374206f776e65722063616e20736574206d696c657360008201527f746f6e65732e0000000000000000000000000000000000000000000000000000602082015250565b6000611be6602683611b79565b9150611bf182611b8a565b604082019050919050565b60006020820190508181036000830152611c1581611bd9565b9050919050565b7f4e487b7100000000000000000000000000000000000000000000000000000000600052603260045260246000fd5b7f596f7520646f206e6f74206f776e20746869732070726f6a6563740000000000600082015250565b6000611c81601b83611b79565b9150611c8c82611c4b565b602082019050919050565b60006020820190508181036000830152611cb081611c74565b9050919050565b7f4f6e6c792061646d696e2063616e206163636573732074686973206d6574686f60008201527f642e000000000000000000000000000000000000000000000000000000000000602082015250565b6000611d13602283611b79565b9150611d1e82611cb7565b604082019050919050565b60006020820190508181036000830152611d4281611d06565b9050919050565b7f4e487b7100000000000000000000000000000000000000000000000000000000600052602260045260246000fd5b60006002820490506001821680611d9057607f821691505b602082108103611da357611da2611d49565b5b50919050565b7f4f6e6c792070726f6a656374206f776e65722063616e2061626f72742070726f60008201527f6a6563742e000000000000000000000000000000000000000000000000000000602082015250565b6000611e05602583611b79565b9150611e1082611da9565b604082019050919050565b60006020820190508181036000830152611e3481611df8565b9050919050565b60008190508160005260206000209050919050565b60006020601f8301049050919050565b600082821b905092915050565b600060088302611e9d7fffffffffffffffffffffffffffffffffffffffffffffffffffffffffffffffff82611e60565b611ea78683611e60565b95508019841693508086168417925050509392505050565b6000819050919050565b6000611ee4611edf611eda84611345565b611ebf565b611345565b9050919050565b6000819050919050565b611efe83611ec9565b611f12611f0a82611eeb565b848454611e6d565b825550505050565b600090565b611f27611f1a565b611f32818484611ef5565b505050565b5b81811015611f5657611f4b600082611f1f565b600181019050611f38565b5050565b601f821115611f9b57611f6c81611e3b565b611f7584611e50565b81016020851015611f84578190505b611f98611f9085611e50565b830182611f37565b50505b505050565b600082821c905092915050565b6000611fbe60001984600802611fa0565b1980831691505092915050565b6000611fd78383611fad565b9150826002028217905092915050565b611ff082611692565b67ffffffffffffffff81111561200957612008611391565b5b6120138254611d78565b61201e828285611f5a565b600060209050601f831160018114612051576000841561203f578287015190505b6120498582611fcb565b8655506120b1565b601f19841661205f86611e3b565b60005b8281101561208757848901518255600182019150602085019450602081019050612062565b868310156120a457848901516120a0601f891682611fad565b8355505b6001600288020188555050505b505050505050565b7f4e487b7100000000000000000000000000000000000000000000000000000000600052601160045260246000fd5b60006120f382611345565b91507fffffffffffffffffffffffffffffffffffffffffffffffffffffffffffffffff8203612125576121246120b9565b5b60018201905091905056fea2646970667358221220b00bf2f0c32b2915f9dbaba0447e0708a512ecde31a28ecddd93f8c2fbadef3664736f6c63430008130033",
  "immutableReferences": {},
  "source": "//SPDX-License-Identifier: UNLICENSED\npragma solidity >=0.6.0 < 0.9.0;\n\n// ----------------------1ST CONTRACT----------------------//\n// contract ProjectDetails {\n//     struct Project {\n//         string title;\n//         string description;\n//         string startDate;\n//         string endDate;\n//         uint256 amountToBeRaised;\n//     }\n\n//     mapping(address => Project) private projects;\n\n//     // Function to store project details\n//     function createProject(\n//         string memory _title,\n//         string memory _description,\n//         string memory _startDate,\n//         string memory _endDate,\n//         uint256 _amountToBeRaised\n//     ) public {\n//         require(bytes(_title).length > 0, \"Title is required\");\n//         require(bytes(_description).length > 0, \"Description is required\");\n//         require(bytes(_startDate).length > 0, \"Start date iitems required\");\n//         require(bytes(_endDate).length > 0, \"End date must be greater than start date\");\n//         require(_amountToBeRaised > 0, \"Amount to be raised must be greater than zero\");\n\n//         Project memory newProject = Project(\n//             _title,\n//             _description,\n//             _startDate,\n//             _endDate,\n//             _amountToBeRaised\n//         );\n\n//         projects[msg.sender] = newProject;\n//     }\n\n//     // Function to retrieve project details\n//     function getProjectDetails() public view returns (Project memory) {\n//         Project memory project = projects[msg.sender];\n\n//         return project;\n//     }\n// }\n\n// ----------------------2ND CONTRACT----------------------//\n\ncontract ProjectDetails {\n    struct Project {\n        string title;\n        string description;\n        string startDate;\n        string endDate;\n        uint256 amountToRaise;\n        string[] milestones;\n        bool approved;\n    }\n\n    address public admin;\n\n    mapping(uint256 => address) private projectOwners;\n    mapping(address => uint256[]) private projectsByOwner;\n\n    Project[] private projects;\n\n    constructor(address _admin) {\n        admin = _admin;\n    }\n\n    function createProject(string memory _title, string memory _description, string memory _startDate, string memory _endDate, uint256 _amountToRaise) public {\n        uint256 projectId = projects.length;\n        projects.push(Project(_title, _description, _startDate, _endDate, _amountToRaise, new string[](0), false));\n        projectOwners[projectId] = msg.sender;\n        projectsByOwner[msg.sender].push(projectId);\n    }\n\n    function setMilestones(uint256 _projectId, string[] memory _milestones) public {\n        require(projectOwners[_projectId] == msg.sender, \"Only project owner can set milestones.\");\n        projects[_projectId].milestones = _milestones;\n    }\n\n    function getCurrentProjectId() public view returns (uint256[] memory) {\n        return projectsByOwner[msg.sender];\n    }\n\n    function approveProject(uint256 _projectId) public {\n        require(projectOwners[_projectId] == admin, \"You do not own this project\");\n        projects[_projectId].approved = true;\n    }\n\n    function rejectProject(uint256 _projectId) public {\n        require(projectOwners[_projectId] == admin, \"You do not own this project\");\n        projects[_projectId].approved = false;\n    }\n\n    function abortProject(uint _index) public {\n        require(projectOwners[_index] == msg.sender, \"Only project owner can abort project.\");\n        delete projects[_index];\n    }\n\n    function isProjectApproved(uint256 _projectId) public view returns (bool) {\n        return projects[_projectId].approved;\n    }\n\n\n    function getProjectDetails() public view returns (Project[] memory) {\n        uint256[] memory projectIds = projectsByOwner[msg.sender];\n        Project[] memory result = new Project[](projectIds.length);\n\n        for (uint256 i = 0; i < projectIds.length; i++) {\n            uint256 projectId = projectIds[i];\n            result[i] = projects[projectId];\n        }\n\n        return result;\n    }\n\n    function getAllProjects() public view returns (Project[] memory) {\n        require(msg.sender == admin, \"Only admin can access this method.\");\n        \n        return projects;\n    }\n}\n\n",
  "sourcePath": "/home/mypc/Documents/mypc/Personal/B.E./uBE/Mega Project/Implementation/v 1.0/contracts/ProjectDetails.sol",
  "compiler": {
    "name": "solc",
    "version": "0.8.19+commit.7dd6d404.Emscripten.clang"
  },
  "schemaVersion": "3.4.10",
  "updatedAt": "2023-05-01T04:23:28.277Z",
  "networkType": "ethereum",
  "devdoc": {
    "kind": "dev",
    "methods": {},
    "version": 1
  },
  "userdoc": {
    "kind": "user",
    "methods": {},
    "version": 1
  }
}