{
  "contractName": "ProjectDetails",
  "abi": [
    {
      "inputs": [
        {
          "internalType": "string",
          "name": "_title",
          "type": "string"
        },
        {
          "internalType": "string",
          "name": "_description",
          "type": "string"
        },
        {
          "internalType": "string",
          "name": "_startDate",
          "type": "string"
        },
        {
          "internalType": "string",
          "name": "_endDate",
          "type": "string"
        },
        {
          "internalType": "uint256",
          "name": "_amountToRaise",
          "type": "uint256"
        }
      ],
      "name": "createProject",
      "outputs": [],
      "stateMutability": "nonpayable",
      "type": "function"
    },
    {
      "inputs": [
        {
          "internalType": "uint256",
          "name": "_projectId",
          "type": "uint256"
        },
        {
          "internalType": "string[]",
          "name": "_milestones",
          "type": "string[]"
        }
      ],
      "name": "setMilestones",
      "outputs": [],
      "stateMutability": "nonpayable",
      "type": "function"
    },
    {
      "inputs": [],
      "name": "getCurrentProjectId",
      "outputs": [
        {
          "internalType": "uint256[]",
          "name": "",
          "type": "uint256[]"
        }
      ],
      "stateMutability": "view",
      "type": "function",
      "constant": true
    },
    {
      "inputs": [],
      "name": "getProjectDetails",
      "outputs": [
        {
          "components": [
            {
              "internalType": "string",
              "name": "title",
              "type": "string"
            },
            {
              "internalType": "string",
              "name": "description",
              "type": "string"
            },
            {
              "internalType": "string",
              "name": "startDate",
              "type": "string"
            },
            {
              "internalType": "string",
              "name": "endDate",
              "type": "string"
            },
            {
              "internalType": "uint256",
              "name": "amountToRaise",
              "type": "uint256"
            },
            {
              "internalType": "string[]",
              "name": "milestones",
              "type": "string[]"
            }
          ],
          "internalType": "struct ProjectDetails.Project[]",
          "name": "",
          "type": "tuple[]"
        }
      ],
      "stateMutability": "view",
      "type": "function",
      "constant": true
    }
  ],
  "bytecode": "0x608060405234801561001057600080fd5b506115a7806100206000396000f3fe608060405234801561001057600080fd5b506004361061004c5760003560e01c8063083b9bf914610051578063a78c389a1461006d578063c868ba9a14610089578063ff3a9c7e146100a7575b600080fd5b61006b60048036038101906100669190610c59565b6100c5565b005b61008760048036038101906100829190610cb5565b6101a3565b005b610091610393565b60405161009e9190610e5e565b60405180910390f35b6100af610428565b6040516100bc9190611128565b60405180910390f35b3373ffffffffffffffffffffffffffffffffffffffff1660008084815260200190815260200160002060009054906101000a900473ffffffffffffffffffffffffffffffffffffffff1673ffffffffffffffffffffffffffffffffffffffff1614610165576040517f08c379a000000000000000000000000000000000000000000000000000000000815260040161015c906111cd565b60405180910390fd5b806002838154811061017a576101796111ed565b5b9060005260206000209060060201600501908051906020019061019e9291906108d3565b505050565b6000600280549050905060026040518060c00160405280888152602001878152602001868152602001858152602001848152602001600067ffffffffffffffff8111156101f3576101f2610a43565b5b60405190808252806020026020018201604052801561022657816020015b60608152602001906001900390816102115790505b50815250908060018154018082558091505060019003906000526020600020906006020160009091909190915060008201518160000190816102689190611428565b50602082015181600101908161027e9190611428565b5060408201518160020190816102949190611428565b5060608201518160030190816102aa9190611428565b506080820151816004015560a08201518160050190805190602001906102d19291906108d3565b5050503360008083815260200190815260200160002060006101000a81548173ffffffffffffffffffffffffffffffffffffffff021916908373ffffffffffffffffffffffffffffffffffffffff160217905550600160003373ffffffffffffffffffffffffffffffffffffffff1673ffffffffffffffffffffffffffffffffffffffff168152602001908152602001600020819080600181540180825580915050600190039060005260206000200160009091909190915055505050505050565b6060600160003373ffffffffffffffffffffffffffffffffffffffff1673ffffffffffffffffffffffffffffffffffffffff16815260200190815260200160002080548060200260200160405190810160405280929190818152602001828054801561041e57602002820191906000526020600020905b81548152602001906001019080831161040a575b5050505050905090565b60606000600160003373ffffffffffffffffffffffffffffffffffffffff1673ffffffffffffffffffffffffffffffffffffffff1681526020019081526020016000208054806020026020016040519081016040528092919081815260200182805480156104b557602002820191906000526020600020905b8154815260200190600101908083116104a1575b505050505090506000815167ffffffffffffffff8111156104d9576104d8610a43565b5b60405190808252806020026020018201604052801561051257816020015b6104ff61092c565b8152602001906001900390816104f75790505b50905060005b82518110156108ca576000838281518110610536576105356111ed565b5b6020026020010151905060028181548110610554576105536111ed565b5b90600052602060002090600602016040518060c001604052908160008201805461057d9061124b565b80601f01602080910402602001604051908101604052809291908181526020018280546105a99061124b565b80156105f65780601f106105cb576101008083540402835291602001916105f6565b820191906000526020600020905b8154815290600101906020018083116105d957829003601f168201915b5050505050815260200160018201805461060f9061124b565b80601f016020809104026020016040519081016040528092919081815260200182805461063b9061124b565b80156106885780601f1061065d57610100808354040283529160200191610688565b820191906000526020600020905b81548152906001019060200180831161066b57829003601f168201915b505050505081526020016002820180546106a19061124b565b80601f01602080910402602001604051908101604052809291908181526020018280546106cd9061124b565b801561071a5780601f106106ef5761010080835404028352916020019161071a565b820191906000526020600020905b8154815290600101906020018083116106fd57829003601f168201915b505050505081526020016003820180546107339061124b565b80601f016020809104026020016040519081016040528092919081815260200182805461075f9061124b565b80156107ac5780601f10610781576101008083540402835291602001916107ac565b820191906000526020600020905b81548152906001019060200180831161078f57829003601f168201915b505050505081526020016004820154815260200160058201805480602002602001604051908101604052809291908181526020016000905b828210156108905783829060005260206000200180546108039061124b565b80601f016020809104026020016040519081016040528092919081815260200182805461082f9061124b565b801561087c5780601f106108515761010080835404028352916020019161087c565b820191906000526020600020905b81548152906001019060200180831161085f57829003601f168201915b5050505050815260200190600101906107e4565b50505050815250508383815181106108ab576108aa6111ed565b5b60200260200101819052505080806108c290611529565b915050610518565b50809250505090565b82805482825590600052602060002090810192821561091b579160200282015b8281111561091a57825182908161090a9190611428565b50916020019190600101906108f3565b5b5090506109289190610962565b5090565b6040518060c001604052806060815260200160608152602001606081526020016060815260200160008152602001606081525090565b5b8082111561098257600081816109799190610986565b50600101610963565b5090565b5080546109929061124b565b6000825580601f106109a457506109c3565b601f0160209004906000526020600020908101906109c291906109c6565b5b50565b5b808211156109df5760008160009055506001016109c7565b5090565b6000604051905090565b600080fd5b600080fd5b6000819050919050565b610a0a816109f7565b8114610a1557600080fd5b50565b600081359050610a2781610a01565b92915050565b600080fd5b6000601f19601f8301169050919050565b7f4e487b7100000000000000000000000000000000000000000000000000000000600052604160045260246000fd5b610a7b82610a32565b810181811067ffffffffffffffff82111715610a9a57610a99610a43565b5b80604052505050565b6000610aad6109e3565b9050610ab98282610a72565b919050565b600067ffffffffffffffff821115610ad957610ad8610a43565b5b602082029050602081019050919050565b600080fd5b600080fd5b600067ffffffffffffffff821115610b0f57610b0e610a43565b5b610b1882610a32565b9050602081019050919050565b82818337600083830152505050565b6000610b47610b4284610af4565b610aa3565b905082815260208101848484011115610b6357610b62610aef565b5b610b6e848285610b25565b509392505050565b600082601f830112610b8b57610b8a610a2d565b5b8135610b9b848260208601610b34565b91505092915050565b6000610bb7610bb284610abe565b610aa3565b90508083825260208201905060208402830185811115610bda57610bd9610aea565b5b835b81811015610c2157803567ffffffffffffffff811115610bff57610bfe610a2d565b5b808601610c0c8982610b76565b85526020850194505050602081019050610bdc565b5050509392505050565b600082601f830112610c4057610c3f610a2d565b5b8135610c50848260208601610ba4565b91505092915050565b60008060408385031215610c7057610c6f6109ed565b5b6000610c7e85828601610a18565b925050602083013567ffffffffffffffff811115610c9f57610c9e6109f2565b5b610cab85828601610c2b565b9150509250929050565b600080600080600060a08688031215610cd157610cd06109ed565b5b600086013567ffffffffffffffff811115610cef57610cee6109f2565b5b610cfb88828901610b76565b955050602086013567ffffffffffffffff811115610d1c57610d1b6109f2565b5b610d2888828901610b76565b945050604086013567ffffffffffffffff811115610d4957610d486109f2565b5b610d5588828901610b76565b935050606086013567ffffffffffffffff811115610d7657610d756109f2565b5b610d8288828901610b76565b9250506080610d9388828901610a18565b9150509295509295909350565b600081519050919050565b600082825260208201905092915050565b6000819050602082019050919050565b610dd5816109f7565b82525050565b6000610de78383610dcc565b60208301905092915050565b6000602082019050919050565b6000610e0b82610da0565b610e158185610dab565b9350610e2083610dbc565b8060005b83811015610e51578151610e388882610ddb565b9750610e4383610df3565b925050600181019050610e24565b5085935050505092915050565b60006020820190508181036000830152610e788184610e00565b905092915050565b600081519050919050565b600082825260208201905092915050565b6000819050602082019050919050565b600081519050919050565b600082825260208201905092915050565b60005b83811015610ee6578082015181840152602081019050610ecb565b60008484015250505050565b6000610efd82610eac565b610f078185610eb7565b9350610f17818560208601610ec8565b610f2081610a32565b840191505092915050565b600081519050919050565b600082825260208201905092915050565b6000819050602082019050919050565b6000610f638383610ef2565b905092915050565b6000602082019050919050565b6000610f8382610f2b565b610f8d8185610f36565b935083602082028501610f9f85610f47565b8060005b85811015610fdb5784840389528151610fbc8582610f57565b9450610fc783610f6b565b925060208a01995050600181019050610fa3565b50829750879550505050505092915050565b600060c083016000830151848203600086015261100a8282610ef2565b915050602083015184820360208601526110248282610ef2565b9150506040830151848203604086015261103e8282610ef2565b915050606083015184820360608601526110588282610ef2565b915050608083015161106d6080860182610dcc565b5060a083015184820360a08601526110858282610f78565b9150508091505092915050565b600061109e8383610fed565b905092915050565b6000602082019050919050565b60006110be82610e80565b6110c88185610e8b565b9350836020820285016110da85610e9c565b8060005b8581101561111657848403895281516110f78582611092565b9450611102836110a6565b925060208a019950506001810190506110de565b50829750879550505050505092915050565b6000602082019050818103600083015261114281846110b3565b905092915050565b600082825260208201905092915050565b7f4f6e6c792070726f6a656374206f776e65722063616e20736574206d696c657360008201527f746f6e65732e0000000000000000000000000000000000000000000000000000602082015250565b60006111b760268361114a565b91506111c28261115b565b604082019050919050565b600060208201905081810360008301526111e6816111aa565b9050919050565b7f4e487b7100000000000000000000000000000000000000000000000000000000600052603260045260246000fd5b7f4e487b7100000000000000000000000000000000000000000000000000000000600052602260045260246000fd5b6000600282049050600182168061126357607f821691505b6020821081036112765761127561121c565b5b50919050565b60008190508160005260206000209050919050565b60006020601f8301049050919050565b600082821b905092915050565b6000600883026112de7fffffffffffffffffffffffffffffffffffffffffffffffffffffffffffffffff826112a1565b6112e886836112a1565b95508019841693508086168417925050509392505050565b6000819050919050565b600061132561132061131b846109f7565b611300565b6109f7565b9050919050565b6000819050919050565b61133f8361130a565b61135361134b8261132c565b8484546112ae565b825550505050565b600090565b61136861135b565b611373818484611336565b505050565b5b818110156113975761138c600082611360565b600181019050611379565b5050565b601f8211156113dc576113ad8161127c565b6113b684611291565b810160208510156113c5578190505b6113d96113d185611291565b830182611378565b50505b505050565b600082821c905092915050565b60006113ff600019846008026113e1565b1980831691505092915050565b600061141883836113ee565b9150826002028217905092915050565b61143182610eac565b67ffffffffffffffff81111561144a57611449610a43565b5b611454825461124b565b61145f82828561139b565b600060209050601f8311600181146114925760008415611480578287015190505b61148a858261140c565b8655506114f2565b601f1984166114a08661127c565b60005b828110156114c8578489015182556001820191506020850194506020810190506114a3565b868310156114e557848901516114e1601f8916826113ee565b8355505b6001600288020188555050505b505050505050565b7f4e487b7100000000000000000000000000000000000000000000000000000000600052601160045260246000fd5b6000611534826109f7565b91507fffffffffffffffffffffffffffffffffffffffffffffffffffffffffffffffff8203611566576115656114fa565b5b60018201905091905056fea26469706673582212206cd202b1d66bd2ece646a1a0c1fb86a5f62349a81e54098d516272b80455206064736f6c63430008130033",
  "immutableReferences": {},
  "source": "//SPDX-License-Identifier: UNLICENSED\npragma solidity >=0.6.0 < 0.9.0;\n\n// ----------------------1ST CONTRACT----------------------//\n// contract ProjectDetails {\n//     struct Project {\n//         string title;\n//         string description;\n//         string startDate;\n//         string endDate;\n//         uint256 amountToBeRaised;\n//     }\n\n//     mapping(address => Project) private projects;\n\n//     // Function to store project details\n//     function createProject(\n//         string memory _title,\n//         string memory _description,\n//         string memory _startDate,\n//         string memory _endDate,\n//         uint256 _amountToBeRaised\n//     ) public {\n//         require(bytes(_title).length > 0, \"Title is required\");\n//         require(bytes(_description).length > 0, \"Description is required\");\n//         require(bytes(_startDate).length > 0, \"Start date iitems required\");\n//         require(bytes(_endDate).length > 0, \"End date must be greater than start date\");\n//         require(_amountToBeRaised > 0, \"Amount to be raised must be greater than zero\");\n\n//         Project memory newProject = Project(\n//             _title,\n//             _description,\n//             _startDate,\n//             _endDate,\n//             _amountToBeRaised\n//         );\n\n//         projects[msg.sender] = newProject;\n//     }\n\n//     // Function to retrieve project details\n//     function getProjectDetails() public view returns (Project memory) {\n//         Project memory project = projects[msg.sender];\n\n//         return project;\n//     }\n// }\n\n// ----------------------2ND CONTRACT----------------------//\n\ncontract ProjectDetails {\n    struct Project {\n        string title;\n        string description;\n        string startDate;\n        string endDate;\n        uint256 amountToRaise;\n        string[] milestones;\n    }\n\n    mapping(uint256 => address) private projectOwners;\n    mapping(address => uint256[]) private projectsByOwner;\n\n    Project[] private projects;\n\n    function createProject(string memory _title, string memory _description, string memory _startDate, string memory _endDate, uint256 _amountToRaise) public {\n        uint256 projectId = projects.length;\n        projects.push(Project(_title, _description, _startDate, _endDate, _amountToRaise, new string[](0)));\n        projectOwners[projectId] = msg.sender;\n        projectsByOwner[msg.sender].push(projectId);\n    }\n\n    function setMilestones(uint256 _projectId, string[] memory _milestones) public {\n        require(projectOwners[_projectId] == msg.sender, \"Only project owner can set milestones.\");\n        projects[_projectId].milestones = _milestones;\n    }\n\n    function getCurrentProjectId() public view returns (uint256[] memory) {\n        return projectsByOwner[msg.sender];\n    }\n\n\n    function getProjectDetails() public view returns (Project[] memory) {\n        uint256[] memory projectIds = projectsByOwner[msg.sender];\n        Project[] memory result = new Project[](projectIds.length);\n\n        for (uint256 i = 0; i < projectIds.length; i++) {\n            uint256 projectId = projectIds[i];\n            result[i] = projects[projectId];\n        }\n\n        return result;\n    }\n}\n\n",
  "sourcePath": "/home/mypc/Documents/mypc/Personal/B.E./uBE/Mega Project/Implementation/v 1.0/contracts/ProjectDetails.sol",
  "compiler": {
    "name": "solc",
    "version": "0.8.19+commit.7dd6d404.Emscripten.clang"
  },
  "schemaVersion": "3.4.10",
  "updatedAt": "2023-04-19T07:09:10.948Z",
  "networkType": "ethereum",
  "devdoc": {
    "kind": "dev",
    "methods": {},
    "version": 1
  },
  "userdoc": {
    "kind": "user",
    "methods": {},
    "version": 1
  }
}